:020000040800F2
:1000000040650224ED030008010400080304000811
:10001000090E000807040008090400080000000099
:10002000000000000000000000000000E11A0008CD
:100030000D04000800000000510E0008011B00081C
:100040001304000813040008130400081304000834
:100050001304000813040008130400081304000824
:100060001304000813040008130400081304000814
:100070001304000813040008130400081304000804
:1000800013040008130400081304000813040008F4
:1000900013040008130400081304000813040008E4
:1000A00013040008130400081304000813040008D4
:1000B00013040008130400081304000813040008C4
:1000C00013040008130400081304000813040008B4
:1000D00013040008791F1008130400081304000813
:1000E00013040008130400080000000013040008B3
:1000F0001304000813040008130400081304000884
:100100001304000813040008130400081304000873
:100110001304000813040008130400081304000863
:100120001304000813040008130400081304000853
:100130001304000813040008130400081304000843
:1001400000000000000000000000000000000000AF
:100150001304000813040008130400081304000823
:100160001304000813040008130400081304000813
:100170001304000813040008130400080000000022
:1001800013040008130400081304000813040008F3
:1001900013040008130400081304000813040008E3
:1001A00013040008130400081304000813040008D3
:1001B00013040008130400081304000813040008C3
:1001C00013040008130400081304000813040008B3
:1001D00013040008130400081304000813040008A3
:1001E0001304000813040008130400081304000893
:1001F0001304000813040008130400081304000883
:100200001304000813040008130400081304000872
:100210001304000813040008130400081304000862
:100220001304000813040008130400080000000071
:100230001304000813040008000000001304000861
:100240001304000813040008130400081304000832
:100250001304000813040008130400081304000822
:100260001304000813040008130400081304000812
:100270001304000813040008130400080000000021
:100280001304000813040008130400080000000011
:10029000000000001304000800F002F8FFF0B2FEB6
:1002A00014A696E8000CB244B344DA4501D1FFF03D
:1002B000A9FEBAE80F000FA696E83000A5EB0405EA
:1002C00004EB0607AAEB0704A7F101074FEA15158F
:1002D0004FEA3414A4F10104AC4201D3FFF092FEC2
:1002E00013F0010F18BFFB1A43F0010300F001F8EF
:1002F000DBE7184764DE000084DE0000103A24BF0C
:1003000078C878C1FAD8520724BF30C830C144BF7A
:1003100004680C6070470000704700000023002450
:1003200000250026103A28BF78C1FBD8520728BF05
:1003300030C148BF0B6070476E2900F0C38170293F
:100340000DF0AC8266290DF0AB8265290DF0A88214
:1003500067290DF0A58261290DF0A48203681B0AAC
:1003600028BF41F08001692900F07081642900F004
:100370006D81752900F06A816F2900F04982782922
:100380000DF09282E9290DF09182E4290DF08E8220
:10039000F5290DF08B82EF2900F04682F8290DF047
:1003A00087820368DB0928BF41F08001632900F0E0
:1003B0004F82732900F05482E3290DF07B82F329E8
:1003C0000DF07A82002070471FB50AF155F900F14F
:1003D000E1FC0400002000210AF138F9401C6060B3
:1003E000002000210DF08CFAE0601FBDDFF8300026
:1003F000016841F470010160BFF34F8F0948004765
:10040000FEE7FEE7FEE7FEE7FEE7FEE7FEE7FEE7C4
:10041000FEE7FEE704480549034A054B7047000024
:1004200088ED00E099020008405D02244065022446
:10043000405D02240FB4044910B503AA029800F0ED
:1004400055F910BC5DF814FBA808002440EA01032C
:1004500010B59B070FD1042A0DD310C808C9121F6D
:100460009C42F8D020BA19BA884201D9012010BDA7
:100470004FF0FF3010BD1AB1D30703D0521C07E074
:10048000002010BD10F8013B11F8014B1B1B07D1D8
:1004900010F8013B11F8014B1B1B01D1921EF1D149
:1004A000184610BD10B5431C02E010F8011B71B1D5
:1004B0008107FAD14FF0013202C88C1A8C4314EA3A
:1004C000C211F9D0C01A0A0603D0C01E10BDC01A4E
:1004D00010BD0A0401D0801E10BD0902FCD0401ED0
:1004E00010BD032A40F2308010F0030C00F015809C
:1004F00011F8013BBCF1020F624498BF11F801CB27
:1005000000F8013B38BF11F8013BA2F1040298BF8B
:1005100000F801CB38BF00F8013B11F003030DF0E8
:10052000CD81083AC0F0088051F8043B083A51F8F0
:1005300004CBA0E80810F5E7121D5CBF51F8043B9E
:1005400040F8043BAFF30080D20724BF11F8013B11
:1005500011F801CB48BF11F8012B24BF00F8013B73
:1005600000F801CB48BF00F8012B704702F0FF03F1
:1005700043EA032242EA0242FFF0CBBD0000000042
:1005800030B44FF0013C50F8042BCCFA52F451F83F
:10059000043BD51A20D1FCB950F8042BCCFA52F404
:1005A00051F8043BD51A17D1B4B950F8042BCCFA42
:1005B00052F451F8043BD51A0ED16CB950F8042B03
:1005C000CCFA52F451F8043BD51A05D1002CDAD0FC
:1005D00030BC4FF00000704729BAB1FA81F111F038
:1005E0001801D1F120008440F2D1CA40CB4012F072
:1005F000FF0213F0FF0330BCD01A704770B50446F9
:1006000085690068C10601D5302600E02026C007B4
:1006100007D070BDD4E9012130469047206A401CC4
:1006200020626D1EF6D570BD70B5044685690078F0
:10063000C00707D170BDD4E9012120209047206A6E
:10064000401C20626D1EF6D570BD00002DE9F04102
:100650000646002410687529314616A510D0FFF013
:1006600081FD002802DA404213A507E031688A07BD
:1006700001D512A502E0490704D511A5012401E026
:10068000FFF079FD00210A2206F1240709E0B0FB02
:10069000F2FCB0FBF2F302FB1C0030307854184639
:1006A000491C0028F3D123462A463046BDE8F041D4
:1006B000FFF043BF000000002D0000002B000000F1
:1006C0002000000011680268006A530501D5087017
:1006D0000AE0D30501D5088006E0130603D5C2174A
:1006E000C1E9000200E0086001207047074B70B5C7
:1006F0000D467B44FFF077FD0446284600F118FBC9
:1007000010B14FF0FF3070BD204670BDCB580000D7
:100710002DE9FF5F15468A460446DFF8AC80F844B1
:100720000027D8E900103E46CDE9001010E03AF865
:1007300016106A4602A800F097F8411C07D02178ED
:10074000890603D5E269391891420DD80744761C11
:100750002078800602D5E069B84205DDAE42E6DBCE
:100760003AF816000028E2D1A069C01BA06120461B
:10077000FFF744FFD8E90010CDE90010002017E092
:100780003AF818106A4602A800F06EF8B0F1FF3F80
:1007900081460BD000250DF1080B05E0D4E90121BD
:1007A0001BF8050090476D1C4D45F7D308F101007B
:1007B000B0428046E4DB206A384420622046FFF7DE
:1007C00033FFBDE8FF9F00007A9F100030B4002186
:1007D00000F1240408E002F00705D208303542EAAF
:1007E0004372DB086554491C52EA0305F3D10468DF
:1007F000002310A2250708D504F020040C4304D0E0
:10080000C46901230CA2641EC46130BCFFF095BE14
:1008100010B5044621461068FFF0ADFC02462046A4
:10082000BDE810400023D1E7D21D22F00701D1E935
:100830000023CBE7000000003000000010B5436942
:1008400013B1AFF3008001E0FFF09EFC012010BD6A
:10085000127800F124010A7000224A700122EDE7AB
:1008600011684FF0FF32E9E72DE9F04116460C46DA
:10087000054600F187FA036893F80101012807D0C3
:10088000FF2C12D8185D80B101202C70BDE8F081DA
:10089000D3F807013246214603F20713C71828464A
:1008A000BC46BDE8F041002360474FF0FF30EDE764
:1008B0002DE9F0411F46044603260168072A01F48A
:1008C000006004DB08B116A505E016A503E008B139
:1008D00015A500E015A521F010002060A069C01E3C
:1008E000A0610FB1401EA0612046FFF787FE4FB107
:1008F000D4E9012138469047206A401C2062C01C80
:10090000206206E0206AFAE7D4E9012115F8010B1C
:100910009047761EF8D22046FFF786FEBDE8F081AC
:100920004E414E006E616E00494E4600696E660093
:100930002DE9F047814616468AB0354878440DC8FF
:100940008DE80D0032487844801C03AC0DC884E863
:100950000D0041F69B300844372190FBF1F290FBEB
:10096000F1F5A5F1800501FB12041B3C02D56442A0
:10097000012000E00020DFF898A080460027FA441C
:10098000AAF1BE0A0EE0E0070AD03246684607EB3D
:10099000470101230AEB810109F120FD8DE80700E1
:1009A00064107F1C002CEED1194F7F44AE3F19E03C
:1009B000E80715D007EB04100DF1180A90E80E00B7
:1009C0008AE80E00C068F04201D1981908903246BA
:1009D000012306A903A809F101FD03AB83E8070081
:1009E0006D10641C002DE3D14FF0010332466946BF
:1009F000B8F1000F03A802D00CF03AFF01E009F1B2
:100A0000EDFCC9E90001C9F808200AB0BDE8F0878B
:100A10007CD000000000000082B08DF80600FFE7E7
:100A200047F23400C5F20020006800909DF80000F5
:100A300010F0450F01D0FFE700E0F1E79DF800005E
:100A4000400700280FD5FFE747F23801C5F2002123
:100A50000420086040F6FF70C1F6E07008600320D3
:100A60008DF807002EE09DF80000C00748B1FFE7B1
:100A700047F23801C5F20021012008608DF8070017
:100A800020E047F21000C5F2002000689DF8061033
:100A9000884204D0FFE710208DF8070012E047F2EB
:100AA0003801C5F2002140F6FF70C1F6E070086021
:100AB00047F21400C5F20020006800F008008DF82D
:100AC0000700FFE79DF8070002B070470000000034
:100AD00083B000208DF80A004FF480300090FFE7CB
:100AE0000098411E009170B1FFE747F23400C5F253
:100AF0000020006801909DF8040010F0450F01D01F
:100B0000FFE700E0ECE7009830B1FFE79DF8040054
:100B10004007002810D5FFE703208DF80A0047F2B0
:100B20003801C5F20021086840F0040008609DF813
:100B30000A008DF80B0016E09DF80400400600281E
:100B40000CD5FFE700208DF80A0047F23801C5F206
:100B50000021086840F040000860FFE79DF80A00A7
:100B60008DF80B00FFE79DF80B0003B07047000005
:100B700080B58AB0ADF82400089100208DF81F00E0
:100B800006900590102004900121082200F188FCB5
:100B90000498FFF741FF8DF81F009DF81F0028B152
:100BA000FFE79DF81F008DF82700BAE0BDF824008C
:100BB000020437200390012100F172FC0398FFF733
:100BC0002BFF8DF81F009DF81F0028B1FFE79DF84F
:100BD0001F008DF82700A4E04FF0FF30082103220A
:100BE0000123019300F184FC01993320029000223B
:100BF00000F156FC0298FFF70FFF8DF81F009DF8DB
:100C00001F0028B1FFE79DF81F008DF8270088E03E
:100C1000FFE747F23400C5F20020006840F22A5195
:100C2000084213D1FFE747F23400C5F20020006804
:100C30000003002809D4FFE747F28000C5F2002036
:100C4000016805910068069000E0E2E747F2340091
:100C5000C5F200200068000700280CD5FFE747F226
:100C60003801C5F20021086840F00800086004203F
:100C70008DF8270055E047F23400C5F200200068E7
:100C8000800700280CD5FFE747F23801C5F20021A4
:100C9000086840F00200086002208DF8270040E05C
:100CA00047F23400C5F200200068800600280CD509
:100CB000FFE747F23801C5F20021086840F0200044
:100CC000086006208DF827002BE0FFE7FFE747F2DA
:100CD0003801C5F2002140F6FF70C1F6E0700860EF
:100CE0000599080601F47F4240EA022001F47F02E0
:100CF00040EA122040EA1160089948600699080607
:100D000001F47F4240EA022001F47F0240EA12200F
:100D100040EA1160089908609DF81F008DF82700CF
:100D2000FFE79DF827000AB080BD0000000000002A
:100D300080B584B0029000200190009040F248609D
:100D4000C2F20040006802040D20012100F1A8FB5E
:100D500047F23400C5F2002000680090FFE70098D9
:100D600010F0450F07D1FFE747F23400C5F200202D
:100D700000680090F3E70098C00760B1FFE747F212
:100D80003801C5F20021086840F001000860012028
:100D90008DF80F0034E00098400700280CD5FFE7DD
:100DA00047F23801C5F20021086840F004000860ED
:100DB00003208DF80F0023E047F21000C5F2002059
:100DC00000680D2804D0FFE710208DF80F0017E011
:100DD00047F23801C5F2002140F6FF70C1F6E0701D
:100DE000086047F21400C5F20020006801900198E5
:100DF000C0F343200299087000208DF80F00FFE730
:100E00009DF80F0004B080BD80B582B040F2004074
:100E1000C5F602000121002207F1C2FE4DF6FC607A
:100E2000C0F61000FFF706FB4FF47A70019003F153
:100E300037FF4DF61170C0F61000FFF7FBFA01986E
:100E400003F12EFF0AF090FE02B080BD000000000A
:100E5000EFF30980BFF36F8F154B1A681EF0100F68
:100E600008BF20ED108A20E9F04F10602DE909003D
:100E70004FF0500072B680F31188BFF34F8FBFF36D
:100E80006F8F62B60BF04CFD4FF0000080F31188BD
:100E9000BDE8090019680868B0E8F04F1EF0100FAF
:100EA00008BFB0EC108A80F30988BFF36F8F7047DA
:100EB0005C5B00240000000080B586B08DF8160051
:100EC00000208DF81500049003908DF80B009DF81C
:100ED000160020B1FFE702208DF80B0003E0002090
:100EE0008DF80B00FFE747F21400C5F20020006800
:100EF0008001002804D5FFE70E208DF8170046E09A
:100F000040F24860C2F20040008803A9FFF730FEBB
:100F10008DF815009DF8150028B1FFE79DF8150024
:100F20008DF8170033E09DF81200400700282AD5FD
:100F3000FFE740F24860C2F2004000680204372038
:100F40000190012100F1ACFA0198FFF765FD8DF8E1
:100F500015009DF8150028B1FFE79DF815008DF8E4
:100F6000170014E09DF80B2006200090012100F1ED
:100F700097FA0098FFF750FD8DF815009DF81500C1
:100F80008DF8170003E025208DF81700FFE79DF886
:100F9000170006B080BD000080B584B0029000202C
:100FA0008DF80700ADF8040040F23C60C2F200404A
:100FB0000078032804D1FFE727208DF80F0048E0D0
:100FC00040F23C60C2F20040007880B1FFE740F29E
:100FD0003C60C2F200400078012808D0FFE740F2F0
:100FE0003C60C2F20040007802282CD1FFE7029852
:100FF000022804D3FFE727208DF80F0029E09DF891
:101000000800FFF759FF8DF807009DF80700C0B9E9
:10101000FFE747F20401C5F200210868ADF80400BB
:10102000BDF804006FF39F30ADF80400029ABDF8DC
:10103000040040EA8230ADF80400BDF80400086006
:10104000FFE7FFE7FFE7FFE79DF807008DF80F00D8
:10105000FFE79DF80F0004B080BD00000000000015
:10106000B0B582B0019000218DF803108DF8021008
:1010700040F23C60C2F200400278019B83F85620A7
:1010800040F24862C2F200421268019BA3F8542069
:1010900040F22C62C2F20042D3788DF802309DF803
:1010A00002309B09DDF804C08CF800309DF8023056
:1010B000C3F38303DDF804C08CF801309DF80230DF
:1010C00003F00303DDF804C08CF8023053888DF878
:1010D00002309DF80230DDF804C08CF8033013684C
:1010E0001B0A8DF802309DF80230DDF804C08CF840
:1010F000043013688DF802309DF80230DDF804C02A
:101100008CF80530D3798DF802309DF802301B0140
:10111000DDF804C0ACF80630D3888DF802309DF8B5
:1011200002E0DDF804C0BCF8063043EA1E13ACF858
:1011300006309DF8023003F00F03DDF804C08CF890
:1011400008305268120A8DF802209DF80220D20958
:10115000019B5A729DF80220C2F38012019B9A7281
:101160009DF80220C2F34012019BDA729DF8022022
:10117000C2F30012019B1A73019A5173007880B177
:10118000FFE740F23C60C2F200400078012808D03E
:10119000FFE740F23C60C2F200400078032873D1C0
:1011A000FFE79DF8020000F003008002019908614A
:1011B00040F22C60C2F2004041688DF802109DF8A8
:1011C0000230019A116941EA83011161C17A8DF8F7
:1011D00002109DF80230019A116941EA93111161E0
:1011E0009DF80210C1F3C201019A11759DF8021019
:1011F00001F00701019A517541898DF802109DF89F
:1012000002104909019A91759DF80210C1F38201FB
:10121000019AD1759DF8021001F003014900019A6D
:1012200011768068000A8DF802009DF8022001996D
:10123000087E40EAD2100876019908690130002240
:10124000CA648864019A107E811C012000FA01FCA6
:101250004FEAEC74D16CD2F848E0AEFB0C350EFBD3
:10126000045E01FB0CE19364D16401990A7A904019
:10127000086501998A6CC86C0B6DA2FB032C00FBFE
:1012800003C08A64C86439E040F23C60C2F20040A6
:101290000078022831D1FFE740F22C60C2F2004012
:1012A00041688DF802109DF8021001F03F01090419
:1012B000019A1161C17A8DF802109DF80230019AED
:1012C000116941EA0321116141898DF802109DF8ED
:1012D0000230019A1169194311618068000A8DF882
:1012E000020001990869421CD004520BCA64886448
:1012F00001994FF400700865FFE7FFE79DF80200D1
:10130000C0F38010019948769DF8020000F03F007C
:1013100040000199887640F22C60C2F2004081685A
:101320008DF802109DF80230019A917E41EAD311A6
:1013300091769DF8021001F07F01019AD176C17B70
:101340008DF802109DF80210C909019A11779DF8D5
:101350000210C1F34111019A51779DF80210C1F3B7
:101360008201019A91779DF8021001F00301890032
:10137000019AD177C1898DF802109DF80230019A47
:10138000D17F41EA9311D1779DF80210C1F340114A
:10139000019A82F82010019A002182F821109DF80C
:1013A000021001F00101019A82F82210C168090AB5
:1013B0008DF802109DF80210C909019A82F82310D5
:1013C0009DF80210C1F38011019A82F824109DF853
:1013D0000210C1F34011019A82F825109DF8021005
:1013E000C1F30011019A82F826109DF80210C1F392
:1013F0008101019A82F827109DF8021001F0030183
:10140000019A82F82810C0688DF802009DF8020049
:101410004008019981F829000199012081F82A00EA
:1014200040F21C61C2F20041CA788DF802209DF89A
:101430000220019B83F82C204A888DF802209DF819
:1014400002201202019BDA850A68120A8DF8022036
:101450009DF802C0019BDA8D42EA0C02DA850A6827
:101460008DF802209DF802201206019B1A63CA79AA
:101470008DF802209DF802C0019B1A6B42EA0C42D3
:101480001A63CA888DF802209DF802C0019B1A6B6E
:1014900042EA0C221A634A68120A8DF802209DF86B
:1014A00002C0019B1A6B42EA0C021A634A688DF86B
:1014B00002209DF80220019B83F83420CA7A8DF81F
:1014C00002209DF80220019B83F835204A898DF87F
:1014D00002209DF802201206019B9A638A68120A74
:1014E0008DF802209DF802C0019B9A6B42EA0C42E3
:1014F0009A638A688DF802209DF802C0019B9A6B5E
:1015000042EA0C229A63CA7B8DF802209DF802C041
:10151000019B9A6B42EA0C029A63CA898DF80220F9
:101520009DF802C0019B93F83C2042EA1C1283F80C
:101530003C209DF8022002F00F021202019BDA8784
:10154000CA68120A8DF802209DF802C0019BDA8F4A
:1015500042EA0C02DA87C9688DF802109DF8021081
:101560004908019A82F84010019981F841009DF8DC
:10157000030002B0B0BD000080B58CB000230A9318
:101580008DF82F308DF82E3044F2E041C5F602017F
:10159000086840F00C00086044F2D441C5F602012E
:1015A000086840F48030086069464B60032005906D
:1015B000086040F60000C5F6020003904FF4F851B1
:1015C00004910222069207F107FB039804990C226A
:1015D000099207F185FA0598069A0A9B69464B60BD
:1015E000086040F60040C5F602000790042108910B
:1015F00007F1F2FA07980899099A07F171FA0A981F
:1016000047F20001C5F20021086047F20401C5F26B
:101610000021086047F20801C5F20021086047F286
:101620000C01C5F20021086047F22401C5F2002137
:10163000086047F22801C5F20021086047F22C013A
:10164000C5F20021086047F23802C5F2002240F6D8
:10165000FF71C1F6E071116047F23C01C5F2002153
:10166000086000F165F88DF82F009DF82F0028B96B
:10167000FFE7FFF075FF8DF82F00FFE79DF82F00C3
:1016800048B9FFE740F25060C2F20040FFF7E8FCC3
:101690008DF82F00FFE79DF82F0060B9FFE740F2BB
:1016A0005060C2F20040B0F85400000400F168F944
:1016B0008DF82F00FFE79DF82F0030B9FFE70120DC
:1016C000FFF76AFC8DF82F00FFE79DF82F0040B16F
:1016D000FFE740F23C60C2F20040007803281ED1D0
:1016E000FFE740F25060C2F2004090F8560048B167
:1016F000FFE740F25060C2F2004090F85600012827
:1017000004D1FFE706208DF82E0003E004208DF8B9
:101710002E00FFE79DF82E00FFF0AAFEFFE79DF8E0
:101720002F000CB080BD000080B58EB0014611982E
:1017300010980C910B930A92ADF8260000208DF8BA
:10174000250008904FF0FF3107910C99069147F260
:101750002C01C5F20021086040F23C60C2F200405A
:10176000007802280DD1FFE74FF40070ADF8260095
:101770000A980B99400A40EAC15049120B910A900D
:10178000FFE7BDF82620102005900121FFF088FE1C
:101790000598FFF741F98DF825009DF8250068B1FF
:1017A000FFE79DF825104EF2F800C0F60000FEF7A6
:1017B00041FE9DF825008DF8370027E11198BDF80E
:1017C000261041434FF0FF3009220123FFF090FE25
:1017D00047F20C01C5F20021086840F040000860A3
:1017E000119802281BD3FFE70A9A122004900121C6
:1017F000FFF056FE0498FFF70FF98DF825009DF8CD
:10180000250058B1FFE74EF20C10C0F60000FEF7BD
:1018100011FE9DF825008DF83700F7E014E00A9AD4
:10182000112003900121FFF03BFE0398FFF7F4F82D
:101830008DF825009DF8250028B1FFE79DF82500CB
:101840008DF83700E2E0FFE707F142FAFFE747F2E1
:101850003400C5F20020006810F4957F33D1FFE713
:1018600047F23400C5F200200068000400281ED5AD
:10187000FFE700200890FFE7089807280ED8FFE749
:1018800047F28000C5F2002000680699089A41F8E6
:101890002200FFE7089801300890EDE70698203015
:1018A00006904FF6FF70C0F27F0007900AE007989D
:1018B00020B9FFE704208DF83700A7E0079801382A
:1018C0000790FFE7C3E747F20C01C5F20021086863
:1018D00020F04000086007F1FFF947F23400C5F23C
:1018E00000200068000700280CD5FFE747F2380108
:1018F000C5F20021086840F00800086004208DF857
:10190000370083E047F23400C5F20020006880070A
:1019100000281CD5FFE747F23801C5F2002108680E
:1019200040F002000860119802280CD3FFE70C2059
:10193000029001210022FFF0B3FD0298FFF76CF83E
:101940008DF82500FFE702208DF837005EE047F2B2
:101950003400C5F200200068800600280CD5FFE79F
:1019600047F23801C5F20021086840F02000086005
:1019700006208DF8370049E0FFE7FFE747F2340023
:10198000C5F200200068C005002831D5FFE7119896
:1019900002282DD3FFE740F23C60C2F200400078FD
:1019A00080B1FFE740F23C60C2F2004000780128BD
:1019B00008D0FFE740F23C60C2F200400078022805
:1019C00015D1FFE70C20019001210022FFF068FDF6
:1019D0000198FFF721F88DF825009DF8250028B122
:1019E000FFE79DF825008DF837000FE0FFE7FFE7E0
:1019F00047F23801C5F2002140F6FF70C1F6E070F1
:101A000008609DF825008DF83700FFE79DF8370046
:101A10000EB080BD0000000080B58CB00B900A9124
:101A2000099200218DF823100A980791069040F240
:101A30003C60C2F20040007848B1FFE70699079881
:101A4000400240EAD150490206910790FFE79DF815
:101A50002C00800770B3FFE700200590FFE7059892
:101A60000999884225D2FFE706990798059A11EB54
:101A7000422240F100036946012048604FF40070A3
:101A80000490086040F2A860C2F200400390FFF7A3
:101A90004BFE0399049A8DF823000B98FEF721FD65
:101AA0000B9800F500700B90FFE70598013005904A
:101AB000D5E70FE00B98069A079B0999EC46CCF8FE
:101AC00004104FF40071CCF80010FFF72DFE8DF8D4
:101AD0002300FFE79DF823000CB080BD000000004C
:101AE000064B19680868B0E8F04F80F30988BFF327
:101AF0006F8F4FF0000080F3118870475C5B00240B
:101B000080B582B04FF0500072B680F31188BFF3F9
:101B10006F8FBFF34F8F62B6009008F105FA40B1A6
:101B2000FFE74EF60451CEF200014FF080500860FE
:101B300000E0FFE700200190019880F3118802B0D7
:101B400080BD00000000000082B0ADF80600BDF8C6
:101B5000061001200090C1B1FFE7BDF8061001207A
:101B6000B1F5784F009010D0FFE7BDF806100120C6
:101B7000B1F5FC6F009008D0FFE7BDF806001F38F4
:101B8000B0FA80F040090090FFE7009800F00100F3
:101B900002B070470000000086B0059004910598DF
:101BA00003904FF0FF30029000200190FFE7019872
:101BB000049988422DD2FFE703980199415C02986D
:101BC0004840029000208DF80300FFE79DF80300D5
:101BD000072819D8FFE79DF80800C00748B1FFE7BC
:101BE000029948F22030CEF6B85080EA51000290B7
:101BF00003E0029840080290FFE7FFE79DF803002A
:101C000001308DF80300E1E7FFE701980130019012
:101C1000CDE70298C04306B0704700000000000006
:101C200080B586B004900498102839D3FFE743F2BA
:101C3000C070C2F200400078442831D1FFE743F27F
:101C4000C070C2F200404078522829D1FFE743F229
:101C5000C070C2F200408078572821D1FFE743F2DC
:101C6000C070C2F20040C078312819D1FFE743F2BA
:101C7000C070C2F200408088012811D1FFE743F212
:101C8000C070C2F20040C088082809D1FFE743F2C3
:101C9000C070C2F200408068B0F5806F04D9FFE7E1
:101CA00000208DF8170059E043F2C070C2F20040E6
:101CB0008068C000029004980299103188420ED1C9
:101CC000FFE7029943F2C070C2F20040009010306A
:101CD000FFF762FF0099C968884204D0FFE700203F
:101CE0008DF817003AE000200390FFE7039843F2D5
:101CF000C071C2F20041896888422BD2FFE7039984
:101D000043F2C070C2F2004000EBC10010300190FD
:101D100001990888498800F157FB90B1FFE70198C5
:101D20008088FFF711FF60B1FFE7019880790128F3
:101D300007D8FFE7039840B9FFE70198807920B9F9
:101D4000FFE700208DF8170008E0FFE70398013057
:101D50000390CBE701208DF81700FFE79DF81700EF
:101D600006B080BD0000000080B582B041F26C106A
:101D7000C2F20040019042F25001FEF0C8F9019910
:101D800001200870002088804DF6B660C0F6000083
:101D900000F052F800F144FB02B080BD00000000EA
:101DA00080B584B000200390FFE7039841F26C11E6
:101DB000C2F20041C96888423AD2FFE7039941F272
:101DC0006C10C2F2004000EBC1005030029002984B
:101DD000807918B9FFE7039858B9FFE7029802889D
:101DE00043888088694608601046194601F124FC42
:101DF00019E0039941F26C10C2F2004000EBC100FF
:101E000048300190019908884988DDF808C0BCF87D
:101E10000020BCF80230BCF804C0EE46CEF800C08A
:101E200001F10AFCFFE7FFE7039801300390BCE7EC
:101E300004B080BD0000000080B582B00190019A1E
:101E400041F26C10C2F200401030402100F160F904
:101E500002B080BD0000000083B08DF807009DF83F
:101E6000070001460091012808D0FFE700980328E9
:101E70000AD0FFE7009806280CD011E04DF6AF60BD
:101E8000C0F61000029011E04DF65F60C0F6000051
:101E900002900BE04DF6B650C0F61000029005E03F
:101EA0004DF6F350C0F600000290FFE7029803B031
:101EB000704700000000000080B5B8B001A8009095
:101EC000DC21FEF024F9009805218DF80410013082
:101ED0004DF65572C0F600020D2100F119F9009877
:101EE00043F2C071C2F20041359142F210013791C4
:101EF00001F00EFA012809D0FFE74DF6B650C0F602
:101F00001000FFF799FF00F103FB10E041F26C11A4
:101F1000C2F2004101204870002088704DF63A70EE
:101F2000C0F60000FFF788FF00F1F2FAFFE738B0D3
:101F300080BD00000000000080B5BCB043F2C0705E
:101F4000C2F2004002904421017052214170572199
:101F500081703121C170012181800821C18041F24D
:101F60006C11C2F20041CA688260CA68D200049251
:101F7000049A103001905031FEF075F801980499E0
:101F8000FFF70AFE0299C86005A80390DC21FEF065
:101F9000BEF8039806218DF8141001304DF65572E5
:101FA000C0F600020D2100F1B3F8029903983991AF
:101FB000049910313A9101F0ABF9012809D0FFE7FB
:101FC0004DF6B650C0F61000FFF736FF00F1A0FA4C
:101FD00010E041F26C11C2F2004101204870002073
:101FE00088704DF64E70C0F60000FFF725FF00F137
:101FF0008FFAFFE73CB080BD43F2C411C2F200414A
:10200000002008707047000085B004900391029290
:10201000049818B1FFE7039808B9FFE728E000200B
:1020200001900298F8B1FFE7FFE702980199415C3F
:102030000020009049B1FFE70198411C039A00205D
:10204000914238BF01200090FFE70098C00748B1D7
:10205000FFE70298019A805C049988540198013046
:102060000190E2E7FFE70499019A00208854FFE716
:1020700005B070470000000080B5BCB005A8049012
:10208000DC21FEF044F8049801218DF81410013091
:10209000029000F0A1F904980E3001904AF27C728F
:1020A000C0F61002C021FFF7AFFF0198FEF7FAF962
:1020B000029AADF8E20043F2C410C2F2004003906D
:1020C00020300D21FFF7A0FF039A049800215174DE
:1020D0004DF6AB41C0F6100100F182FC3CB080BD72
:1020E00080B5BCB03B9043F2C410C2F20040407CCB
:1020F00078B9FFE743F2C411C2F2004101204874ED
:102100004DF6EA50C0F6100000F0FEFA00F1D8FBE0
:1021100026E004A80390DC21FDF0F9FF03980421D8
:102120008DF8101001303B9A0D210191FFF76CFFE3
:10213000019943F2C410C2F20040029020304EF2E6
:102140004312C0F60002FFF75FFF029A03980021D6
:1021500051744DF69041C0F6100100F141FCFFE7CB
:102160003CB080BD0000000080B584B0039043F215
:10217000C410C2F20040007870B1FFE7039858B174
:10218000FFE70398007838B9FFE743F2C410C2F2C2
:102190000040407808B1FFE71BE10399488889882F
:1021A00043F2C412C2F2004201925279013AB2FAE9
:1021B00082F2520901F174FA014601988DF80B1070
:1021C000407901283ED1FFE79DF80B00032803D199
:1021D000FFE700F1B1F934E09DF80B00042803D1CA
:1021E000FFE700F1ADFB2BE09DF80B00052808D1BF
:1021F000FFE743F2C410C2F200401330FFF770FF54
:102200001DE09DF80B00092818D1FFE743F2C41028
:10221000C2F20040002141714174027C4DF6086118
:10222000C0F610014DF68560C0F61000002A18BFF8
:10223000084600F069FA00F143FBFFE7FFE7FFE71C
:10224000FFE7C6E003994888898801F1FDFA8DF817
:102250000A009DF90A00002826D4FFE743F2C411C2
:10226000C2F20041C87800EB40029DF80A0000EB82
:1022700042008DF809009DF809008978884212DA39
:10228000FFE79DF8090043F2C411C2F20041087152
:10229000002048744DF6E930C0F6100000F034FA22
:1022A00000F10EFBFFE794E09DF80B00012803D13D
:1022B000FFE7FFF7E1FE8CE09DF80B00022803D159
:1022C000FFE700F071F983E09DF80B00052821D1AC
:1022D000FFE743F2C410C2F2004090F90400002866
:1022E00017D4FFE743F2C410C2F2004081780079AE
:1022F00088420EDAFFE743F2C410C2F200400179CF
:1023000001EB410100EB011000F5B870FFF7E8FEAA
:10231000FFE75CE09DF80B00062819D1FFE743F2C8
:10232000C410C2F20040C07890B1FFE743F2C4117C
:10233000C2F20041C8780138C870002048744DF6D8
:10234000DB40C0F6100000F0DFF900F1B9FA3DE023
:102350009DF80B00072829D1FFE743F2C410C2F211
:102360000040817805314AF6AB22CAF6AA22A1FBC9
:10237000022189088DF80810C07801309DF80810F6
:10238000884212D2FFE743F2C411C2F20041C8787A
:102390000130C870002048744DF6E940C0F61000C6
:1023A00000F0B2F900F18CFAFFE70EE09DF80B00A7
:1023B000082809D1FFE743F2C411C2F2004100200E
:1023C000487400F035F9FFE7FFE7FFE7FFE7FFE7B5
:1023D000FFE704B080BD000080B582B0019043F2F9
:1023E000C410C2F200400089ADF80200FFE7BDF85A
:1023F000020042F20F7188426ED8FFE701994E2029
:10240000087001994F204870019954208870019AF2
:102410004521D170BDF8021048F63812C0F24102D1
:10242000A1FB022149F69A12C1F69912A1FB02C33F
:1024300003EB8303A1EB430141F03001019B1971D0
:10244000BDF8021045F62943C0F28F23A1FB0331EA
:10245000A1FB02C303EB8303A1EB430141F0300175
:10246000019B5971BDF80210A1FB0231A1FB02C30F
:1024700003EB8303A1EB430141F03001019B997110
:10248000BDF80210A1FB023202EB8202A1EB420175
:1024900041F03001019AD171019A2E2111720199F6
:1024A0004872019A582191720199C87201990020CD
:1024B0000873BDF802000130ADF80200019800F089
:1024C00017F840B9FFE7BDF8020043F2C411C2F2A9
:1024D0000041088109E08AE701984DF6A362C0F641
:1024E00010020D21FFF790FDFFE702B080BD000054
:1024F00080B584B0029000208DF80700FFE79DF8BA
:10250000070043F2C411C2F20041897888421CDA04
:10251000FFE79DF8070000EB400143F2C410C2F250
:10252000004000EB011000F5B8700299FEF728F8A2
:1025300020B9FFE701208DF80F000AE0FFE79DF8C2
:10254000070001308DF80700D9E700208DF80F0053
:10255000FFE79DF80F0004B080BD00000000000000
:1025600080B582B043F2C410C2F2004000904FF434
:10257000BE61FDF0CCFD009901200870FF220A71B8
:1025800008810020019048714DF6CD60C0F6100022
:1025900000F0BAF800F194F9019800F049F802B09F
:1025A00080BD00000000000080B5BAB043F2C41046
:1025B000C2F2004090F90400002809D4FFE743F27A
:1025C000C410C2F2004081780079884209DBFFE73D
:1025D0004DF68F60C0F6100000F096F800F170F92B
:1025E00023E003A80290DC21FDF091FD0298022176
:1025F0008DF80C10013043F2C411C2F20041019178
:102600000A7902EB420201EB021101F5B8720D21C9
:10261000FFF7FAFC019A0298002151744DF67641B9
:10262000C0F6100100F1DCF9FFE73AB080BD000010
:1026300080B5BAB0399002A80190DC21FDF067FDA9
:1026400000208DF80800399A43F2C410C2F200400D
:1026500000F22D104021FFF7D7FC01984DF6E761FD
:10266000C0F6100100F1BCF93AB080BD00000000D6
:1026700080B582B043F2C410C2F2004090F820004E
:1026800008B9FFE73EE000208DF80700FFE79DF85E
:10269000070043F2C411C2F200418978884229DA66
:1026A000FFE79DF8070000EB400043F2C411C2F2BF
:1026B000004101EB001000F5B8702031FDF760FF1C
:1026C00088B9FFE79DF8070043F2C411C2F2004148
:1026D00008719DF807004AF6AB22C2F6AA22A0FBB9
:1026E0000220C87006E0FFE79DF8070001308DF872
:1026F0000700CCE743F2C411C2F20041002081F888
:102700002000FFE702B080BD80B582B00190019A41
:1027100043F2C410C2F20040ED304021FFF774FCD8
:1027200002B080BD0000000080B5FFE740F6FC006D
:10273000C2F2004000F0DCFC012807D1FFE740F6C0
:10274000FC00C2F20040FFF083FFEFE780BD000015
:1027500081B00090009878B1FFE745F65020C2F2B2
:10276000004000680099086043F2BC10C2F20040CB
:10277000006800994860FFE701B070470000000062
:10278000B0B582B00190019808B9FFE71BE00AF0EC
:1027900013F8019945F2E470C2F200400268436800
:1027A000D0F808C0D0F80CE0046945694D610C61AF
:1027B000C1F80CE0C1F808C04B600A60806988610C
:1027C0000AF02EF8FFE702B0B0BD000000000000E4
:1027D00082B00190009101980099401AC043C00F47
:1027E00002B070470000000080B584B003900291F1
:1027F0000399012008700399002001904871029804
:10280000007901F1F9FA019B039881794DF6A6123E
:10281000C0F61002184602F013F904B080BD0000A3
:1028200080B584B00390029101920093039890F9CF
:102830001D00012817D0FFE70198007828B1FFE7B5
:102840000198007801280ED1FFE70198408803998C
:1028500008810198808803994881039908894989EA
:1028600001F1B2F8FFE70198007810BBFFE701998A
:102870004888898800F0BCFED8B1FFE7039890F93A
:102880001D0018B9FFE7FFF7B7FB09E0039890F9BF
:102890001D00012803D1FFE7FFF032FCFFE7FFE74F
:1028A0000399487F087703980299009A00F134F958
:1028B00013E0039890F91D0020B9FFE70198FFF796
:1028C00053FC0AE0039890F91D00012804D1FFE7AA
:1028D0000198FFF055FCFFE7FFE704B080BD000062
:1028E00080B584B00390029101920298007828B1DB
:1028F000FFE70298007801280ED1FFE70298408890
:10290000039908810298808803994881039908896E
:10291000498901F159F8FFE70298007830BBFFE7D9
:1029200002994888898800F0A7FF8DF803009DF977
:102930000300002819D4FFE79DF90300039991F9DA
:102940001C10884207D1FFE703989DF90310019AF4
:1029500000F1A2F808E09DF80300039908779DF9BB
:10296000030001F141F8FFE7FFE7FFE704B080BD96
:1029700080B586B005900491039202930398007885
:1029800008B1FFE74BE003994888898800F1A8FF68
:102990008DF807009DF90700002821D4FFE79DF975
:1029A000070009281CDCFFE70598407903280CD8AC
:1029B000FFE79DF80700303005994A7911444870C7
:1029C0000599487901304871FFE705994879897977
:1029D0004DF6A612C0F61002002302F031F81EE0F8
:1029E0009DF907000A280DD1FFE7059800234371E0
:1029F000059881794DF64432C0F61002184602F06F
:102A00001FF80BE09DF907000B2806D1FFE705989A
:102A10000499029A00F03CF8FFE7FFE7FFE706B0F1
:102A200080BD00000000000083B001900198407953
:102A3000042804D0FFE700208DF80B0024E00020DC
:102A40008DF80300FFE79DF80300032818D8FFE77F
:102A500001989DF80320104440784DF65C01C0F6C3
:102A60001001895C884204D0FFE700208DF80B003C
:102A70000AE0FFE79DF8030001308DF80300E2E76C
:102A800001208DF80B00FFE79DF80B0003B07047A5
:102A900080B584B003900291019203984079032895
:102AA0000BD8FFE70399487989794DF65B32C0F678
:102AB0001002012301F0C4FF32E00398FFF7B4FFD6
:102AC00030B1FFE703980299019A00F125F827E059
:102AD000039900204871039988790130887103981F
:102AE0008079032811D3FFE7039902200870019829
:102AF00042F2107108440399C86003990A204861A2
:102B00000398406901F124F90AE0039881794DF6B0
:102B10004C32C0F610020020012301F091FFFFE7C4
:102B200004B080BD0000000080B588B00790069119
:102B30000798013000F054F920B9FFE70699042006
:102B400048701DE00798411C0DF10600009000F050
:102B5000E7F8009802F070FE8DF817009DF8170056
:102B6000069988709DF8170000F0F2F806994870F1
:102B700006980C3007994A1C0D2100F18DF8FFE7EB
:102B800008B080BD0000000080B584B00420DC21C6
:102B90000022009209F06CFF009A45F60801C2F28B
:102BA0000041029108600220019040F25C5109F05E
:102BB0005FFF009A0146019845F60C03C2F20043FC
:102BC0001960082109F054FF0146029840F65C6242
:102BD000C2F200421160006870B1FFE745F60C00D8
:102BE000C2F20040006838B1FFE740F65C60C2F214
:102BF0000040006818B9FFE70020039023E045F685
:102C00000800C2F2004000684DF6DE51C0F6000137
:102C100006F19AFD45F60C00C2F2004000684DF640
:102C2000B651C0F6000106F18FFD40F65C60C2F2BD
:102C3000004000684DF6C751C0F6000106F184FD62
:102C400001200390FFE7039804B080BD000000005E
:102C500080B594B013904DF66F51C0F6000108A8EE
:102C600002F122FB8DF807009DF80700002843D1F0
:102C7000FFE7FFE71398C078172839D8FFE708A8BF
:102C800002A902F1B5FC8DF807009DF8070020B9F4
:102C9000FFE79DF8110008B9FFE729E09DF8100053
:102CA000C006002801D5FFE7E4E71398C17801EBDF
:102CB000410100EB0110DC300090009802A901F105
:102CC00009020D21FFF0E8FF009901F1150000F065
:102CD00027F8009800F12CF9029800998862009971
:102CE000012081F82C001399C8780130C870C1E721
:102CF00008A802F0DDFCFFE79DF807001399887033
:102D00009DF8070000F024F8139948701398407854
:102D100020B9FFE7139800F13FF9FFE714B080BD39
:102D200080B582B00190009101993020087001991E
:102D30003A20487001992F20887001980330009A3A
:102D40000E21FFF0A9FF02B080BD000000000000CE
:102D500081B08DF802009DF8020020B9FFE7002045
:102D60008DF8030036E09DF80200082804D1FFE743
:102D700002208DF803002DE09DF80200042805D004
:102D8000FFE79DF80200052804D1FFE703208DF836
:102D900003001FE09DF80200062804D1FFE704208D
:102DA0008DF8030016E09DF8020003280AD0FFE723
:102DB0009DF802000C2805D0FFE79DF802000D28C1
:102DC00004D1FFE701208DF8030003E005208DF812
:102DD0000300FFE79DF8030001B07047000000000A
:102DE00085B00390039820B1FFE70398007820B9DD
:102DF000FFE700208DF813006EE000200190FFE750
:102E000003980199415C0020009039B1FFE70199D6
:102E100000200D2938BF01200090FFE70098C0076F
:102E200020B1FFE7019801300190E9E7019820B156
:102E3000FFE701980D2804D3FFE700208DF8130069
:102E40004AE000200290FFE70298019988423FD2B1
:102E5000FFE703980299405C2F2830D0FFE70398E2
:102E60000299405C5C282AD0FFE703980299405CF5
:102E70003A2824D0FFE703980299405C2A281ED004
:102E8000FFE703980299405C3F2818D0FFE70398BA
:102E90000299405C222812D0FFE703980299405C17
:102EA0003C280CD0FFE703980299405C3E2806D0EE
:102EB000FFE703980299405C7C2804D1FFE70020DB
:102EC0008DF8130008E0FFE7029801300290BBE79D
:102ED00001208DF81300FFE79DF8130005B070473F
:102EE00080B584B003900291029900204860086088
:102EF000039800780299087045F65420C2F2004009
:102F00000078012811D0FFE7FFF062FF8DF807007D
:102F10009DF8070040B1FFE79DF80700029988700F
:102F20000299012048700FE0FFE703980078052818
:102F300005D1FFE70398029900F05EF804E00398DA
:102F4000029900F06DFAFFE704B080BD00000000B8
:102F500080B5ADF5167D9590949195980130FFF769
:102F60003FFF20B9FFE794990420487040E095980E
:102F7000411C0DF10F000290FFF7D2FE02990AA842
:102F8000012201F1F5FF8DF82700002008909DF83F
:102F9000270098B9FFE70D9894998860949800F1FC
:102FA00019010AA80190BF2208AB02F1E9F9014614
:102FB00001988DF8271002F05BFBFFE79DF82700D2
:102FC000949988709DF82700FFF7C2FE9499487085
:102FD000089894998880949808990144002048762C
:102FE00094980C3095994A1C0D21FFF055FEFFE78F
:102FF0000DF5167D80BD000080B5ADF5167D959070
:10300000949195980130FFF7EBFE50B1FFE795984A
:10301000D0F8D00028B1FFE79598D0F8D80020B9B3
:10302000FFE79499042048705DE09598411C0DF1EC
:103030000B000190FFF774FE019800F079F88DF80D
:1030400027009DF8270058B1FFE79DF827009499C5
:1030500088709DF82700FFF77BFE9499487042E046
:103060000AA80DF10B01012201F182FF8DF8270062
:103070000020089007909DF82700E0B9FFE70D9821
:10308000079007989599D1F8D810884204D9FFE79E
:1030900009208DF827000AE09598D0F8D010079AFB
:1030A0000AA808AB02F16CF98DF82700FFE70AA81F
:1030B00002F0DEFAFFE79DF82700949988709DF8EA
:1030C0002700FFF745FE949948709DF8270018B92E
:1030D000FFE70898009002E007980090FFE700984B
:1030E00094994860FFE70DF5167D80BD0000000053
:1030F00080B582B00090009838B1FFE745F60C002B
:10310000C2F20040006818B9FFE7002001900AE011
:1031100045F60C00C2F2004000680099002209F058
:1031200087FD0190FFE7019802B080BD000000001C
:1031300080B58AB00890089802A902F0D1FA8DF8FB
:1031400007009DF8070020B9FFE700208DF8270051
:1031500040E09DF8070004280AD0FFE79DF807002B
:10316000052805D0FFE79DF807008DF8270031E01E
:103170004DF67B50C0F6000002A902F0B1FA8DF8BE
:1031800007009DF8070050B9FFE708994DF67B50FE
:10319000C0F6000002F174FA8DF827001AE04DF62F
:1031A0008850C0F6000002A902F09AFA8DF80700D4
:1031B0009DF8070050B9FFE708994DF68850C0F612
:1031C000000002F15DFA8DF8270003E004208DF87D
:1031D0002700FFE79DF827000AB080BD000000002F
:1031E00080B5ADF51E7D4DF6AA51C0F6000114A8BC
:1031F000012201F1BDFE8DF84F009DF84F00A8BBE4
:10320000FFE702A800904021FCF05FFF009914A89E
:1032100001903F2212AB02F1B3F8014601988DF8FC
:103220004F1002F025FA9DF84F00A8B9FFE7129859
:103230000D2811D3FFE74DF6E811C0F6000102A8F2
:103240000D22FDF703F938B9FFE74DF6F240C0F65D
:103250000000FDF7EFF808E09DF84F104DF67540BF
:10326000C0F60000FDF7E6F8FFE708E09DF84F1014
:103270004DF6D440C0F60000FDF7DCF8FFE74DF650
:103280009A51C0F6000114A80A2201F171FE8DF8CE
:103290004F009DF84F00E8B9FFE74DF6F611C0F674
:1032A000000114A8132212AB02F1CAFA8DF84F00E4
:1032B0009DF84F0050B9FFE71298132806D1FFE799
:1032C00014A802F041FA8DF84F00FFE714A802F0AD
:1032D000CFF9FFE79DF84F0058B9FFE71298132880
:1032E00007D1FFE74DF63350C0F60000FDF7A2F816
:1032F00008E09DF84F104DF6B240C0F60000FDF713
:1033000099F8FFE70DF51E7D80BD0000000000006C
:1033100080B582B00090009838B1FFE745F608000C
:10332000C2F20040006818B9FFE7002001900BE0EE
:1033300045F60800C2F200400068009900231A46D2
:1033400006F126FC0190FFE7019802B080BD000065
:1033500080B5ADF5147D9390929193980130FFF76D
:103360003FFD20B9FFE792990420487052E09398FE
:10337000B0F8CE00C02804D3FFE79299052048702A
:1033800048E09398411C0DF107000090FFF7C8FC3E
:10339000009908A80A2201F1EBFD8DF81F0000201A
:1033A00006909DF81F0000BBFFE7939800F10E0107
:1033B000B0F8CE2008A806AB02F142FA8DF81F0043
:1033C0009DF81F0068B9FFE706989399B1F8CE10F1
:1033D000884206D1FFE708A802F0B6F98DF81F0071
:1033E000FFE708A802F044F9FFE79DF81F00929953
:1033F00088709DF81F00FFF7ABFC92994870069803
:103400009299888092980C3093994A1C0D21FFF074
:1034100043FCFFE70DF5147D80BD000000000000B7
:1034200080B5ADF51E7D9D909C919D980130FFF774
:10343000D7FC50B1FFE79D98D0F8D00028B1FFE746
:103440009D98D0F8D40020B9FFE79C9904204870DB
:10345000CAE09D98411C0DF116000390FFF760FC37
:103460000398FFF765FE4DF68850C0F60000049003
:1034700002F0E2F9049912A80A2201F179FD8DF80F
:103480002F0000200A909DF82F0048BBFFE79D9871
:10349000D0F8D010D0F8D42012A80AAB02F1D0F99D
:1034A0008DF82F009DF82F0068B9FFE70A989D99C5
:1034B000D1F8D410884206D1FFE712A802F044F9EF
:1034C0008DF82F0008E09DF82F0020B9FFE70120BC
:1034D0008DF82F00FFE7FFE712A802F0C9F8FFE719
:1034E0009DF82F00A0B1FFE74DF68850C0F6000010
:1034F00002F0A2F99DF82F009C9988709DF82F008A
:10350000FFF726FC9C9948700A989C9948606BE0EC
:103510000DF116000CA902F0E3F8B0FA80F04009B2
:103520008DF827009DF8270078B1FFE74DF67B5016
:10353000C0F60000029002F07FF902990DF116002A
:1035400002F19EF88DF82F00FFE79DF82F0058B983
:10355000FFE74DF68850C0F600000DF1160102F1AC
:103560008FF88DF82F00FFE79DF82F00B0B1FFE72F
:103570009DF8270058B1FFE74DF67B50C0F60000DC
:103580000DF1160102F17CF88DF82E00FFE74DF6E3
:103590008850C0F6000002F04FF90BE09DF82700BC
:1035A00038B1FFE74DF67B50C0F6000002F044F959
:1035B000FFE7FFE79DF82F009C9988709DF82F008A
:1035C000FFF7C6FB9C9948709DF82F0028B9FFE7CC
:1035D0009D98D0F8D400019002E000200190FFE710
:1035E00001989C994860FFE70DF51E7D80BD0000A5
:1035F00082B0ADF80600ADF80410BDF8061000204A
:103600000C29009016D3FFE7BDF8061000206C29A6
:1036100000900FD8FFE7BDF80410002008290090A3
:1036200008D3FFE7BDF804100020282938BF012087
:103630000090FFE7009800F0010002B07047000022
:1036400080B582B041F26410C2F20040007808B93F
:10365000FFE744E00020ADF80600FFE7BDF80600F4
:103660000F2835D8FFE70020ADF80400FFE7BDF8CC
:1036700004000B2825D8FFE741F26610C2F2004093
:103680000088BDF80420104441F26811C2F20041E4
:103690000988BDF80630194403EB430302EB8303AA
:1036A00040F66462C2F2004252F8232080B289B22E
:1036B00002F172FEFFE7BDF804000130ADF804002E
:1036C000D5E7FFE7BDF806000130ADF80600C5E715
:1036D00041F26411C2F2004100200870FFE702B01D
:1036E00080BD00000000000080B584B0ADF80E0081
:1036F000ADF80C10BDF80E00B0F5457F05D9FFE719
:103700004FF44570ADF80E00FFE7BDF80C00B0F5C2
:10371000E87F05D9FFE74FF4E870ADF80C00FFE74C
:10372000BDF80E0041F26611C2F200410880BDF8FA
:103730000C0041F26811C2F2004108800020ADF88F
:103740000A00FFE7BDF80A000F2833D8FFE7002082
:10375000ADF80800FFE7BDF808000B2823D8FFE705
:10376000BDF80E00BDF808100844BDF80C10BDF8F7
:103770000A20114480B289B203F196FABDF80A100A
:1037800001EB4102BDF8081001EB820240F66461D2
:10379000C2F2004141F82200FFE7BDF80800013005
:1037A000ADF80800D7E7FFE7BDF80A000130ADF833
:1037B0000A00C7E70020ADF80A00FFE7BDF80A00DD
:1037C0000F2851D8FFE70020ADF80800FFE7BDF84B
:1037D00008000B2841D8FFE7BDF80A004DF24372FC
:1037E000C0F610020D2100FB0120BDF80810405C5E
:1037F0008DF807009DF80700232810D1FFE7BDF8DA
:103800000E00BDF808100844BDF80C10BDF80A20E1
:10381000114480B289B2002202F1BEFD16E09DF88B
:1038200007002B2811D1FFE7BDF80E00BDF80810E6
:103830000844BDF80C10BDF80A20114480B289B2CA
:103840004FF6FF7202F1A8FDFFE7FFE7FFE7BDF8C3
:1038500008000130ADF80800B9E7FFE7BDF80A003D
:103860000130ADF80A00A9E741F26411C2F200414B
:103870000120087004B080BD83B0ADF80800ADF839
:10388000061000208DF80500FFE79DF805000528CB
:1038900037D8FFE79DF8050000EB40014DF6140016
:1038A000C0F6100000EB81000090BDF80800009900
:1038B000098888421EDBFFE7BDF80800009A1188DE
:1038C00092881144884215DAFFE7BDF80600009996
:1038D000498888420EDBFFE7BDF80600009A518850
:1038E000D2881144884205DAFFE79DF805008DF87B
:1038F0000B000AE0FFE79DF8050001308DF8050098
:10390000C3E7FF208DF80B00FFE79DF90B0003B024
:10391000704700000000000080B58EB00D9041F2AD
:103920006411C2F200410020089008704DF6FB605F
:1039300002F122FC08996A4641F2A200039010604D
:1039400040F21F3204922F23084605F0D5FC03995C
:10395000049A08986B4619604FF4E07140F2DF1347
:1039600005F0CAFC694640F2FF4008600C2009904F
:10397000082105916C2206922723079305F0BCFCD1
:103980000599069A079B0998EE464FF6FF7CCDF8FD
:1039900028C0CEF800C002F127FD089809996A46B0
:1039A00050604DF67E10C0F61000106061221023AA
:1039B0000C93084600F120F909990A9B0D9A684674
:1039C00083604260182303608E204FF4FA720B92DA
:1039D00000F112FB0A990B9A0C9B684681604DF628
:1039E0000131C0F61001416003604FF4E4711846E4
:1039F00000F102FB0EB080BD80B58AB0ADF82600A4
:103A000008918DF81F209DF81F1041F6E300002952
:103A100018BF44F66920ADF81C009DF81F1049F648
:103A2000F3400390002918BF4FF6FF70ADF81A005D
:103A3000BDF8261001F12900BDF81C206B461A6064
:103A400083B240F28220059040F20732049205F0E2
:103A500053FCDDF80CC0049A0598BDF8261001F15E
:103A600029039DF81FE0BEF1000F18BF4FF6FF7C41
:103A7000EE46CEF800C09BB202F1B6FC0598BDF848
:103A800026100D31089ABDF81AC06B46C3F804C061
:103A90001A6089B28622102300F1AEF80AB080BD08
:103AA00080B588B084460A98ADF81EC0ADF81C10E9
:103AB000ADF81A2005938DF813009DF8131041F608
:103AC000E300002918BF44F66920ADF810009DF806
:103AD000131049F6F3400290002918BF4FF6FF700B
:103AE000ADF80E00BDF81E00BDF81C10BDF81A2080
:103AF0000244013A01F12903BDF810C0EE46CEF8A8
:103B000000C092B29BB205F0F7FBDDF808C0BDF82B
:103B10001E00BDF81C10BDF81A200244013A01F144
:103B200029039DF813E0BEF1000F18BF4FF6FF7C8C
:103B3000EE46CEF800C092B29BB202F155FCBDF841
:103B40001E00BDF81C100D31BDF81A20059BBDF8F4
:103B50000EE0EC46CCF804E0CCF8003089B210233B
:103B600000F14AF808B080BD80B586B08DF8170026
:103B70008DF816109DF8170000EB40014DF614006B
:103B8000C0F6100000EB810004909DF8161044F67A
:103B90006920002918BF40F2ED50ADF80E009DF8E5
:103BA00016104FF6FF700290002918BF4FF6E07014
:103BB000ADF80C00049B188859889A880244013A91
:103BC000DB880B44013BBDF80EC0EE46CEF800C0CA
:103BD00092B29BB205F090FB049B188859889A8892
:103BE0000244013ADB880B44013BBDF80CC0EE46B1
:103BF000CEF800C092B29BB202F1F6FB04990A889B
:103C000002F136004B8803F112015F323B339DF81D
:103C100017C0CCEBCC0E4FF4784C0CEB4E1C1FFABB
:103C20008CFCEE46CEF800C080B289B292B29BB254
:103C300005F062FBDDF808E0049B188859885231D2
:103C40009A889B68EC46CCF804E0CCF8003089B246
:103C50001023FFF0D1FF06B080BD0000000000007F
:103C600080B584B003900291039844F20751CCF2DE
:103C70002E21A0FB0121090C40F2A3225143A0EB0D
:103C8000C110039003994BF2C530C9F2A210A1FBF9
:103C90000021C90A0191039AA2FB0010C00A4FF447
:103CA000616100FB112044F24541C0F24441A0FB98
:103CB00001100090039848F68901C8F68801A0FB1E
:103CC000011251090901A1EB5211A0EB81000390EF
:103CD00001984CF6CD41CCF6CC41A0FB010230203E
:103CE00000EBD202029B1A70019AA2FB01C3DB080F
:103CF00003EB8303A2EB430242F03002029B5A70B3
:103D0000029B3A229A70009BA3FB01C300EBD303F2
:103D1000DDF808C08CF80330009BA3FB01EC4FEAF0
:103D2000DC0C0CEB8C0CA3EB4C0343F03003DDF804
:103D300008C08CF80430029B5A71039AA2FB01322E
:103D400000EBD200029A90710398A0FB0121C908F0
:103D500001EB8101A0EB410040F030000299C871F5
:103D600002990020087204B080BD0000000000002D
:103D700080B58EB08DF837000C9141F26411C2F21B
:103D8000004100200690087040F21001C2F200418C
:103D9000FF20087041F6E30002F1EEF906996A4649
:103DA00041F2A200106040F21F322F23084605F0B6
:103DB000A3FA68464FF6FF710A9181604DF6CE0175
:103DC000C0F61001416018230993036012200C21F2
:103DD0004FF4FA7200F110F90A98694648604DF6FE
:103DE0007400C0F610000860502007907E214FF448
:103DF000207208922023FFF0FFFE0798089A099B83
:103E0000EC4640F2FF410B91CCF804104DF6CA216C
:103E1000C0F61001CCF80010B021FFF0EDFE0A98BA
:103E20006946086095204FF4887140F28A224FF469
:103E3000987302F1D9FA0B98694608609A2040F20B
:103E4000151140F2852240F22B1305F055FA9DF82A
:103E500037104DF61C12C0F610024DF6EB00C0F6FE
:103E60001000002918BF10464FF47842002918BFEF
:103E70004FF4FC6269464A60086064204FF4A57103
:103E80004FF416721023FFF0B7FE9DF8370038B3D9
:103E9000FFE70C9820B3FFE7684649F6F3418160DD
:103EA0004DF6AC01C0F6100141601023059303608C
:103EB0004FF4A5704FF4B4710491502200F19CF8B6
:103EC0000499059B0C9A68464FF6FF7CC0F808C021
:103ED000426003604FF4BF708C2200F18DF8FFE761
:103EE0000EB080BD0000000080B592B08DF8470094
:103EF00010910F9241F26411C2F20041002009902A
:103F0000087040F21001C2F20041FF2008704DF627
:103F1000FB6002F131F909996A4641F2A20008906A
:103F2000106040F21F320A922F23084605F0E4F990
:103F300009986A4642F6451111603021B42240F2D8
:103F4000BF1305F0D9F9089909980A9A6B461960C8
:103F50004FF4E07140F2DF1305F0CEF968464FF6FA
:103F6000FF7181604DF6D911C0F610014160182330
:103F7000036010200D900C214FF4B47200F13CF856
:103F80000D9B68464FF4FC6181604DF6AE21C0F692
:103F900010014160036012200C90482191220B9285
:103FA00000F12AF80B9A0C980D9B9DF847104DF6DE
:103FB000301EC0F6100E4DF6001CC0F6100C002985
:103FC00018BFF4464FF4784E002918BF4FF4FC6E2A
:103FD0006946C1F808E0C1F804C00B606E2100F129
:103FE0000BF80C980D9B694649F6F3428A604DF632
:103FF000AC02C0F610024A600B6090214122FFF033
:10400000FBFF109870B1FFE7109968464FF6FF72FA
:1040100082604160102303601220A6219122FFF0EC
:10402000EBFFFFE768464FF6FF71049181604DF6A4
:104030008201C0F610014160102307930360122033
:104040000590D82191220692FFF0D6FFDDF810C02E
:104050000598069A079B6946C1F808C04DF6561C9C
:10406000C0F6100CC1F804C00B60FA21FFF0C4FFC9
:1040700000208DF83B00FFE79DF83B0005280CD899
:10408000FFE79DF83B000021FFF76EFDFFE79DF87D
:104090003B0001308DF83B00EEE768464FF6FF71BC
:1040A00081604DF6E621C0F61001416010230360E7
:1040B0004FF4E4714FF416721846FFF09DFF0F980D
:1040C00000F17AF812B080BD80B588B0ADF81E005E
:1040D00006918DF817204DF68D20C0F61000FFF7E1
:1040E0001BFC69464FF6FF700860182001904221C2
:1040F00002914FF41A7203924FF4D573049305F0B2
:10410000FBF801980299039A049BEE4641F2A20C37
:10411000CEF800C002F168F9BDF81E0006999DF8BE
:10412000172000F191F808B080BD000000000000E9
:1041300080B596B084461998DDF860E0CDF854C09B
:10414000149113928DF84B308DF84A0041F26410AF
:10415000C2F2004000788DF8490041F26610C2F2C8
:1041600000400088ADF8460041F26810C2F20040FD
:104170000088ADF84400FFF763FA4DF6F410C0F67E
:104180001000FFF7C9FB694641F6E30008601820FC
:104190000C9042210D9140F207320E924FF4A5731C
:1041A0000F9305F0A9F80C980D990E9A0F9BEE4607
:1041B00049F6F34CCDF840C0CEF800C002F114F936
:1041C0001099684681604DF69A01C0F61001416071
:1041D00010230360282050213C22FFF00DFF15988A
:1041E00018B1FFE715980B9005E04EF24310C0F6AA
:1041F00000000B90FFE70B9968464FF6FF7208929C
:104200008260416010230A9303606020502109916D
:10421000A022FFF0F1FE09990A9B684649F6F34295
:1042200082604DF6A002C0F61002426003604FF4B7
:1042300096704022FFF0E0FE089809990A9B139AB5
:10424000EC46CCF800004FF4B270FFF055FF9DF83B
:104250004B0090B1FFE768464FF6E07181604DF684
:10426000B801C0F6100141601023036040F28A20BB
:1042700050216022FFF0C0FEFFE7694641F2A20034
:10428000086026206C2140F2F9224FF49D7302F160
:10429000ABF8149818B1FFE71498079005E04EF2B8
:1042A0004310C0F600000790FFE7079869464FF6F5
:1042B000FF724A600860302078214FF42F72B423D7
:1042C00000F09AFA9DF84A00B0FA80F04009694679
:1042D00008604DF68323C0F6100328204FF4B77111
:1042E0009622FFF7DDFB9DF84A100020069039B9B1
:1042F000FFE79DF84B00002818BF01200690FFE75C
:10430000069800F00100694608604DF67A53C0F641
:104310001003DC204FF4B771049196220592FFF749
:10432000BFFB0499059A9DF84A00B0FA80F0400955
:104330006B4618604DF64F13C0F610034FF4C8706B
:10434000FFF7AEFB0499059A9DF84A00B0FA80F099
:1043500040096B4618604DF68A63C0F610034FF4AF
:104360001170FFF79DFB18989DF84A10FFF08CFC28
:104370009DF8490038B1FFE7BDF84600BDF844108C
:10438000FFF7B2F9FFE716B080BD000000000000A3
:1043900010B59AB084461D98DDF870E0CDF864C081
:1043A0008DF863108DF862208DF861308DF8600013
:1043B00041F26410C2F2004000788DF85D0041F2D5
:1043C0006610C2F200400088ADF85A0041F2681051
:1043D000C2F200400088ADF85800FFF731F94DF601
:1043E000E710C0F61000FFF797FA684641F2A20105
:1043F000129181604DF62E51C0F6100141601023DC
:10440000149303602820362113918222FFF0F4FDDB
:10441000129A1399149B684682604DF64A12C0F6B0
:10442000100242600360DC204622FFF0E5FD129A94
:104430001399149B684682604DF62522C0F610023F
:10444000426003604FF4A2705022FFF0D5FD129A33
:104450001399149B684682604DF6D012C0F6100284
:10446000426003604FF4D7708C22FFF0C5FD00203E
:104470008DF85F00FFE79DF85F00052800F2B88027
:10448000FFE79DF8620000EB40019DF85F0000EB44
:1044900041008DF85E009DF85F004A22362110FB36
:1044A0000120ADF856009DF95E109DF9612041F69E
:1044B000E300914208BF40F2ED50ADF85400BDF862
:1044C000561001F12F00BDF854206B461A6083B2DC
:1044D0001820109040F24D22119204F00DFF109818
:1044E000119ABDF8561001F12F039DF95EE09DF978
:1044F000614049F6F34CA64508BF4FF6E07CEE4616
:10450000CEF800C09BB201F16FFF1998002868D067
:10451000FFE79DF85E009DF86310884261DAFFE7CF
:10452000BDF856000F3019999DF85E2002EB42024B
:1045300001EB021269464FF6FF730D938B604A60E0
:1045400010230F930B6081B228209622FFF054FDB8
:104550000F9BBDF856000F3019999DF85E2002EBB5
:10456000420201EB02110D316A4649F6F34CCDF8D7
:1045700038C0C2F808C01360516081B2DC20482204
:10458000FFF03AFD0D990F9BBDF856000F30199AB8
:104590009DF85EC00CEB4C0C02EB0C12926AEC46E0
:1045A000CCF8001081B24FF4A270FFF0A5FDDDF849
:1045B00038C00F9BBDF856000F3019999DF85E204A
:1045C00002EB420201EB021115316A46C2F808C043
:1045D0001360516081B24FF4D7708C22FFF00CFD54
:1045E000FFE7FFE79DF85F0001308DF85F0042E7CD
:1045F0009DF86000B0FA80F04009694608604DF609
:104600009223C0F610034FF41B7046219B22FFF744
:1046100047FA9DF8601000200C9049B9FFE79DF91A
:1046200061100020B1F1FF3FC8BF01200C90FFE7EF
:104630000C9800F00100694608604DF69B13C0F627
:1046400010034FF41B7080219B22FFF729FA9DF87D
:10465000601000200B9049B9FFE79DF96110002020
:10466000B1F1FF3FC8BF01200B90FFE70B9800F0AE
:104670000100694608604DF64F13C0F610034FF471
:104680001B70BA219B22FFF70BFA9DF860100020E7
:104690000A9039B9FFE79DF86200002818BF012091
:1046A0000A90FFE70A9800F00100694608604DF69D
:1046B0006E23C0F610034FF41B70F4219B22FFF70A
:1046C000EFF99DF8630005304AF6AB21CAF6AA213E
:1046D000A0FB011080088DF85C009DF860100020A0
:1046E000099059B9FFE79DF86200411C9DF85C20D4
:1046F0000020914238BF01200990FFE7099800F09F
:104700000100694608604DF68823C0F610034FF497
:104710001B7005904FF497719B220492FFF7C0F92C
:10472000049A05989DF86010B1FA81F149096B4629
:1047300019604DF66513C0F610034FF4B471FFF71E
:10474000AFF90598694641F2A20206928A604DF6D9
:10475000EE42C0F610024A60102308930B604FF43B
:10476000CF7107912C22FFF047FC06980799089B10
:104770009DF862200132EC46CCF800004FF427701F
:10478000FFF0BAFC0799089B684649F6F34282603D
:104790004DF67152C0F60002426003604FF42F7074
:1047A0000C22FFF029FC9DF85C0020B1FFE79DF88A
:1047B0005C00039002E001200390FFE7039A694642
:1047C00041F2A20008604FF434704FF4CF7110230F
:1047D000FFF092FC1C989DF86010FFF055FA9DF8D0
:1047E0005D0038B1FFE7BDF85A00BDF85810FEF77C
:1047F0007BFFFFE71AB010BD80B588B084460B98E8
:10480000DDF828E0ADF81EC0ADF81C10ADF81A2098
:10481000ADF81830ADF816000A9808B9FFE786E041
:10482000BDF81E00ADF81400BDF81E00BDF81A104A
:104830000844ADF81200BDF81C00BDF8181008447B
:10484000ADF81000FFE70A9801780020029061B1EE
:10485000FFE7BDF81C00103081B2BDF81020002029
:104860009142D8BF01200290FFE70298C0070028BC
:104870005DD0FFE70A98411C0A9100788DF80F007F
:104880009DF80F000D2801D1FFE7DCE79DF80F0030
:104890000A280AD1FFE7BDF81400ADF81E00BDF8E4
:1048A0001C001230ADF81C00CDE7BDF81E0008302A
:1048B00080B2BDF81210884214DDFFE7BDF8140085
:1048C000ADF81E00BDF81C001230ADF81C00BDF89C
:1048D0001C00103080B2BDF81010884201DDFFE7E7
:1048E00025E0FFE79DF80F00202805DBFFE79DF896
:1048F0000F007F2804DBFFE72E208DF80F00FFE775
:10490000BDF81E00BDF81C109DF80F20BDF8163034
:10491000EC46CCF804300123CCF80030102305F02D
:1049200043FBBDF81E000830ADF81E008BE708B051
:1049300080BD00000000000010B58AB08C4686469D
:104940000D980C99ADF826E0ADF824C008928DF8CA
:104950001F308DF81E10ADF81C009DF81F000B28AD
:1049600004D3FFE70A208DF81F00FFE79DF81F2002
:104970000DF11101002088549DF81F008DF81000E2
:10498000FFE79DF8100008B3FFE708984CF6CD410B
:10499000CCF6CC41A0FB0132D20802EB8202A0EBA4
:1049A000420040F030009DF810200DF111031A4430
:1049B00002F8010C0898A0FB0110C0080890FFE75E
:1049C0009DF8100001388DF81000DAE7BDF82600D8
:1049D000BDF824109DF81F209DF81E305A43520840
:1049E000BDF81CE0EC46CCF808E00DF1110ECCF857
:1049F00004E0CCF80030FFF0FFFA0AB010BD000070
:104A000082B001908DF803100020ADF80000FFE7A0
:104A10000198BDF80010405C30B1FFE7BDF8000020
:104A20000130ADF80000F3E7BDF800009DF8031079
:104A30004908484380B202B07047000000000000FF
:104A400080B592B08DF847008DF8461010928DF821
:104A50003F309DF84700052804D3FFE704208DF878
:104A60004700FFE700208DF83900FFE79DF8390087
:104A70009DF8471088420DDAFFE79DF839200DF1C7
:104A80003A012A208854FFE79DF8390001308DF85B
:104A90003900EBE79DF847200DF13A01069100201F
:104AA0008854694641F6E30008604FF49B70079014
:104AB0004E21039140F27A2204927923059304F067
:104AC0001BFC0399049A059B0798EE4641F2A20C41
:104AD000CDF82CC0CEF800C001F186FC06990798ED
:104AE0006A464FF6FF7353601160582140F2451239
:104AF0001823FFF081F869464DF6FB6009900860C5
:104B0000FA20089080214FF42F72972304F0F4FBD1
:104B100008980B9B10999DF83F20002A18BF4FF46E
:104B200078436A465360116082214FF4E17210238A
:104B30000C93FFF061F809986946086040F28A20FA
:104B40000A90522140F2EE22692304F0D5FB0A9824
:104B50000B9A0C9B69468A604DF6A602C0F61002BD
:104B60004A600B6054210D914822FFF045FADDF8B0
:104B70002CC00C980D999DF84620002A18BF4FF4C0
:104B8000784C6B46C3F804C0186040F2C220012381
:104B9000FFF7D2FE12B080BD80B584B002900191C3
:104BA00002990020C87002994FF0FF30C862029845
:104BB000019905F031FD20B1FFE704208DF80F00C9
:104BC00042E0029800F22E2005F002FB4AF6552141
:104BD000884204D0FFE703208DF80F0034E00298EC
:104BE00090F83000E9280CD0FFE7029890F83000E8
:104BF000EB2806D0FFE7029890F83000E8281FD194
:104C0000FFE7029866304EF23111C0F60001032230
:104C100002F166FF20B9FFE700208DF80F0013E0D6
:104C2000029882304EF22B11C0F60001052202F1EB
:104C300057FF20B9FFE700208DF80F0004E0FFE7E1
:104C400002208DF80F00FFE79DF80F0004B080BD33
:104C500083B002900191FFE7029801780020009054
:104C600041B1FFE7029800780199401A18BF01206E
:104C70000090FFE70098C00720B1FFE702980130DD
:104C80000290E9E70298007803B070470000000046
:104C900083B001900091009802380090009801992B
:104CA00049690239884203D3FFE70020029007E0F8
:104CB0000198826A4089009900FB01200290FFE779
:104CC000029803B07047000080B586B042F2000041
:104CD000C5F602000390082104910022029203F11C
:104CE0005FFFFFF081FF41F60040C5F60200009033
:104CF000402101910122059203F152FFFFF074FF60
:104D000000980199029A03F14BFFFFF06DFF0398A1
:104D10000499059A03F144FFFFF066FF06B080BDD9
:104D200080B584B0FFE744F2E041C5F602010868AF
:104D300040F080000860FFE7FFE744F2E041C5F67D
:104D40000201086840F480700860FFE768460123AC
:104D500003934360036041F60040C5F60200402122
:104D60001A4603F139FF039B68464360036042F231
:104D70000000C5F6020008211A4603F12DFFFFF0DE
:104D80003BFF04B080BD000080B584B042F200005B
:104D9000C5F6020008210122019203F101FFFFF094
:104DA00023FF019A41F60040C5F60200029040211F
:104DB000039103F1F5FEFFF017FF0298039900221B
:104DC00003F1EEFEFFF010FF04B080BD0000000014
:104DD00080B582B08DF8070000208DF805008DF8B1
:104DE0000600FFE79DF8060007282FDCFFE79DF887
:104DF000050040008DF8050041F60040C5F60200B0
:104E00004021012203F1CCFEFFF0EEFE42F2000051
:104E1000C5F60200082103F1ABFE30B1FFE79DF8B3
:104E2000050001308DF80500FFE741F60040C5F6AA
:104E300002004021002203F1B3FEFFF0D5FEFFE7A0
:104E40009DF8060001308DF80600CBE79DF80700BD
:104E500018B9FFE7FFF798FF02E0FFF735FFFFE71C
:104E60009DF8050002B080BD80B584B08DF80F00BC
:104E700000208DF80E00FFE79DF80E00072829DCC2
:104E8000FFE79DF80F00C20942F20000C5F60200DC
:104E9000082103F185FEFFF0A7FE41F60040C5F6AC
:104EA0000200019040210291012203F179FEFFF0FE
:104EB0009BFE01980299002203F172FE9DF80F00FB
:104EC00040008DF80F00FFE79DF80E0001308DF8CF
:104ED0000E00D1E742F20000C5F6020008210122CF
:104EE00003F15EFE04B080BD80B586B042F20000E2
:104EF000C5F602000190082102910122009203F1FF
:104F00004FFE009A41F60040C5F602000390402192
:104F1000049103F145FEFFF067FE0198029900221B
:104F2000059203F13DFEFFF05FFE03980499059A98
:104F300003F136FEFFF058FE06B080BD0000000011
:104F400080B582B000208DF807008DF8060042F28F
:104F50000000C5F6020008210122009203F120FEA4
:104F6000FFF042FE009A41F60040C5F602004021E3
:104F700003F116FEFFF038FEFFE742F20000C5F62F
:104F80000200082103F1F4FD98B1FFE79DF8070046
:104F900001308DF807009DF80700FB2806DBFFE7CE
:104FA000FFF02AFE01208DF8060002E0FFF01CFE53
:104FB000E3E741F60040C5F602004021002203F17C
:104FC000EFFDFFF011FE9DF8060002B080BD00006D
:104FD00082B08DF803009DF8030018B1FFE70020B0
:104FE000019002E000200190FFE7019802B07047B5
:104FF00086B00590002001904EF21400CEF2000021
:1050000000680090059843F2C011C2F2004109689F
:10501000484304904EF21800CEF20000006803905E
:10502000FFE74EF21800CEF20000006802900298EE
:10503000039988421ED0FFE702980399884207D25D
:10504000FFE703980299411A01980844019008E08B
:1050500000980299401A039901440198084401906C
:10506000FFE70298039001980499884201D3FFE773
:1050700001E0FFE7D5E706B0704700000000000040
:1050800080B58AB008900791089806F005FB20B11A
:10509000FFE701208DF8270040E008980799FFF707
:1050A000F7FD069006980899C862089830300021EC
:1050B00002914FF4007202F15FFD029808993031BD
:1050C0000391012104910590FFE705990898428911
:1050D0000020914201900ED2FFE708984078039992
:1050E000069A059B1A44049B00F092FAB0FA80F0ED
:1050F00040090190FFE70198C00730B1FFE7FFE7E3
:105100000499059808440590DFE7059808994989AE
:10511000401A18BF01208DF82700FFE79DF82700EF
:105120000AB080BD0000000080B586B004900391F5
:105130000498006800900498006920300290049858
:10514000806928B1FFE70298B0F5001F04D3FFE79C
:1051500004208DF817008BE0BDF80800C00500287A
:1051600077D1FFE704998869013088610498406924
:1051700078B9FFE7029900980089B0EB511F07D872
:10518000FFE704990020886104208DF817006FE084
:105190005EE0029900984089013810EA512F56D1FB
:1051A000FFE70498416900F1A3FD019001980128EF
:1051B00004D8FFE702208DF8170059E0019801306C
:1051C00020B9FFE701208DF8170051E00198009900
:1051D0004969884231D3FFE7039838B9FFE704995A
:1051E0000020886104208DF8170041E0049841698F
:1051F000FFF002FB0190019820B9FFE707208DF82E
:10520000170035E00198012804D1FFE702208DF84E
:1052100017002DE00198013020B9FFE701208DF83B
:10522000170025E000980199FFF72AFF20B1FFE75A
:1052300001208DF817001BE0FFE7019804994861F1
:1052400000980199FFF724FD04998861FFE7FFE7C3
:10525000FFE7029804990861009802996FF35F21B3
:10526000084430300499C86100208DF81700FFE72A
:105270009DF8170006B080BD80B586B005900491FA
:1052800004208DF80F00059800680290FFE705984C
:10529000806900284AD0FFE702980599896905F0DE
:1052A000BBF98DF80F009DF80F0008B1FFE73DE056
:1052B0000598C06900788DF806009DF8060020B9B1
:1052C000FFE704208DF80F0030E00598C069C07A30
:1052D00000F03F008DF80700059988719DF80600E1
:1052E000E52817D0FFE79DF806002E2812D0FFE72B
:1052F0009DF807000F280DD0FFE79DF8070000F08C
:10530000DF000838B0FA80F040090499884201D1E2
:10531000FFE70BE005980021FFF706FF8DF80F006F
:105320009DF80F0008B1FFE700E0B0E79DF80F001F
:1053300020B1FFE7059900208861FFE79DF80F0085
:1053400006B080BD0000000080B584B003900398D3
:105350000068019003980121FFF0B2FC8DF80B006A
:105360009DF80B00E0B9FFE701980399896905F002
:1053700053F98DF80B009DF80B0080B9FFE70398F7
:10538000C0690021202202F1F7FB0399C86920318E
:105390000B2202F1D1FB01990120C870FFE7FFE762
:1053A0009DF80B0004B080BD80B584B003900398D5
:1053B0000068019001980399896905F02DF98DF82D
:1053C0000B009DF80B0040B9FFE70398C169E52089
:1053D000087001990120C870FFE79DF80B0004B028
:1053E00080BD00000000000080B586B004900391ED
:1053F00004980068009003990020B0EB515F05D13C
:10540000FFE79DF80C00C00620B1FFE702208DF8F1
:10541000170072E00398049908610498806801906D
:10542000019848B9FFE700980078032804DBFFE7FC
:105430000098406A0190FFE7019880B9FFE703995F
:1054400000980089B0EB511F04D8FFE702208DF8C7
:10545000170052E00098406A0499886130E0009893
:10546000408940020290FFE703980299884220D3C6
:10547000FFE70498019900F13BFC0190019801308D
:1054800020B9FFE701208DF8170036E001980228C7
:1054900006D3FFE7019800994969884204D3FFE7E2
:1054A00002208DF8170028E002990398401A039013
:1054B000DAE700980199FFF7EBFB04998861FFE7B1
:1054C0000198049948610498806920B9FFE7022097
:1054D0008DF8170011E0039A0499886900EB5220B7
:1054E0008861009803996FF35F2108443030049974
:1054F000C86100208DF81700FFE79DF8170006B07F
:1055000080BD00000000000083B08DF80A008DF817
:10551000091001929DF80A0020B1FFE704208DF8E0
:105520000B0056E040F20F00C2F200400078C007C6
:1055300020B1FFE703208DF80B004AE09DF8090039
:1055400001460091032840D80099DFE801F00206E7
:10555000213000208DF80B003BE0019820B9FFE7D7
:1055600004208DF80B0034E040F25061C2F200419B
:10557000886CC96CCA1710EBD25041F10001400A87
:1055800040EAC1500199086000208DF80B0020E02E
:10559000019820B9FFE704208DF80B0019E001996C
:1055A0004FF40070088000208DF80B0011E0019886
:1055B00020B9FFE704208DF80B000AE001990120D3
:1055C000086000208DF80B0003E004208DF80B002C
:1055D000FFE79DF80B0003B07047000000000000DB
:1055E00081B08DF802009DF8020020B1FFE7012094
:1055F0008DF8030007E040F20F00C2F2004000788F
:105600008DF80300FFE79DF8030001B0704700002C
:1056100080B584B08DF80E000291019200939DF840
:105620000E0030B9FFE7029818B1FFE7009820B9E3
:10563000FFE704208DF80F0016E040F20F00C2F2E1
:1056400000400078C00720B1FFE703208DF80F006D
:105650000AE002980199009AFCF026FC002818BF85
:1056600001208DF80F00FFE79DF80F0004B080BD0A
:1056700080B584B00390039800F066F88DF80B00B5
:105680009DF80B0078B9FFE7039801A907F0B4F97A
:105690008DF80B009DF80B0020B9FFE7039900205F
:1056A0000860FFE7FFE79DF80B0004B080BD000035
:1056B00080B584B00390039801A907F09DF98DF897
:1056C0000B009DF80B0020B9FFE70399002008604C
:1056D000FFE79DF80B0004B080BD00000000000053
:1056E00080B58EB00D900C910DA86946002200F097
:1056F0006BF98DF82F009DF82F00F8B9FFE70D9991
:10570000684600F0DDFB8DF82F009DF82F00A0B952
:10571000FFE79DF82B000006002804D5FFE70620D0
:105720008DF82F0008E00C9828B1FFE70C99684627
:1057300000F17AFBFFE7FFE7FFE7FFE79DF82F00A7
:105740000EB080BD0000000080B586B004900498C3
:1057500002A907F051F98DF80F009DF80F000028FD
:105760005ED1FFE70498007C4006002857D5FFE78C
:105770000498007C0006002815D5FFE702984078C1
:10578000049A02F12801D2690123FFF741FF20B1F9
:10579000FFE701208DF8170047E00499087C00F02E
:1057A0007F000874FFE70020C4F6214001900298B2
:1057B0000499096A04F030FF8DF80F009DF80F007E
:1057C00060BBFFE70498406A00900099C87A40F0F7
:1057D0002000C872049A00991068926803F1DCF8FE
:1057E00000981C300499C96803F1F2F8009816304B
:1057F000019903F1EDF800981230002105F034FF13
:1058000002990120C870029803F106F98DF80F0083
:105810000499087C00F0BF000874FFE7FFE7FFE78A
:105820009DF80F008DF81700FFE79DF8170006B0F0
:1058300080BD00000000000080B59AB019900020E3
:10584000019019A86946022200F0BEF88DF86300A5
:105850009DF8630000287DD1FFE700980D9019990D
:105860000DA800F02DFB8DF863009DF86300002863
:105870006FD1FFE79DF85F000006002804D5FFE721
:1058800006208DF8630009E09DF83A00C00720B1BA
:10589000FFE707208DF86300FFE7FFE79DF863004F
:1058A00098BBFFE70098149901F15AFB01909DF80D
:1058B0003A00C006002827D5FFE70098029001981B
:1058C000049002A80021FFF78FFD8DF863009DF87A
:1058D0006300C0B9FFE702A80021FFF7CDFC8DF8F7
:1058E00063009DF8630020B9FFE707208DF863008F
:1058F000FFE79DF86300042804D1FFE700208DF83E
:105900006300FFE7FFE7FFE7FFE79DF86300F8B9F3
:10591000FFE70DA8FFF748FD8DF863009DF86300D1
:1059200058B9FFE7019840B1FFE701990DA800229F
:1059300002F1D2FD8DF86300FFE79DF8630030B9F6
:10594000FFE7009803F168F88DF86300FFE7FFE7D1
:10595000FFE7FFE79DF863001AB080BD000000007C
:1059600080B584B08DF80F00FFE700208DF80E00A1
:10597000FFE79DF80E009DF80F1088421DDAFFE743
:1059800040F20040C5F60200009002210191002281
:1059900003F106F9B4200290FFF082F90098019912
:1059A000012203F1FDF80298FFF07AF9FFE79DF874
:1059B0000E0001308DF80E00DBE74FF46170FFF050
:1059C0006FF9D2E70000000080B598B016901591ED
:1059D0008DF85320159900200860169800F188FA78
:1059E00012901298B0F1FF3F04DCFFE70B208DF816
:1059F0005F0061E2129940F24060C2F2004050F84C
:105A000021000590059820B9FFE70C208DF85F0074
:105A100052E20598159908609DF8530000F0FE00C9
:105A20008DF8530005980078F0B1FFE705984078AD
:105A3000FFF7D6FD8DF847009DF84700C00790B9E5
:105A4000FFE79DF8530050B1FFE79DF8470040077E
:105A5000002804D5FFE70A208DF85F002CE2002023
:105A60008DF85F0028E2FFE7059900200870129882
:105A70000599487005984078FFF0D2F98DF84700F5
:105A80009DF84700C00720B1FFE703208DF85F00B5
:105A900012E29DF8530050B1FFE79DF84700400720
:105AA000002804D5FFE70A208DF85F0004E20020FB
:105AB000109005981099FFF76FF88DF852009DF837
:105AC0005200022809D0FFE79DF8520001285EDC51
:105AD000FFE7012000285AD1FFE700200490FFE7EC
