:020000040800F2
:10000000989D022491001008A5001008A700100870
:10001000F90C1008AB001008AD001008000000003B
:10002000000000000000000000000000A1191008FE
:10003000B100100800000000410D1008C11910089F
:10004000B7001008B7001008B7001008B700100874
:10005000B7001008B7001008B7001008B700100864
:10006000B7001008B7001008B7001008B700100854
:10007000B7001008B7001008B7001008B700100844
:10008000B7001008B7001008B7001008B700100834
:10009000B7001008B7001008B7001008B700100824
:1000A000B7001008B7001008B7001008B700100814
:1000B000B7001008B7001008B7001008B700100804
:1000C000B7001008B7001008B7001008B7001008F4
:1000D000B7001008091A1008B7001008B700100878
:1000E000B7001008B700100800000000B7001008A3
:1000F000B7001008B7001008B7001008B7001008C4
:10010000B7001008B7001008B7001008B7001008B3
:10011000B7001008B7001008B7001008B7001008A3
:10012000B7001008B7001008B7001008B700100893
:10013000B7001008B7001008B7001008B700100883
:1001400000000000000000000000000000000000AF
:10015000B7001008B7001008B7001008B700100863
:10016000B7001008B7001008B7001008B700100853
:10017000B7001008B7001008B70010080000000012
:10018000B7001008B7001008B7001008B700100833
:10019000B7001008B7001008B7001008B700100823
:1001A000B7001008B7001008B7001008B700100813
:1001B000B7001008B7001008B7001008B700100803
:1001C000B7001008B7001008B7001008B7001008F3
:1001D000B7001008B7001008B7001008B7001008E3
:1001E000B7001008B7001008B7001008B7001008D3
:1001F000B7001008B7001008B7001008B7001008C3
:10020000B7001008B7001008B7001008B7001008B2
:10021000B7001008B7001008B7001008B7001008A2
:10022000B7001008B7001008B70010080000000061
:10023000B7001008B700100800000000B700100851
:10024000B7001008B7001008B7001008B700100872
:10025000B7001008B7001008B7001008B700100862
:10026000B7001008B7001008B7001008B700100852
:10027000B7001008B7001008B70010080000000011
:10028000B7001008B7001008B70010080000000001
:1002900000000000B700100800F002F800F060F85D
:1002A00014A696E8000CB244B344DA4501D100F03C
:1002B00057F8BAE80F000FA696E83000A5EB040542
:1002C00004EB0607AAEB0704A7F101074FEA15158F
:1002D0004FEA3414A4F10104AC4201D300F040F819
:1002E00013F0010F18BFFB1A43F0010300F001F8EF
:1002F000DBE7184714E9000034E90000103A24BF96
:1003000078C878C1FAD8520724BF30C830C144BF7A
:1003100004680C6070470000704700000023002450
:1003200000250026103A28BF78C1FBD8520728BF05
:1003300030C148BF0B6070471FB50DF0D7FB00F010
:100340006FFE0400002000210DF0BAFB401C60602D
:10035000002000210BF106FAE0601FBD10B510BDB2
:1003600000F038FE1146FFF7E7FF0AF0A5F900F0AC
:100370005BFE03B4FFF7F2FF03BC01F001FF70471F
:100380000FB4044910B503AA0298FFF0C5FF10BCD2
:100390005DF814FBA80800240FB41CB5084B06AA8E
:1003A0007B4469460090059800F027F90446002038
:1003B000694600F035F920461CBC5DF814FB0000CE
:1003C0007D0200000FB41CB50C0007AA009007D0F6
:1003D0004142A14202D32044401E01E04FF0FF30D1
:1003E000074B7B4469460190069800F006F900210E
:1003F000002C01D0009A11701CBC5DF814FB0000A9
:10040000450200000022CBB210F8011B994200D136
:10041000421E0029F8D110467047032A40F230806E
:1004200010F0030C00F0158011F8013BBCF1020F35
:10043000624498BF11F801CB00F8013B38BF11F8B6
:10044000013BA2F1040298BF00F801CB38BF00F8CD
:10045000013B11F0030300F02580083AC0F008804A
:1004600051F8043B083A51F804CBA0E80810F5E72E
:10047000121D5CBF51F8043B40F8043BAFF3008011
:10048000D20724BF11F8013B11F801CB48BF11F886
:10049000012B24BF00F8013B00F801CB48BF00F856
:1004A000012B704710B5203AC0F00B80B1E818500E
:1004B000A0E81850B1E81850A0E81850203ABFF44E
:1004C000F5AF5FEA027C24BFB1E81850A0E81850ED
:1004D00044BF18C918C0BDE810405FEA827C24BF41
:1004E00051F8043B40F8043B08BF7047D20728BFCF
:1004F00031F8023B48BF11F8012B28BF20F8023B1E
:1005000048BF00F8012B70474FF000020429C0F0EB
:10051000128010F0030C0DF0CF82CCF1040CBCF172
:10052000020F18BF00F8012BA8BF20F8022BA1EB87
:100530000C01FFF026BE5FEAC17C24BF00F8012B4E
:1005400000F8012B48BF00F8012B70477047704737
:100550007047704770B5044685690068C10601D5CB
:10056000302600E02026C00707D070BDD4E9012165
:1005700030469047206A401C20626D1EF6D570BD43
:1005800070B5044685690078C00707D170BDD4E90D
:10059000012120209047206A401C20626D1EF6D564
:1005A00070BD09684A0501D540B27047C905FCD540
:1005B00000B2704709684A0501D5C0B27047C90545
:1005C000FCD580B2704711680268006A530501D5F6
:1005D00008700AE0D30501D5088006E0130603D5AC
:1005E000C217C1E9000200E0086001207047000066
:1005F00001694A1C02610878704700B58FB0CDE9E7
:1006000001310021059105497944CDE903101146D6
:10061000684600F051F80FB000BD0000E5FFFFFF95
:100620000A6802F8010B0A607047D1E900239A4278
:1006300002D2531C0B601070704700002DE9F0418E
:100640008046D21D22F007020025D2E90002F529DA
:1006500015A614D0011E72F1000106DA0023D0EBBA
:10066000030063EB020211A608E0D8F800108B0724
:1006700001D50FA602E0490701D50EA601251146B6
:10068000002408F1240704E0FFF038FF30323A5527
:10069000641C50EA0102F7D12B46324621464046FF
:1006A000BDE8F041FFF06FBF000000002D0000002A
:1006B0002B000000200000002DE9F05F8946044671
:1006C0004FF0000ADFF874B1FB44C0F820A02046C8
:1006D000E1688847002874D0252806D0D4E9012194
:1006E0009047206A401C2062F1E700265F462046C2
:1006F000E16888472028054607DB312D05D27819A7
:1007000010F8200C08B10643F1E7B00701D526F038
:100710000406C4F81CA00027C4F818A02A2D09D08C
:1007200028460BF117F838B304EB8708303DC8F8BA
:10073000185019E059F8041B204604EB8702916118
:10074000E1688847012F054618D1E069002820DAC2
:1007500026F020061DE0D8F8180000EB800005EB1D
:1007600040003038C8F818002046E1688847054640
:100770000AF1F0FF0028EED1012F0AD02E2D08D16A
:100780002046E16888477F1C0546022F46F0200678
:10079000C4DBA069002803DA404246F00106A061EC
:1007A000F00701D026F010066C2D0BD0682D09D073
:1007B0004C2D39D06A2D35D0742D35D07A2D33D0CB
:1007C00016E038E0E1682F4620468847B8420546E3
:1007D00009D16C2F26D04FF48060E1680643204693
:1007E0008847054604E06C2F1AD04FF4807006430A
:1007F0000DB3A5F14100192802D8203546F4006652
:100800004A462946204626604E46FFF0F9FB80B155
:1008100001280BD0F61D26F0070000F1080956E765
:100820004020E4E78020D8E70020D6E706F104095D
:100830004DE7284652E7206ABDE8F09FECB0100073
:100840002DE9FF4F0C461E464FF0FF378BB0D2E923
:100850000001DDF860800A908A46C1F30A5505B9A7
:100860003D46002108464FF00000BAF1000F00F4A9
:10087000400005DA00EB80004FF4400101EA50002F
:100880004FEA9059B9F1010F00DDB9460A9850EAD4
:100890004A000ED044F61050A5F2FF3545432F1400
:1008A000B8F1000F1ED07542291E1EDDC9F10002ED
:1008B0001CE0B8F1010F4FF0000001D0302103E03F
:1008C000F24305E02154401CB042FBDB30460022DD
:1008D000002121540B99C1F80880C1E900200FB014
:1008E000BDE8F08FBD1B6D1CDEE74A4600DA6942A9
:1008F00006A8FFF0FFFE06AB93E8070003AB83E812
:10090000070050460A990CF006FF8DE80700A0F595
:1009100000501F3800900398002D0ADD42F21F019D
:100920004A460844002303A9039068460DF0AEF838
:1009300009E0A0F500504A461F38002303A90390A0
:1009400068460AF1ACFD8DE807000004000C03D0F6
:100950004FF0FF30410800E01046B8F1000F03D01F
:100960000022009215461EE0751E05D4FFF0C6FD5C
:10097000303262556D1EF9D5B3460122084302D0CC
:1009800000227F1C04E02078302801D100227F1E45
:10099000002A099784D01DE0112D07DAFFF0AEFD83
:1009A000303262556D1C50EA0102F5D1084302D085
:1009B0000098C8B10EE00021681E05E0235C625C6F
:1009C00063542254401E491C8142F7DBAB46A81BEE
:1009D000401E0990002004F80B000B98099AC0F8FB
:1009E0000880C0E9002B7AE711264FF0000857E78E
:1009F0002DE9F04F88460446D21D22F0070191B040
:100A0000D1E90001CDE90A010AF18CFE02460B98FA
:100A1000C00F01D02D2007E02068810701D52B20D1
:100A200002E0202101EAC000032A099001D0072A30
:100A300005DB034641462046FFF01CFE0BE1207813
:100A4000800601D5E06900E00620B8F1650F814617
:100A500006D0B8F1660F18D0B8F1670F70D131E049
:100A60000020B9F1110F009001DB112301E009F121
:100A700001030AAA01A90CA8FFF7E2FEDDE90C7048
:100A8000002609F10105834647E001204B4600900E
:100A90004FF000470AAA01A90CA8FFF7D1FEDDE933
:100AA0000DB00C995D46002610B909F101000D1832
:100AB000B9EB050003D4C0F1FF3609F10105A5EB40
:100AC00009002BE0B9F1010F01DA4FF00109002014
:100AD000B9F1110F0090484601DD112300E00346F3
:100AE0000AAA01A90CA8FFF7ABFEDDE90C704D4680
:100AF00000268346207800070AD4AB4500DA5D461D
:100B000001A8012D04DD411911F8011C302907D07D
:100B10004F4502DA17F1040F04DA012082460FE094
:100B20006D1EEEE7002F02DCED1B3E4403E0781C57
:100B3000A84200DD7D1CB81B00F1010A4FF0004700
:100B40002078000703D4AA4501DB4FF0FF3A0021CB
:100B5000B7F1004F0DF143088DF8431024D0022067
:100B60002B23002F01DA7F422D230A21021EA0F140
:100B7000010000DC5FB197FBF1FC97FBF1F201FB98
:100B80001C7C17460CF1300C08F801CDEEE7A8F1FB
:100B9000010003702188090501D5452100E0652188
:100BA000A0F1010800F8011C09980FA9A1EB0807A2
:100BB000FF1D00B10120411901EBEA70A169384421
:100BC000081A401EA0612078C00602D42046FFF714
:100BD000C1FC099828B1D4E901219047206A401C42
:100BE00020622078C00622D52046FFF7B3FC1EE025
:100BF000002E04DBB34502DD01A8805D00E030205B
:100C0000D4E901219047206A401C2062761CAAF199
:100C100001005FEA000A0AD100F002FAC068016828
:100C2000405CD4E901219047206A401C2062281EC4
:100C3000A5F10105DCDC07E0D4E9012118F8010B7E
:100C40009047206A401C2062381EA7F10107F3DCA0
:100C50002046FFF795FC032011B041E62DE9F04F47
:100C600004460D46D21D22F0070089B0D0E9009756
:100C7000484639460AF156FD0246F80F01D02D23A9
:100C800007E02068810701D52B2302E0202101EA3B
:100C9000C0038DF820300BB1012000E00020032AB2
:100CA000824601D0072A04DB29462046FFF0E2FCF9
:100CB0003FE12078800601D40D2500E0E569C7F307
:100CC0000A560D2D49DA00214FEA175B08464FF00E
:100CD0000000002F00F4400007DA00EB80004FF422
:100CE000400100EBD07001EA60008115012901DDAF
:100CF0004FF0FF3100224FEA850CBCF1180F06D3EC
:100D00001346ACF118004FF08052C24003E04FF49C
:100D1000801323FA0CF30CF10C0CBCF1200F04D35C
:100D2000ACF1200C09FA0CF001E007FA0CF00029F4
:100D30004FF0004801DD18B90FE00ED140450CD34B
:100D400019EB02095F4121B9404502D19F4329EACD
:100D50000209BBEB175F00D0761C2088000502D586
:100D60007B48784402E07A487844193808AA30234E
:100D700002F80A30037C0AF10101002E0AF1020A8E
:100D800053546A4602DC4FF0300101E04FF031016C
:100D90004FF001088DF8001002D0A6F2FF3603E0F4
:100DA00059EA470100D06B4E002D02DC217809077B
:100DB00004D54FF002082E218DF80110C446002101
:100DC0000BE0C7F303433F01C35C491C6D1E02F8EF
:100DD0000830052908F1010801DA002DF1DC0021B5
:100DE0000CE000EB1973491C1B786D1E082902F8F2
:100DF00008304FEA091908F1010801DA002DF0DC8A
:100E000021688B0602D516E0A8F10108E04505DD52
:100E100002EB080313F8013C302BF5D0B8F1000FBA
:100E200009DD02EB080313F8013C2E2B03D109075F
:100E300001D4A8F10108002D05DD3E2102F80810BB
:100E40006D1E08F10108407C002E02F8080008F130
:100E5000010804DA2D20764202F8080002E02B2077
:100E600002F808000A214FF47A70864208F101085E
:100E70000BDB96FBF0F3303302F8083096FBF0F30F
:100E800008F1010800FB136601E0642E0CDB64200E
:100E900096FBF0F3303302F8083096FBF0F308F1DC
:100EA000010800FB136601E00A2E06DB96FBF1F059
:100EB000303002F8080008F1010896FBF1F001FB60
:100EC0001060303002F80800A16908F1010808EB51
:100ED000050202EB0A00081AA0612078C00602D4BD
:100EE0002046FFF737FB216A08AE01EB0A002062BB
:100EF00004E0D4E9012116F8010B9047BAF1010A88
:100F0000F7D22078C00602D52046FFF723FB6E46B5
:100F100009E016F8010B3E280FD0D4E901219047D3
:100F2000206A401C2062B8F10108F2D22046FFF787
:100F300027FB09B00320BDE8F08F206A2844206217
:100F400003E0D4E90121302090476D1EEBD3F8E790
:100F5000C5CD000002FCFFFF10B5436913B1AFF32C
:100F6000008001E0FFF0EAF9012010BD128800F1D5
:100F7000240182840022C2840122EDE711684FF02F
:100F8000FF32E9E7007B00F0800070472DE9F04177
:100F900016460C460546FFF065FB036893F8010111
:100FA000012807D0FF2C12D8185D80B101202C70C9
:100FB000BDE8F081D3F807013246214603F207135A
:100FC000C7182846BC46BDE8F041002360474FF0F3
:100FD000FF30EDE7754600F031F8AE460500694692
:100FE000534620F00700854618B020B5FFF064F89E
:100FF000BDE820404FF000064FF000074FF000081A
:101000004FF0000BAC46ACE8C009ACE8C009ACE856
:10101000C009ACE8C00921F007018D467047000007
:10102000004870478000002410B50446AFF30080EC
:101030002046BDE81040FFF79CB90000004870470B
:10104000600000240000000080B58CB00B900B986D
:101050000A900020ADF81600ADF814008DF81300CA
:1010600009F12AFF0690FFE70A980079002800F0AE
:101070009180FFE740F21400C2F200400190416805
:1010800000200290884701990298898EC90B8DF83B
:1010900012109DF812100390B9B1FFE740F214004E
:1010A000C2F20040818900204909182903900CD818
:1010B000FFE740F21400C2F20040018C0020B1F5BD
:1010C000F07F38BF01200390FFE7039800F0010094
:1010D0008DF811009DF8110000283ED0FFE79DF823
:1010E0001300A0B1FFE740F21400C2F20040808973
:1010F000BDF8161088420AD1FFE740F21400C2F290
:101100000040008CBDF81410884222D0FFE79DF803
:101110001300002818BF01208DF81C0040F21400B5
:10112000C2F200408189ADF81E10008CADF820009D
:1011300009F1C2FE09900A98006807A901F17CFA3A
:10114000BDF81E00ADF81600BDF82000ADF8140083
:10115000FFE701208DF813001BE09DF81300B8B1E4
:10116000FFE702208DF81C00BDF81600ADF81E0048
:10117000BDF81400ADF8200009F19EFE09900A9810
:10118000006807A901F158FA00208DF81300FFE765
:10119000FFE7FFE7FFE706A805210CF00DF8FFE7E2
:1011A00062E700000000000080B590B00F900F983B
:1011B0000E90002001908DF818008DF81D008DF81C
:1011C0001E004FF4C871ADF82010F021ADF82210C8
:1011D0000A900B900C90FF208DF834008DF83500AC
:1011E00001F06EFF01984EF2D331C0F610014EF2BD
:1011F000AA32C0F6100201F13FFA09F15DFE029039
:10120000029800F5FA6009900E990879896803F050
:10121000ABF9FFE70E98006803A932220BF0A4FE99
:10122000012829D1FFE709F147FE02909DF8180037
:10123000012807D1FFE70E99029B06A803AA02F036
:10124000B3F818E09DF81800032806D1FFE7029ACA
:1012500006A803A902F060F80CE09DF81800042825
:1012600007D1FFE70E99029B06A803AA01F0D4FF5D
:10127000FFE7FFE7FFE7FFE709F11EFE02900E9987
:10128000029A06A801F18CFDC4E7000000000000EE
:1012900080B5BEB03D904EF23250C0F61000FFF760
:1012A0006FF802F079F98DF80F009DF80F00C8B9BA
:1012B000FFE74EF27E51C0F610014EF26D52C0F6BD
:1012C0001002002001F1D8F940F66060C2F200403F
:1012D00001684EF2F040C0F61000FFF751F802F03E
:1012E00073FA13E04EF27E51C0F610014EF25D52D9
:1012F000C0F61002022001F1BFF99DF80F104EF266
:101300007840C0F61000FFF73BF8FFE7FFE749F22F
:101310006000C2F20040006804A94FF0FF320BF0F9
:1013200023FE012847D1FFE79DF81000052805D0CE
:10133000FFE79DF81000062811D1FFE704A83BA99C
:10134000029102F0E9F9029940F65C60C2F20040B5
:1013500000684FF0FF3200230BF0BAFC2AE09DF842
:101360001000072811D1FFE704A83BA9019102F062
:10137000D3F9019946F2D870C2F2004000684FF0EC
:10138000FF3200230BF0A4FC13E040F2C001C2F2D4
:101390000041009104A801F143FF009949F2640063
:1013A000C2F2004000684FF0FF3200230BF090FCC7
:1013B000FFE7FFE7FFE7AAE785B08DF8120003918A
:1013C00000208DF80B00FFE747F23400C5F2002043
:1013D000006801909DF8040010F0450F01D0FFE770
:1013E00000E0F1E79DF80400400700280CD5FFE776
:1013F00047F23801C5F20021086840F00400086097
:1014000003208DF813005FE09DF80400C00760B171
:10141000FFE747F23801C5F20021086840F00100FB
:10142000086001208DF813004EE047F21000C5F26D
:10143000002000689DF81210884204D0FFE71020B9
:101440008DF8130040E047F23801C5F2002140F664
:10145000FF70C1F6E070086047F21400C5F200208A
:10146000006800909DF8010010F0E00F09D1FFE73F
:10147000BDF80200039908809DF80B008DF8130059
:1014800022E09DF801008006002804D5FFE7132024
:101490008DF8130018E09DF801004006002804D5DF
:1014A000FFE710208DF813000EE09DF80100000604
:1014B000002804D5FFE70F208DF8130004E09DF805
:1014C0000B008DF81300FFE79DF8130005B070477F
:1014D00083B000208DF80A004FF480300090FFE7C1
:1014E0000098411E009170B1FFE747F23400C5F249
:1014F0000020006801909DF8040010F0450F01D015
:10150000FFE700E0ECE7009830B1FFE79DF804004A
:101510004007002810D5FFE703208DF80A0047F2A6
:101520003801C5F20021086840F0040008609DF809
:101530000A008DF80B0016E09DF804004006002814
:101540000CD5FFE700208DF80A0047F23801C5F2FC
:101550000021086840F040000860FFE79DF80A009D
:101560008DF80B00FFE79DF80B0003B070470000FB
:1015700080B584B0029000200190009040F2486055
:10158000C2F20040006802040D200121FFF00CFCB3
:1015900047F23400C5F2002000680090FFE7009891
:1015A00010F0450F07D1FFE747F23400C5F20020E5
:1015B00000680090F3E70098C00760B1FFE747F2CA
:1015C0003801C5F20021086840F0010008600120E0
:1015D0008DF80F0034E00098400700280CD5FFE795
:1015E00047F23801C5F20021086840F004000860A5
:1015F00003208DF80F0023E047F21000C5F2002011
:1016000000680D2804D0FFE710208DF80F0017E0C8
:1016100047F23801C5F2002140F6FF70C1F6E070D4
:10162000086047F21400C5F200200068019001989C
:10163000C0F343200299087000208DF80F00FFE7E7
:101640009DF80F0004B080BD80B586B08DF81600FF
:1016500000208DF81500049003908DF80B009DF884
:10166000160020B1FFE702208DF80B0003E00020F8
:101670008DF80B00FFE747F21400C5F20020006868
:101680008001002804D5FFE70E208DF8170046E002
:1016900040F24860C2F20040008803A9FFF04CFA13
:1016A0008DF815009DF8150028B1FFE79DF815008D
:1016B0008DF8170033E09DF81200400700282AD566
:1016C000FFE740F24860C2F20040006802043720A1
:1016D00001900121FFF068FB0198FFF045F98DF8BA
:1016E00015009DF8150028B1FFE79DF815008DF84D
:1016F000170014E09DF80B20062000900121FFF058
:1017000053FB0098FFF030F98DF815009DF8150097
:101710008DF8170003E025208DF81700FFE79DF8EE
:10172000170006B080BD000082B0ADF8060047F299
:101730000401C5F2002108680090009840F2FF32D1
:1017400090430090BDF80620009810430090009848
:10175000086002B07047000080B584B0029000209D
:101760008DF80700ADF8040040F23C60C2F2004082
:101770000078032804D1FFE727208DF80F0048E008
:1017800040F23C60C2F20040007880B1FFE740F2D6
:101790003C60C2F200400078012808D0FFE740F228
:1017A0003C60C2F20040007802282CD1FFE702988A
:1017B000022804D3FFE727208DF80F0029E09DF8C9
:1017C0000800FFF741FF8DF807009DF80700C0B93A
:1017D000FFE747F20401C5F200210868ADF80400F4
:1017E000BDF804006FF39F30ADF80400029ABDF815
:1017F000040040EA8230ADF80400BDF8040008603F
:10180000FFE7FFE7FFE7FFE79DF807008DF80F0010
:10181000FFE79DF80F0004B080BD0000000000004D
:10182000B0B582B0019000218DF803108DF8021040
:1018300040F23C60C2F200400278019B83F85620DF
:1018400040F24862C2F200421268019BA3F85420A1
:1018500040F22C62C2F20042D3788DF802309DF83B
:1018600002309B09DDF804C08CF800309DF802308E
:10187000C3F38303DDF804C08CF801309DF8023017
:1018800003F00303DDF804C08CF8023053888DF8B0
:1018900002309DF80230DDF804C08CF80330136884
:1018A0001B0A8DF802309DF80230DDF804C08CF878
:1018B000043013688DF802309DF80230DDF804C062
:1018C0008CF80530D3798DF802309DF802301B0179
:1018D000DDF804C0ACF80630D3888DF802309DF8EE
:1018E00002E0DDF804C0BCF8063043EA1E13ACF891
:1018F00006309DF8023003F00F03DDF804C08CF8C9
:1019000008305268120A8DF802209DF80220D20990
:10191000019B5A729DF80220C2F38012019B9A72B9
:101920009DF80220C2F34012019BDA729DF802205A
:10193000C2F30012019B1A73019A5173007880B1AF
:10194000FFE740F23C60C2F200400078012808D076
:10195000FFE740F23C60C2F200400078032873D1F8
:10196000FFE79DF8020000F0030080020199086182
:1019700040F22C60C2F2004041688DF802109DF8E0
:101980000230019A116941EA83011161C17A8DF82F
:1019900002109DF80230019A116941EA9311116118
:1019A0009DF80210C1F3C201019A11759DF8021051
:1019B00001F00701019A517541898DF802109DF8D7
:1019C00002104909019A91759DF80210C1F3820134
:1019D000019AD1759DF8021001F003014900019AA6
:1019E00011768068000A8DF802009DF802200199A6
:1019F000087E40EAD2100876019908690130002279
:101A0000CA648864019A107E811C012000FA01FCDE
:101A10004FEAEC74D16CD2F848E0AEFB0C350EFB0B
:101A2000045E01FB0CE19364D16401990A7A904051
:101A3000086501998A6CC86C0B6DA2FB032C00FB36
:101A400003C08A64C86439E040F23C60C2F20040DE
:101A50000078022831D1FFE740F22C60C2F200404A
:101A600041688DF802109DF8021001F03F01090451
:101A7000019A1161C17A8DF802109DF80230019A25
:101A8000116941EA0321116141898DF802109DF825
:101A90000230019A1169194311618068000A8DF8BA
:101AA000020001990869421CD004520BCA64886480
:101AB00001994FF400700865FFE7FFE79DF8020009
:101AC000C0F38010019948769DF8020000F03F00B5
:101AD00040000199887640F22C60C2F20040816893
:101AE0008DF802109DF80230019A917E41EAD311DF
:101AF00091769DF8021001F07F01019AD176C17BA9
:101B00008DF802109DF80210C909019A11779DF80D
:101B10000210C1F34111019A51779DF80210C1F3EF
:101B20008201019A91779DF8021001F0030189006A
:101B3000019AD177C1898DF802109DF80230019A7F
:101B4000D17F41EA9311D1779DF80210C1F3401182
:101B5000019A82F82010019A002182F821109DF844
:101B6000021001F00101019A82F82210C168090AED
:101B70008DF802109DF80210C909019A82F823100D
:101B80009DF80210C1F38011019A82F824109DF88B
:101B90000210C1F34011019A82F825109DF802103D
:101BA000C1F30011019A82F826109DF80210C1F3CA
:101BB0008101019A82F827109DF8021001F00301BB
:101BC000019A82F82810C0688DF802009DF8020082
:101BD0004008019981F829000199012081F82A0023
:101BE00040F21C61C2F20041CA788DF802209DF8D3
:101BF0000220019B83F82C204A888DF802209DF852
:101C000002201202019BDA850A68120A8DF802206E
:101C10009DF802C0019BDA8D42EA0C02DA850A685F
:101C20008DF802209DF802201206019B1A63CA79E2
:101C30008DF802209DF802C0019B1A6B42EA0C420B
:101C40001A63CA888DF802209DF802C0019B1A6BA6
:101C500042EA0C221A634A68120A8DF802209DF8A3
:101C600002C0019B1A6B42EA0C021A634A688DF8A3
:101C700002209DF80220019B83F83420CA7A8DF857
:101C800002209DF80220019B83F835204A898DF8B7
:101C900002209DF802201206019B9A638A68120AAC
:101CA0008DF802209DF802C0019B9A6B42EA0C421B
:101CB0009A638A688DF802209DF802C0019B9A6B96
:101CC00042EA0C229A63CA7B8DF802209DF802C07A
:101CD000019B9A6B42EA0C029A63CA898DF8022032
:101CE0009DF802C0019B93F83C2042EA1C1283F845
:101CF0003C209DF8022002F00F021202019BDA87BD
:101D0000CA68120A8DF802209DF802C0019BDA8F82
:101D100042EA0C02DA87C9688DF802109DF80210B9
:101D20004908019A82F84010019981F841009DF814
:101D3000030002B0B0BD000080B58CB000230A9350
:101D40008DF82F308DF82E3044F2E041C5F60201B7
:101D5000086840F00C00086044F2D441C5F6020166
:101D6000086840F48030086069464B6003200590A5
:101D7000086040F60000C5F6020003904FF4F851E9
:101D800004910222069209F0A7FF039804990C22FD
:101D9000099207F141FF0598069A0A9B69464B6034
:101DA000086040F60040C5F6020007900421089143
:101DB00009F092FF07980899099A07F12DFF0A98F0
:101DC00047F20001C5F20021086047F20401C5F2A4
:101DD0000021086047F20801C5F20021086047F2BF
:101DE0000C01C5F20021086047F22401C5F2002170
:101DF000086047F22801C5F20021086047F22C0173
:101E0000C5F20021086047F23802C5F2002240F610
:101E1000FF71C1F6E071116047F23C01C5F200218B
:101E20000860FFF021F88DF82F009DF82F0028B9E9
:101E3000FFE700F059F88DF82F00FFE79DF82F001D
:101E400048B9FFE740F25060C2F20040FFF7E8FCFB
:101E50008DF82F00FFE79DF82F0060B9FFE740F2F3
:101E60005060C2F20040B0F854000004FFF09CFA49
:101E70008DF82F00FFE79DF82F0030B9FFE7012014
:101E8000FFF76AFC8DF82F00FFE79DF82F0040B1A7
:101E9000FFE740F23C60C2F20040007803281ED108
:101EA000FFE740F25060C2F2004090F8560048B19F
:101EB000FFE740F25060C2F2004090F8560001285F
:101EC00004D1FFE706208DF82E0003E004208DF8F2
:101ED0002E00FFE79DF82E00FFF726FCFFE79DF898
:101EE0002F000CB080BD000080B582B000208DF8BE
:101EF00006000120ADF8040047F20000C5F2002002
:101F00000068800720B9FFE725208DF80700CCE0A6
:101F100040F23C60C2F20040007804282FD0FFE776
:101F2000022003210022FEF03FFFFEF079FD8DF834
:101F300006009DF8060028B1FFE79DF806008DF821
:101F40000700B2E047F21400C5F20020006840F23A
:101F50001C61C2F20041086047F21800C5F200207F
:101F60000068486047F21C00C5F2002000688860E5
:101F700047F22000C5F200200068C860FFE740F289
:101F80003C60C2F200400078C0B1FFE740F23C6024
:101F9000C2F200400078012810D0FFE740F23C6018
:101FA000C2F200400078062808D0FFE740F23C600B
:101FB000C2F200400078022816D1FFE7032000900B
:101FC00001210022FEF0F0FE009801A9FFF7F4F9CC
:101FD0008DF806009DF8060028B1FFE79DF8060081
:101FE0008DF8070061E0FFE740F23C60C2F200407C
:101FF0000078032815D1FFE7BDF804000204032090
:102000000121FEF0D1FEFEF00BFD8DF806009DF8DB
:10201000060028B1FFE79DF806008DF8070044E0B0
:10202000FFE740F23C60C2F200400078042838D05C
:10203000FFE7BDF8040040F24861C2F200410860C9
:10204000BDF80400020409200321FEF0ADFEFEF0FD
:10205000E7FC8DF806009DF8060028B1FFE79DF823
:1020600006008DF8070020E047F21400C5F20020BA
:10207000006840F22C61C2F20041086047F218008B
:10208000C5F200200068486047F21C00C5F200203D
:102090000068886047F22000C5F200200068C86030
:1020A000FFE700208DF80700FFE79DF8070002B06A
:1020B00080BD00000000000080B58CB00B900A913C
:1020C000099200218DF823100A980791069040F29A
:1020D0003C60C2F20040007848B1FFE706990798DB
:1020E000400240EAD150490206910790FFE79DF86F
:1020F0002C00800770B3FFE700200590FFE70598EC
:102100000999884225D2FFE706990798059A11EBAD
:10211000422240F100036946012048604FF40070FC
:102120000490086040F2A860C2F200400390FEF004
:10213000C3FF0399049A8DF823000B98FEF76DF9FD
:102140000B9800F500700B90FFE7059801300590A3
:10215000D5E70FE00B98069A079B0999EC46CCF857
:1021600004104FF40071CCF80010FEF0A5FF8DF8BC
:102170002300FFE79DF823000CB080BD00000000A5
:1021800081B0009001B0704780B584B0ADF80C000C
:10219000ADF80A108DF8092041F26C10C2F200402F
:1021A000C068B0F5806F1ED3FFE741F26C11C2F238
:1021B00000410020009088704EF2D961C0F6000105
:1021C0004EF24272C0F61002012000F155FA4EF2B2
:1021D0005470C0F61000FFF0FBFE00F09DF900986F
:1021E0008DF80F0021E041F26C11C2F20041C86885
:1021F00001EBC00050300190BDF80C00019A108036
:10220000BDF80A00019A50808888019A90809DF854
:102210000900019A9071019A0020D071C8680130BC
:10222000C86001208DF80F00FFE79DF80F0004B093
:1022300080BD00000000000041F26C11C2F20041BC
:10224000002008708870704782B0ADF80600BDF8B5
:10225000061001200090C1B1FFE7BDF80610012073
:10226000B1F5784F009010D0FFE7BDF806100120BF
:10227000B1F5FC6F009008D0FFE7BDF806001F38ED
:10228000B0FA80F040090090FFE7009800F00100EC
:1022900002B070470000000080B582B041F26C10BF
:1022A000C2F20040019042F25001FDF068FF019936
:1022B00001200870002088804EF21E70C0F61000C9
:1022C000FFF086FE00F004F802B080BD00000000C0
:1022D00080B541F26C10C2F20040007808B9FFE707
:1022E0000BE041F26C11C2F2004188884A7810314B
:1022F00001F1A2FF00F004F8FFE780BD000000003C
:1023000080B584B000200390FFE7039841F26C1180
:10231000C2F20041C96888423AD2FFE7039941F20C
:102320006C10C2F2004000EBC100503002900298E5
:10233000807918B9FFE7039858B9FFE70298028837
:1023400043888088694608601046194601F088FF76
:1023500019E0039941F26C10C2F2004000EBC10099
:1023600048300190019908884988DDF808C0BCF818
:102370000020BCF80230BCF804C0EE46CEF800C025
:1023800001F06EFFFFE7FFE7039801300390BCE721
:1023900004B080BD0000000083B08DF807009DF8F8
:1023A000070001460091012808D0FFE700980328A4
:1023B0000AD0FFE7009806280CD011E04EF6B920AD
:1023C000C0F60000029011E04EF2C760C0F61000A7
:1023D00002900BE04EF6C010C0F60000029005E03F
:1023E0004EF24D60C0F610000290FFE7029803B075
:1023F000704700000000000080B584B0FFE702A82D
:1024000001F0C2F9012840F08280FFE741F26C1030
:10241000C2F2004000214170007808B9FFE7EEE702
:102420009DF80900A0B1FFE74EF2D961C0F60001A6
:102430004EF23962C0F61002022000F11DF99DF83B
:102440000900FFF7A9FFFFF0C3FD00F065F8D6E72C
:102450009DF80800062814D1FFE74EF2D961C0F6B6
:1024600000014EF2B962C0F61002002000F104F93A
:102470004EF20170C0F61000FFF0AAFD00F04CF81B
:1024800044E09DF8080005283FD1FFE70398FFF0DE
:10249000ABFBA0B9FFE74EF2D961C0F600014EF2E6
:1024A0007672C0F61002022000F1E6F84EF28A7051
:1024B000C0F61000FFF08CFD00F02EF89FE743F20D
:1024C000C071C2F200418A6841F26C10C2F2004051
:1024D000C260C268D2000192019A50301031FDF7FB
:1024E000E1FF4EF2D961C0F600014EF22A62C0F659
:1024F0001002002000F1C0F84EF2E160C0F61000BA
:10250000FFF066FDFFF7E4FEFFE7FFE777E704B0C3
:1025100080BD00000000000080B541F26C10C2F2E6
:102520000040007850B1FFE741F26C11C2F2004167
:1025300088884A78103102F133FAFFE780BD000045
:1025400085B0049003910292049818B1FFE70398B4
:1025500008B9FFE728E0002001900298F8B1FFE7F2
:10256000FFE702980199415C0020009049B1FFE724
:102570000198411C039A0020914238BF012000902D
:10258000FFE70098C00748B1FFE70298019A805C16
:1025900004998854019801300190E2E7FFE704991B
:1025A000019A00208854FFE705B070470000000042
:1025B00080B5BCB005A80490DC21FDF0E0FD0498D6
:1025C00001218DF814100130029000F0B1F9049847
:1025D0000E3001904BF2D472C0F61002C021FFF70A
:1025E000AFFF0198FDF0A4FD029AADF8E20043F2BE
:1025F000C410C2F20040039020300D21FFF7A0FF6D
:10260000039A0498002151744EF6B501C0F60001FA
:1026100000F05AFB3CB080BD80B584B043F2C410DA
:10262000C2F20040807C48B1FFE74EF2F670C0F67F
:102630000000FFF0D9FF00F04BFA3FE01320ADF8A7
:102640000E0043F2C410C2F200404089BDF80E10E3
:102650000844C02809D3FFE74EF6DE10C0F600009C
:10266000FFF0C2FF00F034FA28E043F2C410C2F2D7
:102670000040029041892D3001900844BDF80E20A1
:102680004BF60701C0F61001FDF7C7FE019A02994B
:102690004889BDF80E30184448814B890020D05439
:1026A0004A89CA6001220A7448744EF65910C0F66D
:1026B0000000FFF099FF00F00BFAFFE704B080BDC7
:1026C00080B584B0039043F2C410C2F20040007899
:1026D00070B1FFE7039858B1FFE70398007838B965
:1026E000FFE743F2C410C2F20040407808B1FFE7B0
:1026F0001BE103994888898843F2C412C2F2004260
:1027000001925279013AB2FA82F2520901F110FBB8
:10271000014601988DF80B10407901283ED1FFE762
:102720009DF80B00032803D1FFE7FFF775FF34E0A6
:102730009DF80B00042803D1FFE700F029FA2BE0F5
:102740009DF80B00052808D1FFE743F2C410C2F240
:1027500000401330FFF0F4FC1DE09DF80B00092849
:1027600018D1FFE743F2C410C2F2004000214171CA
:102770004174027C4EF61221C0F600014EF68F2005
:10278000C0F60000002A18BF0846FFF02DFF00F039
:102790009FF9FFE7FFE7FFE7FFE7C6E003994888F7
:1027A000898801F199FB8DF80A009DF90A0000283B
:1027B00026D4FFE743F2C411C2F20041C87800EB0F
:1027C00040029DF80A0000EB42008DF809009DF8D8
:1027D00009008978884212DAFFE79DF8090043F280
:1027E000C411C2F200410871002048744EF2DB703F
:1027F000C0F60000FFF0F8FE00F06AF9FFE794E091
:102800009DF80B00012803D1FFE7FFF7D1FE8CE014
:102810009DF80B00022803D1FFE700F015F983E0D3
:102820009DF80B00052821D1FFE743F2C410C2F246
:10283000004090F90400002817D4FFE743F2C410C9
:10284000C2F200408178007988420EDAFFE743F255
:10285000C410C2F20040017901EB410100EB01100C
:1028600000F5B870FFF06CFCFFE75CE09DF80B0032
:10287000062819D1FFE743F2C410C2F20040C07825
:1028800090B1FFE743F2C411C2F20041C8780138A9
:10289000C870002048744EF6E500C0F60000FFF056
:1028A000A3FE00F015F93DE09DF80B00072829D1A3
:1028B000FFE743F2C410C2F20040817805314AF6C6
:1028C000AB22CAF6AA22A1FB022189088DF80810C2
:1028D000C07801309DF80810884212D2FFE743F219
:1028E000C411C2F20041C8780130C8700020487499
:1028F0004EF6F300C0F60000FFF076FE00F0E8F8B8
:10290000FFE70EE09DF80B00082809D1FFE743F22E
:10291000C411C2F200410020487400F019F9FFE729
:10292000FFE7FFE7FFE7FFE7FFE704B080BD000038
:1029300080B582B0019043F2C410C2F20040008919
:10294000ADF80200FFE7BDF8020042F20F718842C5
:102950006ED8FFE701994E20087001994F2048700A
:10296000019954208870019A4521D170BDF8021058
:1029700048F63812C0F24102A1FB022149F69A1230
:10298000C1F69912A1FB02C303EB8303A1EB430140
:1029900041F03001019B1971BDF8021045F6294341
:1029A000C0F28F23A1FB0331A1FB02C303EB83031E
:1029B000A1EB430141F03001019B5971BDF80210B8
:1029C000A1FB0231A1FB02C303EB8303A1EB430193
:1029D00041F03001019B9971BDF80210A1FB023258
:1029E00002EB8202A1EB420141F03001019AD17168
:1029F000019A2E21117201994872019A58219172FF
:102A00000199C872019900200873BDF802000130D5
:102A1000ADF802000198FFF08BFD40B9FFE7BDF86B
:102A2000020043F2C411C2F20041088109E08AE7C2
:102A300001984EF6AD22C0F600020D21FFF780FD91
:102A4000FFE702B080BD000080B5BAB043F2C41009
:102A5000C2F2004090F90400002809D4FFE743F2D5
:102A6000C410C2F2004081780079884209DBFFE798
:102A70004EF69920C0F60000FFF0B6FD00F028F8F1
:102A800023E003A80290DC21FDF079FB02980221EB
:102A90008DF80C10013043F2C411C2F200410191D3
:102AA0000A7902EB420201EB021101F5B8720D2125
:102AB000FFF746FD019A0298002151744EF68001FD
:102AC000C0F6000100F000F9FFE73AB080BD000059
:102AD00080B582B043F2C410C2F20040007808B959
:102AE000FFE731E043F2C410C2F200404079012810
:102AF00014D1FFE743F2C411C2F20041CA680B7C53
:102B00004878EC46CCF8040001F1ED00CCF8000068
:102B100001F113002D3101F01BFF15E043F2C41049
:102B2000C2F2004090F801C08178C27890F9043078
:102B3000EE46CEF804C000F1ED0CCEF800C000F572
:102B4000B87001F1ADFBFFE702B080BD00000000EE
:102B500080B5BAB0399002A80190DC21FDF00FFBDE
:102B600000208DF80800399A43F2C410C2F20040E8
:102B700000F22D104021FFF7E3FC01984EF6F12101
:102B8000C0F6000100F0A0F83AB080BD00000000DF
:102B900080B5BAB043F2C410C2F20040807C48B1A4
:102BA000FFE74EF63320C0F60000FFF01DFDFFF7F3
:102BB0008FFF38E043F2C410C2F20040007C48B9F5
:102BC000FFE74EF67610C0F60000FFF00DFDFFF7B0
:102BD0007FFF28E003A80290DC21FDF0D0FA0298E4
:102BE00003218DF80C10013043F2C411C2F20041F0
:102BF000019101F113020D21FFF7A2FC0199029846
:102C00000E304A892D31FDF708FC019A029851894E
:102C1000ADF8DA10002151744EF6CE01C0F6000175
:102C200000F052F8FFE73AB080BD0000000000005D
:102C300080B582B043F2C410C2F2004090F8200088
:102C400008B9FFE73EE000208DF80700FFE79DF898
:102C5000070043F2C411C2F200418978884229DAA0
:102C6000FFE79DF8070000EB400043F2C411C2F2F9
:102C7000004101EB001000F5B8702031FDF0A8FA1A
:102C800088B9FFE79DF8070043F2C411C2F2004182
:102C900008719DF807004AF6AB22C2F6AA22A0FBF3
:102CA0000220C87006E0FFE79DF8070001308DF8AC
:102CB0000700CCE743F2C411C2F20041002081F8C2
:102CC0002000FFE702B080BD80B584B00290019182
:102CD00043F2C410C2F20040407858B1FFE74EF60C
:102CE0008910C0F60000FFF07FFCFFF7F1FE002026
:102CF000039022E0029800F153FD01280BD0FFE77A
:102D00004EF6C010C0F60000FFF06EFCFFF7E0FECC
:102D10000020039011E043F2C411C2F200410120EF
:102D2000009048700298007888710198FFF05CFC70
:102D3000FFF7CEFE00980390FFE7039804B080BD34
:102D400080B5FFE740F6FC00C2F2004000F190FBC6
:102D5000012807D1FFE740F6FC00C2F20040FFF077
:102D60006BFAEFE780BD000010B58EB000200C902C
:102D700046F2DC70C2F200404C304EF2EF72C0F608
:102D800010024FF4C051FDF71DFB0B900B9800286B
:102D900005D4FFE70B98B0F5C05F03D3FFE7002031
:102DA0000D9062E00B980C9046F2DC70C2F200408D
:102DB00000798DF82B00FFE79DF82B00002851D0FB
:102DC000FFE79DF82B1046F2DC70C2F20040039042
:102DD00000EB811041F60C01084407900798006849
:102DE0000DF122010591FFF0BFFC03990C980144FD
:102DF0004C310691C0F5C05004900798007900F05E
:102E00007FF90499059B02460698DDF81CC00CF179
:102E1000050E0CF10E04EC46CCF80840CCF804E0AA
:102E2000CCF800204EF62702C0F61002FDF7CAFAD1
:102E30000B900B98002807D4FFE70B980C99C1F56D
:102E4000C051884203D3FFE700200D900DE00B999D
:102E50000C9808440C90FFE79DF82B0001388DF882
:102E60002B00A9E70C980D90FFE70D980EB010BD50
:102E700085B0049003910292049818B1FFE703987B
:102E800008B9FFE728E0002001900298F8B1FFE7B9
:102E9000FFE702980199415C0020009049B1FFE7EB
:102EA0000198411C039A0020914238BF01200090F4
:102EB000FFE70098C00748B1FFE70298019A805CDD
:102EC00004998854019801300190E2E7FFE70499E2
:102ED000019A00208854FFE705B070470000000009
:102EE00080B5BAB00020FFF00BFDFFF73DFF029068
:102EF000029848B9FFE74EF61310C0F6100000F034
:102F000023F9FFF0D9FC38E003A80190DC21FDF0A3
:102F100036F9019807218DF80C1001304EF6EB02BE
:102F2000C0F610020D21FFF7A3FF019846F2DC71F5
:102F3000C2F200414C3137910299389100F130FCD6
:102F4000012809D0FFE74EF6C010C0F6000000F0DF
:102F5000FBF8FFF0B1FC10E046F2DC71C2F2004178
:102F600001204870002088704EF6AD00C0F61000B9
:102F700000F0EAF8FFF0A0FCFFE73AB080BD0000E7
:102F800080B582B0019046F2DC70C2F20040007859
:102F900070B1FFE7019858B1FFE70198007838B9A0
:102FA000FFE746F2DC70C2F20040407808B1FFE76C
:102FB00082E001994888898800F1DAFF8DF80300E2
:102FC00046F2DC70C2F200400079811D44F6251003
:102FD000C2F29240A1FB0020091A00EB51008008C8
:102FE0008DF802009DF8030001281AD1FFE746F290
:102FF000DC70C2F20040807878B9FFE746F2DC71FD
:10300000C2F20041012088704EF6F600C0F61000B2
:1030100000F09AF8FFF050FC02E0FFF079FBFFE7C8
:103020004AE09DF80300022803D1FFE7FFF758FFAD
:1030300041E09DF80300032819D1FFE746F2DC7058
:10304000C2F20040C07890B1FFE746F2DC71C2F2F4
:103050000041C8780138C870002088704EF6DC0046
:10306000C0F6100000F070F8FFF026FC22E09DF89A
:10307000030004281DD1FFE746F2DC70C2F20040D5
:10308000C07801309DF80210884212D2FFE746F264
:10309000DC71C2F20041C8780130C870002088702D
:1030A0004EF6CD00C0F6100000F04EF8FFF004FC24
:1030B000FFE7FFE7FFE7FFE702B080BD0000000089
:1030C00080B582B009F08CFA45F2D070C2F20040AF
:1030D000007870B9FFE745F2D070C2F2004001906D
:1030E00041F20801FDF04BF8019901200870486099
:1030F000FFE709F0A9FA02B080BD0000000000005F
:1031000082B08DF803009DF80300022806D1FFE786
:103110004EF62510C0F61000019010E09DF8030057
:10312000012806D1FFE74EF20760C0F600000190CB
:1031300005E04EF20C60C0F600000190FFE7019838
:1031400002B070470000000080B582B00190019A83
:1031500046F2DC70C2F200400C304021FFF788FEDE
:1031600002B080BD0000000080B58CB00B908DF8DF
:103170002B1009920B99042008709DF82B000B99D5
:10318000487709980B9988619DF92B00FFF0F8FCAE
:1031900002464EF21761C0F600010020FFF06CFA03
:1031A0009DF92B0018B9FFE7FFF0FAF924E09DF92B
:1031B0002B00012803D1FFE7FFF76EF81BE09DF914
:1031C0002B00032803D1FFE7FFF056FB12E09DF927
:1031D0002B00042808D1FFE702A80190FFF0A8FC0B
:1031E000019802F045F804E09DF82B0000F1A8FFDB
:1031F000FFE7FFE7FFE7FFE79DF92B00012806D077
:10320000FFE70B990889498901F09EF9FFE70CB0A7
:1032100080BD00000000000080B584B003900291E2
:1032200001920093039890F91D00012817D0FFE741
:103230000198007828B1FFE70198007801280ED1A5
:10324000FFE70198408803990881019880880399D5
:10325000488103990889498901F076F9FFE70198C7
:103260000078B8BBFFE701994888898800F1B8FA6F
:1032700080B3FFE7039890F91D0018B9FFE7FEF04F
:1032800057FF13E0039890F91D00012803D1FFE7D1
:10329000FEF7D2FF09E0039890F91D00032803D13F
:1032A000FFE7FFF059FAFFE7FFE7FFE74EF217618C
:1032B000C0F600014EF29732C0F610020020FFF077
:1032C000DBF90399487F087703980299009AFFF089
:1032D0009FFC1EE0039890F91D0020B9FFE70198BC
:1032E000FFF7EEF915E0039890F91D00012804D1CD
:1032F000FFE70198FEF01CFD0AE0039890F91D001D
:10330000032804D1FFE70198FFF73AFEFFE7FFE744
:10331000FFE704B080BD000080B584B00390029147
:1033200001920298007828B1FFE7029800780128FE
:103330000ED1FFE70298408803990881029880889F
:103340000399488103990889498901F0FDF8FFE74D
:103350000298007830BBFFE702994888898800F11D
:10336000BBFA8DF803009DF90300002819D4FFE78C
:103370009DF90300039991F91C10884207D1FFE7DA
:1033800003989DF90310019AFFF7EEFE08E09DF8FF
:103390000300039908779DF9030000F145FEFFE75C
:1033A000FFE7FFE704B080BD80B586B005900491CB
:1033B000039202930398007808B1FFE74BE003996A
:1033C0004888898801F04CF88DF807009DF90700BE
:1033D000002821D4FFE79DF9070009281CDCFFE73E
:1033E0000598407903280CD8FFE79DF80700303096
:1033F00005994A7911444870059948790130487116
:10340000FFE70599487989794EF2D452C0F6000257
:10341000002301F1C5FB1EE09DF907000A280DD12C
:10342000FFE7059800234371059881794EF67202F3
:10343000C0F61002184601F1B3FB0BE09DF907003E
:103440000B2806D1FFE705980499029AFFF03CFC8F
:10345000FFE7FFE7FFE706B080BD000000000000C7
:1034600083B0019001984079042804D0FFE7002040
:103470008DF80B0024E000208DF80300FFE79DF895
:103480000300032818D8FFE701989DF80320104493
:1034900040784EF24821C0F60001895C884204D091
:1034A000FFE700208DF80B000AE0FFE79DF803001E
:1034B00001308DF80300E2E701208DF80B00FFE7F3
:1034C0009DF80B0003B0704780B594B013904EF296
:1034D0005151C0F6100108A802F132FC8DF8070026
:1034E0009DF80700002843D1FFE7FFE71398C07855
:1034F000172839D8FFE708A802A902F1C5FD8DF801
:1035000007009DF8070020B9FFE79DF8110008B9F2
:10351000FFE729E09DF81000C006002801D5FFE76D
:10352000E4E71398C17801EB410100EB0110DC30B6
:103530000090009802A901F109020D21FFF0C0FCE2
:10354000009901F11500FFF00BFE009800F11CF846
:103550000298009988620099012081F82C00139943
:10356000C8780130C870C1E708A802F079FCFFE70D
:103570009DF80700139988709DF80700FFF008FE7A
:10358000139948701398407820B9FFE7139800F119
:103590002FF8FFE714B080BD80B582B049F2AC21AE
:1035A000C2F200410020087049F27800C2F20040E7
:1035B0004EF25551C0F61001012202F069FC8DF85F
:1035C00007009DF80700A8B9FFE740F25061C2F27A
:1035D0000041886CC96C000D40EA013040F6606122
:1035E000C2F20041086049F2AC21C2F20041012060
:1035F00008700CE040F66061C2F2004100200860F3
:1036000049F2AC21C2F2004102200870FFE79DF8A8
:10361000070002B080BD000085B00390039820B180
:10362000FFE70398007820B9FFE700208DF813002A
:103630006EE000200190FFE703980199415C0020B3
:10364000009039B1FFE7019900200D2938BF012012
:103650000090FFE70098C00720B1FFE70198013014
:103660000190E9E7019820B1FFE701980D2804D304
:10367000FFE700208DF813004AE000200290FFE7EA
:103680000298019988423FD2FFE703980299405C73
:103690002F2830D0FFE703980299405C5C282AD09D
:1036A000FFE703980299405C3A2824D0FFE703988B
:1036B0000299405C2A281ED0FFE703980299405CDB
:1036C0003F2818D0FFE703980299405C222812D0C7
:1036D000FFE703980299405C3C280CD0FFE7039871
:1036E0000299405C3E2806D0FFE703980299405CAF
:1036F0007C2804D1FFE700208DF8130008E0FFE7E5
:10370000029801300290BBE701208DF81300FFE71B
:103710009DF8130005B0704780B584B00390029106
:1037200002990020486008600398007802990870A8
:1037300049F2AC20C2F200400078012811D0FFE726
:10374000FFF72AFF8DF807009DF8070040B1FFE75B
:103750009DF80700029988700299012048700FE0D7
:10376000FFE703980078052805D1FFE70398029941
:10377000FFF0FAFD04E00398029900F025F9FFE755
:1037800004B080BD0000000080B582B000900098B9
:1037900038B1FFE740F65C60C2F20040006818B93B
:1037A000FFE7002001900AE040F65C60C2F20040B2
:1037B00000680099002209F0D7FB0190FFE701980B
:1037C00002B080BD0000000080B5ADF51E7D4EF258
:1037D000CD51C0F6100114A8012202F115F98DF89F
:1037E0004F009DF84F00A8BBFFE702A800904021C2
:1037F000FCF78AFE009914A801903F2212AB02F157
:103800000BFB014601988DF84F1002F1DDF89DF891
:103810004F00A8B9FFE712980D2811D3FFE74DF626
:103820006841C0F6000102A80D22FCF055FC38B931
:10383000FFE74EF2D440C0F61000FCF7A1FD08E00F
:103840009DF84F104EF25740C0F61000FCF798FD5F
:10385000FFE708E09DF84F104EF2B640C0F61000AA
:10386000FCF78EFDFFE74EF2BD51C0F6100114A823
:103870000A2202F1C9F88DF84F009DF84F00E8B90F
:10388000FFE74DF67641C0F6000114A8132212ABF3
:1038900002F02AFC8DF84F009DF84F0050B9FFE769
:1038A0001298132806D1FFE714A802F169FC8DF8DD
:1038B0004F00FFE714A802F187F8FFE79DF84F00DB
:1038C00058B9FFE71298132807D1FFE74EF21550B9
:1038D000C0F61000FCF754FD08E09DF84F104EF2C2
:1038E0009440C0F61000FCF74BFDFFE70DF51E7D80
:1038F00080BD00000000000080B5ADF5147D939000
:10390000929193980130FFF787FE20B9FFE79299D3
:103910000420487052E09398B0F8CE00C02804D339
:10392000FFE792990520487048E09398411C0DF1FB
:1039300007000090FFF014FC009908A80A2202F189
:1039400063F88DF81F00002006909DF81F0000BB53
:10395000FFE7939800F10E01B0F8CE2008A806AB5F
:1039600002F0C2FB8DF81F009DF81F0068B9FFE749
:1039700006989399B1F8CE10884206D1FFE708A8BF
:1039800002F1FEFB8DF81F00FFE708A802F11CF80A
:10399000FFE79DF81F00929988709DF81F00FFF0C7
:1039A000F7FB9299487006989299888092980C300B
:1039B00093994A1C0D21FFF083FAFFE70DF5147D62
:1039C00080BD00000000000080B5ADF51E7D9D901B
:1039D0009C919D980130FFF71FFE50B1FFE79D9825
:1039E000D0F8D00028B1FFE79D98D0F8D40020B9D6
:1039F000FFE79C9904204870D0E09D980078072844
:103A00000BD1FFE74EF29F50C0F6100004904EF22B
:103A10008650C0F6100003900AE04EF2AB50C0F69C
:103A2000100004904EF29250C0F610000390FFE791
:103A30009D98411C0DF116000290FFF091FB029839
:103A40000499039AFFF054FD049802F111FC0499C3
:103A500012A80A2201F1D8FF8DF82F0000200A9049
:103A60009DF82F0048BBFFE79D98D0F8D010D0F804
:103A7000D42012A80AAB02F037FB8DF82F009DF876
:103A80002F0068B9FFE70A989D99D1F8D4108842B1
:103A900006D1FFE712A802F173FB8DF82F0008E0B2
:103AA0009DF82F0020B9FFE701208DF82F00FFE7D8
:103AB000FFE712A801F188FFFFE79DF82F0088B10A
:103AC000FFE7049802F1D4FB9DF82F009C998870C1
:103AD0009DF82F00FFF05CFB9C9948700A989C9918
:103AE00048605BE00DF116000CA902F115FBB0FA7D
:103AF00080F040098DF827009DF8270058B1FFE7B6
:103B0000039802F1B5FB03990DF1160002F00CFACF
:103B10008DF82F00FFE79DF82F0040B9FFE70498CC
:103B20000DF1160102F000FA8DF82F00FFE79DF865
:103B30002F0080B1FFE79DF8270040B1FFE7039811
:103B40000DF1160102F0F0F98DF82E00FFE7049850
:103B500002F18EFB08E09DF8270020B1FFE70398F3
:103B600002F186FBFFE7FFE79DF82F009C99887024
:103B70009DF82F00FFF00CFB9C9948709DF82F00DA
:103B800028B9FFE79D98D0F8D400019002E000200A
:103B90000190FFE701989C994860FFE70DF51E7DB5
:103BA00080BD00000000000080B584B0FFF054FA32
:103BB000012804D0FFE7042002F002FCFFE72020E8
:103BC0000C21002209F030F8014649F2B020C2F27F
:103BD00000400160006820B9FFE7042002F0F0FB1C
:103BE000FFE749F2B020C2F20040039000684EF2B5
:103BF0006D41C0F6000108F0E7FD0399086843F243
:103C0000B473C2F20043186049F2AD20C2F2004022
:103C100002781A710A6849F26801C2F200410A602A
:103C20000078087140F20800C2F200400068886025
:103C300043F2BC70C2F2004069464860042008604C
:103C400041F24900C0F600004EF26341C0F60001A7
:103C50004FF4007209F084FA012804D0FFE7042031
:103C600002F0AEFBFFE749F27400C2F20040694681
:103C700048600320086041F2A910C0F600004EF22F
:103C80004F41C0F6000149F26803C2F200434FF40D
:103C9000806209F065FA012804D0FFE7042002F0F1
:103CA0008FFBFFE749F2B020C2F20040006849F202
:103CB0003003C2F20043186043F2BC70C2F200400D
:103CC0000068586049F27400C2F2004000689860D1
:103CD0006946002048600120086040F2D970C0F6B3
:103CE00010004EF25741C0F600014FF4007209F087
:103CF00037FA012804D0FFE7042002F061FBFFE758
:103D0000694600234B600220086041F29120C0F612
:103D100000004EF24341C0F600014FF4806209F00A
:103D20001FFA012804D0FFE7042002F049FBFFE757
:103D300004B080BD0000000080B584B0ADF80E0076
:103D4000ADF80C10BDF80E00B0F5457F05D9FFE7C2
:103D50004FF44570ADF80E00FFE7BDF80C00B0F56C
:103D6000E87F05D9FFE74FF4E870ADF80C00FFE7F6
:103D7000BDF80E0041F26611C2F200410880BDF8A4
:103D80000C0041F26811C2F2004108800020ADF839
:103D90000A00FFE7BDF80A000F2833D8FFE700202C
:103DA000ADF80800FFE7BDF808000B2823D8FFE7AF
:103DB000BDF80E00BDF808100844BDF80C10BDF8A1
:103DC0000A20114480B289B203F1C6FEBDF80A1080
:103DD00001EB4102BDF8081001EB820240F664617C
:103DE000C2F2004141F82200FFE7BDF808000130AF
:103DF000ADF80800D7E7FFE7BDF80A000130ADF8DD
:103E00000A00C7E70020ADF80A00FFE7BDF80A0086
:103E10000F2851D8FFE70020ADF80800FFE7BDF8F4
:103E200008000B2841D8FFE7BDF80A004EF2FE0259
:103E3000C0F600020D2100FB0120BDF80810405C17
:103E40008DF807009DF80700232810D1FFE7BDF883
:103E50000E00BDF808100844BDF80C10BDF80A208B
:103E6000114480B289B2002203F0A2FB16E09DF853
:103E700007002B2811D1FFE7BDF80E00BDF8081090
:103E80000844BDF80C10BDF80A20114480B289B274
:103E90004FF6FF7203F08CFBFFE7FFE7FFE7BDF88B
:103EA00008000130ADF80800B9E7FFE7BDF80A00E7
:103EB0000130ADF80A00A9E741F26411C2F20041F5
:103EC0000120087004B080BD82B0ADF80400ADF8E8
:103ED0000210BDF8040040F28221884231D3FFE78E
:103EE000BDF80400C00860282BD8FFE7BDF8020029
:103EF000462809D3FFE7BDF802006F2804D8FFE782
:103F000001208DF807007EE0BDF80200802809D36B
:103F1000FFE7BDF80200A92804D8FFE702208DF8CA
:103F2000070070E0BDF80200BA2809D3FFE7BDF82A
:103F30000200E32804D8FFE703208DF8070062E0C1
:103F4000FFE7BDF80200B0F58C7F29D3FFE7BDF88D
:103F500002008008502823D8FFE7BDF8040040F293
:103F6000822188420AD3FFE7BDF804008008AE280A
:103F700004D8FFE704208DF8070044E0BDF80400F2
:103F800040F2CA2188420AD3FFE7BDF80400800846
:103F9000C02804D8FFE705208DF8070033E0FFE7CD
:103FA000BDF80200B0F5AA7F29D3FFE7BDF80200F3
:103FB000C009022823D8FFE7BDF8040040F282219F
:103FC00088420AD3FFE7BDF804008008AE2804D871
:103FD000FFE706208DF8070015E0BDF8040040F269
:103FE000CA2188420AD3FFE7BDF804008008C02830
:103FF00004D8FFE707208DF8070004E0FFE7002062
:104000008DF80700FFE79DF8070002B07047000039
:1040100080B58EB00D9041F26411C2F200410020D3
:10402000089008704DF6FB6002F1CEFE08996A46D2
:1040300041F2A2000390106040F21F3204922F233D
:10404000084605F071FB0399049A08986B461960BD
:104050004FF4E07140F2DF1305F066FB694640F271
:10406000FF4008600C200990082105916C220692FF
:104070002723079305F058FB0599069A079B099893
:10408000EE464FF6FF7CCDF828C0CEF800C003F115
:104090001FF8089809996A4650604EF2A650C0F67B
:1040A00000001060612210230C93084600F018FBFA
:1040B00009990A9B0D9A6846836042601823036041
:1040C0008E204FF4FA720B9200F182FB0A990B9A40
:1040D0000C9B684681604EF24D71C0F60001416054
:1040E00003604FF4E471184600F172FB0EB080BD1E
:1040F00080B58AB0ADF8260008918DF81F209DF894
:104100001F1041F6E300002918BF44F66920ADF8FE
:104110001C009DF81F1049F6F3400390002918BFBA
:104120004FF6FF70ADF81A00BDF8261001F1290016
:10413000BDF81C206B461A6083B240F282200590C5
:1041400040F20732049205F0EFFADDF80CC0049A51
:104150000598BDF8261001F129039DF81FE0BEF176
:10416000000F18BF4FF6FF7CEE46CEF800C09BB2A2
:1041700002F1AEFF0598BDF826100D31089ABDF882
:104180001AC06B46C3F804C01A6089B28622102395
:1041900000F0A6FA0AB080BD80B588B084460A98BF
:1041A000ADF81EC0ADF81C10ADF81A2005938DF8BF
:1041B00013009DF8131041F6E300002918BF44F6E0
:1041C0006920ADF810009DF8131049F6F3400290F5
:1041D000002918BF4FF6FF70ADF80E00BDF81E00A5
:1041E000BDF81C10BDF81A200244013A01F1290360
:1041F000BDF810C0EE46CEF800C092B29BB205F0FA
:1042000093FADDF808C0BDF81E00BDF81C10BDF81B
:104210001A200244013A01F129039DF813E0BEF18E
:10422000000F18BF4FF6FF7CEE46CEF800C092B2EA
:104230009BB202F14DFFBDF81E00BDF81C100D3100
:10424000BDF81A20059BBDF80EE0EC46CCF804E062
:10425000CCF8003089B2102300F042FA08B080BDDB
:1042600080B586B084460898ADF816C0ADF8141035
:10427000ADF81220ADF81030ADF80E00BDF8160004
:10428000BDF81410BDF81220BDF81030BDF80EC0F6
:10429000EE46CEF800C002F183FEBDF81600BDF870
:1042A0001410BDF80E300222029203F1A9FB029A0B
:1042B000BDF81200BDF81010BDF80E3003F1A0FBE0
:1042C00006B080BD0000000080B584B0039002916C
:1042D000039844F20751CCF22E21A0FB0121090CD6
:1042E00040F2A3225143A0EBC110039003994BF27B
:1042F000C530C9F2A210A1FB0021C90A0191039A9D
:10430000A2FB0010C00A4FF4616100FB112044F2CF
:104310004541C0F24441A0FB01100090039848F6CB
:104320008901C8F68801A0FB011251090901A1EB1E
:104330005211A0EB8100039001984CF6CD41CCF6D0
:10434000CC41A0FB0102302000EBD202029B1A708C
:10435000019AA2FB01C3DB0803EB8303A2EB430238
:1043600042F03002029B5A70029B3A229A70009BE4
:10437000A3FB01C300EBD303DDF808C08CF80330C6
:10438000009BA3FB01EC4FEADC0C0CEB8C0CA3EBC9
:104390004C0343F03003DDF808C08CF80430029B76
:1043A0005A71039AA2FB013200EBD200029A90717B
:1043B0000398A0FB0121C90801EB8101A0EB41009A
:1043C00040F030000299C87102990020087204B0D0
:1043D00080BD00000000000081B08DF801009DF854
:1043E0000100022805D1FFE74FF47840ADF8020044
:1043F0000EE09DF80100012805D1FFE74FF6E070BF
:10440000ADF8020004E04FF4FC60ADF80200FFE7F5
:10441000BDF8020001B0704782B08DF803009DF82E
:104420000300022806D1FFE74EF62510C0F6100063
:10443000019010E09DF80300012806D1FFE74EF23D
:104440000760C0F60000019005E04EF20C60C0F677
:1044500000000190FFE7019802B0704700000000E3
:1044600083B0ADF80800ADF80610BDF80800B0F54F
:104470009B7F05D3FFE7BDF806009F2804D8FFE720
:10448000FF208DF80B0059E0BDF80800A0F59B70E7
:10449000ADF80400BDF80600A038ADF80200BDF884
:1044A000040042F29341C0F24921A0FB01108DF8B3
:1044B0000100BDF802004FF63F01C0F2E031A0FB61
:1044C00001108DF800009DF80100022823D8FFE7B5
:1044D0009DF8000003281ED8FFE7BDF8040042F253
:1044E0009341C0F24921A0FB0121C1EBC101A0EB26
:1044F000011063280FD8FFE7BDF802004FF63F0117
:10450000C0F2E031A0FB012101EB4111A0EB410021
:10451000382804D3FFE7FF208DF80B000EE09DF84C
:10452000000000EB40014BF61B00C0F610000844F1
:104530009DF80110405C8DF80B00FFE79DF90B0022
:1045400003B070470000000080B582B0ADF80600EF
:10455000ADF80410FFF06CF9BDF80600BDF80410CA
:10456000FFF7EAFB02B080BD80B58EB08DF8370052
:104570000C9141F26411C2F20041002006900870D3
:1045800040F21001C2F20041FF20087041F6E30042
:1045900002F11AFC06996A4641F2A200106040F24C
:1045A0001F322F23084605F0BFF868464FF6FF710B
:1045B0000A9181604EF2F641C0F600014160182375
:1045C0000993036012200C214FF4FA7200F100F9F4
:1045D0000A98694648604EF28D40C0F600000860B7
:1045E000502007907E214FF420720892202300F083
:1045F00077F80798089A099BEC4640F2FF410B9127
:10460000CCF804104EF21671C0F60001CCF8001080
:10461000B02100F065F80A986946086095204FF4CB
:10462000887140F28A224FF4987302F151FD0B9881
:10463000694608609A2040F2151140F2852240F246
:104640002B1305F071F89DF837104EF24452C0F666
:1046500000024EF21350C0F60000002918BF1046A9
:104660004FF47842002918BF4FF4FC6269464A6053
:10467000086064204FF4A5714FF41672102300F007
:104680002FF89DF8370038B3FFE70C9820B3FFE709
:10469000684649F6F34181604EF2C541C0F600011B
:1046A00041601023059303604FF4A5704FF4B4717B
:1046B0000491502200F18CF80499059B0C9A6846ED
:1046C0004FF6FF7CC0F808C0426003604FF4BF7033
:1046D0008C2200F17DF8FFE70EB080BD00000000E5
:1046E00010B588B084460B98DDF828E0ADF81EC000
:1046F000ADF81C10ADF81A208DF81930ADF8160081
:104700000A989DF8191000F1E3F8ADF81400BDF80F
:104710001400BDF81A1088420CDAFFE7BDF81E003D
:10472000BDF81A10BDF81420891A00EB510080B2B0
:10473000039003E0BDF81E000390FFE70398ADF877
:104740001200BDF81200BDF81C10BDF81A209DF82B
:104750001930DDF828E0BDF81640EC46CCF80840EA
:10476000CCF804E0CCF8003000F132F808B010BD0D
:1047700080B592B08DF8470010910F9241F264110C
:10478000C2F2004100200990087040F21001C2F20C
:104790000041FF2008704DF6FB6002F115FB0999FE
:1047A0006A4641F2A2000890106040F21F320A925D
:1047B0002F23084604F0B8FF09986A4642F64511CF
:1047C00011603021B42240F2BF1304F0ADFF08990C
:1047D00009980A9A6B4619604FF4E07140F2DF13B2
:1047E00004F0A2FF68464FF6FF7181604EF211613E
:1047F000C0F6000141601823036010200D900C21C9
:104800004FF4B472FFF0E4FF0D9B68464FF4FC6177
:1048100081604EF2FA61C0F600014160036012202F
:104820000C90482191220B92FFF0D2FF0B9A0C982A
:104830000D9B9DF847104EF2585EC0F6000E4EF2EA
:10484000285CC0F6000C002918BFF4464FF4784EDF
:10485000002918BF4FF4FC6E6946C1F808E0C1F8A2
:1048600004C00B606E21FFF0B3FF0C980D9B6946EE
:1048700049F6F3428A604EF2C542C0F600024A6031
:104880000B6090214122FFF0A3FF109870B1FFE769
:10489000109968464FF6FF728260416010230360F2
:1048A0001220A6219122FFF093FFFFE768464FF602
:1048B000FF71049181604EF29B41C0F6000141609E
:1048C00010230793036012200590D82191220692AD
:1048D000FFF07EFFDDF810C00598069A079B694639
:1048E000C1F808C04EF27E5CC0F6000CC1F804C0EE
:1048F0000B60FA21FFF06CFF00208DF83B00FFE712
:104900009DF83B0005280CD8FFE79DF83B000021EF
:10491000FFF09AF8FFE79DF83B0001308DF83B006F
:10492000EEE768464FF6FF7181604EF23271C0F6D5
:1049300000014160102303604FF4E4714FF41672DC
:104940001846FFF045FF0F98FFF0E2FF12B080BD60
:1049500080B596B084461998DDF860E0CDF854C073
:10496000149113928DF84B308DF84A0041F2641087
:10497000C2F2004000788DF8490041F26610C2F2A0
:1049800000400088ADF8460041F26810C2F20040D5
:104990000088ADF84400FEF04BFF4EF22C60C0F6EC
:1049A0000000FFF735FB694641F6E3000860182078
:1049B0000C9042210D9140F207320E924FF4A573F4
:1049C0000F9304F0B1FE0C980D990E9A0F9BEE46D2
:1049D00049F6F34CCDF840C0CEF800C002F178FBA8
:1049E0001099684681604EF2B341C0F60001416003
:1049F00010230360282050213C22FFF0E9FE159887
:104A000018B1FFE715980B9005E04EF6AE20C0F602
:104A100010000B90FFE70B9968464FF6FF72089263
:104A20008260416010230A93036060205021099145
:104A3000A022FFF0CDFE09990A9B684649F6F34291
:104A400082604EF2B942C0F60002426003604FF449
:104A500096704022FFF0BCFE089809990A9B139AB1
:104A6000EC46CCF800004FF4B27000F04DFD9DF81C
:104A70004B0090B1FFE768464FF6E07181604EF25F
:104A8000D141C0F6000141601023036040F28A204A
:104A900050216022FFF09CFEFFE7694641F2A20030
:104AA000086026206C2140F2F9224FF49D7302F138
:104AB0000FFB149818B1FFE71498079005E04EF625
:104AC000AE20C0F610000790FFE7079869464FF642
:104AD000FF724A600860302078214FF42F72B423AF
:104AE00000F00EFC9DF84A00B0FA80F040096946DB
:104AF00008604EF2C263C0F6000328204FF4B7717D
:104B00009622FFF749FB9DF84A100020069039B91C
:104B1000FFE79DF84B00002818BF01200690FFE733
:104B2000069800F00100694608604EF68413C0F64E
:104B30000003DC204FF4B771049196220592FFF731
:104B40002BFB0499059A9DF84A00B0FA80F04009C1
:104B50006B4618604EF27753C0F600034FF4C870EE
:104B6000FFF71AFB0499059A9DF84A00B0FA80F005
:104B700040096B4618604EF69423C0F600034FF4CC
:104B80001170FFF709FB18989DF84A10FFF0BCFD63
:104B90009DF8490038B1FFE7BDF84600BDF8441064
:104BA000FFF7CAF8FFE716B080BD00000000000064
:104BB00080B588B0079041F26411C2F20041002034
:104BC0000290087041F6E30002F1FEF802996A468D
:104BD0004FF47840106040F21F322F23084604F053
:104BE000A3FD02986A464FF6FF71039151604EF2A1
:104BF000DA41C0F6000111600C214FF4487218230D
:104C00000693FFF76DFD0398694648604EF2946085
:104C1000C0F6000008606420049096214FF41672DC
:104C200005922023FFF75CFD0498059A069BEC464D
:104C300049F6F341CCF804104EF2B661C0F600011B
:104C4000CCF80010DC21FFF74BFD0798FFF074FF54
:104C500008B080BD0000000080B58CB08DF82F003A
:104C600041F26411C2F2004100200A9008704DF632
:104C7000FB6002F1A9F80A996A4641F2A200089085
:104C80001060BE2240F2DF13084604F04DFD694675
:104C90004FF6FF7088604EF2CE50C0F600004860BC
:104CA00020200860182009902C219622079240238A
:104CB000FFF08EFD09986A4649F6F341059191602F
:104CC0004EF20C71C0F60001516010210691116086
:104CD00070219122039230230493FFF079FD039A0F
:104CE000049B06990998DDF814E0EC46CCF808E03E
:104CF0004EF2DE5EC0F6000ECCF804E0CCF80010F8
:104D00008421FFF065FD0699079A09989DF82F30D8
:104D10004EF2655EC0F6000E4EF2365CC0F6000C38
:104D2000002B18BFF4464FF4784E002B18BF4FF4F9
:104D3000FC6E6B46C3F808E0C3F804C019604FF47A
:104D4000C9711223FFF044FD0898099B6946486029
:104D50004EF2EA50C0F600000860FA201C214FF421
:104D6000E172FFF7BDFC0A988DF82E00FFE79DF871
:104D70002E0003281DD8FFE700208DF82D00FFE747
:104D80009DF82D0002280DD8FFE79DF82E009DF814
:104D90002D10FEF0D5FEFFE79DF82D0001308DF8B7
:104DA0002D00EDE7FFE79DF82E0001308DF82E0075
:104DB000DDE74EF2D452C0F6000200231846194631
:104DC000FFF0EEFE0CB080BD10B5A2B08C4686465A
:104DD00025982499CDF884E08DF883C08DF8822041
:104DE0001F938DF87B108DF87A0041F26410C2F2A7
:104DF000004000788DF8760041F26610C2F2004063
:104E00000088ADF8740041F26810C2F200400088DA
:104E1000ADF87200FEF00CFD4EF26C60C0F60000C2
:104E2000FFF7F6F8684641F2A201159181604EF253
:104E30000E51C0F6000141601023179303601C203F
:104E4000362116914A22FFF0C3FC1599169A179B3A
:104E5000684681604EF2AE51C0F6000141600360C9
:104E600070201146FFF0B4FC159A1699179B6846FE
:104E700082604EF2EF42C0F6000242600360B02052
:104E80004622FFF0A5FC159A1699179B684682608A
:104E90004EF2E742C0F60002426003604FF48070B9
:104EA0004FF4AA72FFF094FC00208DF87900FFE720
:104EB0009DF87900062800F2A480FFE79DF88200A3
:104EC000C0EBC0009DF8791008448DF878009DF87B
:104ED00079004E222E2110FB0120ADF87000BDF8A4
:104EE000701001F129006B4641F6E3021A6083B2AB
:104EF0001220139040F25F22149204F015FC1398D4
:104F0000149ABDF8701001F12903EE4649F6F34CEE
:104F1000CEF800C09BB202F1DBF82198002869D0DE
:104F2000FFE79DF878009DF88310884262DAFFE77A
:104F300021989DF8781000EB81101890189800685F
:104F40000DF167010E91FFF7BFF90E9ABDF87000E1
:104F50000D3069464FF6FF7311938B604A60102342
:104F600012930B6081B21C204C22FFF031FCBDF883
:104F700070000D30109018980079FFF74DFA0F90DF
:104F800018980079FFF728FA0F9A129B8446109818
:104F90006946C1F808C04A600B6081B270203622B1
:104FA000FFF016FC129BBDF870000D3018994A1DD9
:104FB000694640F2FF4CC1F808C04A600B6081B2FC
:104FC000B0204822FFF004FCDDF844C0129BBDF87D
:104FD00070000D30189901F10E026946C1F808C041
:104FE0004A600B6081B24FF480704FF4A772FFF0FB
:104FF000EFFBFFE7FFE79DF8790001308DF87900BE
:1050000056E79DF88300811D44F62510C2F29240B8
:10501000A1FB0020091A00EB510080088DF87700F1
:105020009DF87A204EF60B10C0F610004EF270710B
:10503000C0F61001002A18BF01469DF87B00B0FAA7
:1050400080F042094E20FEF0DBFD9DF87B00B0FAB7
:1050500080F042094EF2CD61C0F600018820FEF0DA
:10506000CFFD9DF87B1000200D9039B9FFE79DF82A
:105070008200002818BF01200D90FFE70D9800F076
:1050800001024EF2AD61C0F60001DE20FEF0B8FD77
:105090009DF87B1000200C9059B9FFE79DF8820025
:1050A000411C9DF877200020914238BF01200C90D0
:1050B000FFE70C9800F001024EF2D461C0F6000147
:1050C0004FF48C70FEF09CFD684641F2A2018160B5
:1050D0004EF6F801C0F60001416010230B93036007
:1050E00040F27E204FF4B0710A913222FFF070FB43
:1050F0000A990B9B9DF88200421CEC464FF6FF700C
:10510000CCF800004FF42C7000F0FEF90A990B9BCC
:10511000684649F6F34282604EF25352C0F61002DE
:105120004260036040F2CE200C22FFF051FB9DF85C
:10513000770020B1FFE79DF87700099002E0012099
:105140000990FFE7099A69464FF6FF7005900860DD
:1051500040F2E2204FF4B0711023079300F0D4F92D
:10516000079B684641F2A201089181604EF2C76137
:10517000C0F600014160036040F27E204FF4C07130
:1051800006913622FFF024FB05980699079B9DF8AF
:105190008320EC46CCF800004FF42E7000F0B4F9F8
:1051A000089869460860BE204FF4E27140F216325A
:1051B00040F2DB1304F0B8FA9DF87B0070B3FFE710
:1051C00068464FF6E07181604EF20771C0F600014B
:1051D000416010230360C8204FF4E4714022FFF0C7
:1051E000F7FA1F9818B1FFE71F98049005E04EF2F8
:1051F000B660C0F600000490FFE7049968464FF6D9
:10520000FF7282604160102303604FF482704FF49C
:10521000E4714FF4FF72FFF0DBFA1BE01F9818B146
:10522000FFE71F98039005E04EF6D120C0F600007E
:105230000390FFE7039968464FF6FF728260416072
:1052400010230360C8204FF4E47140F23A22FFF0CB
:10525000BFFAFFE79DF8760038B1FFE7BDF87400AC
:10526000BDF87210FEF768FDFFE722B010BD000028
:1052700080B586B005904EF24860C0F60000FEF79B
:10528000C7FE4EF20C52C0F60002282002904821C0
:105290000091FEF009FD00994EF27942C0F600023D
:1052A0004FF4CD700390FEF0FFFC02984EF287623F
:1052B000C0F60002B6210191FEF0F6FC01990398B8
:1052C0004EF27862C0F60002FEF0EEFC02984EF25A
:1052D0009552C0F600024FF492710491FEF0E4FC86
:1052E000039804994EF2B452C0F60002FEF0DCFCC2
:1052F0000598FFF001FD06B080BD00000000000031
:1053000080B588B084460B98DDF828E0ADF81EC063
:10531000ADF81C10ADF81A20ADF81830ADF8160035
:105320000A9808B9FFE786E0BDF81E00ADF8140042
:10533000BDF81E00BDF81A100844ADF81200BDF803
:105340001C00BDF818100844ADF81000FFE70A98DB
:1053500001780020029061B1FFE7BDF81C00103019
:1053600081B2BDF8102000209142D8BF01200290E8
:10537000FFE70298C00700285DD0FFE70A98411CAC
:105380000A9100788DF80F009DF80F000D2801D1CB
:10539000FFE7DCE79DF80F000A280AD1FFE7BDF818
:1053A0001400ADF81E00BDF81C001230ADF81C0052
:1053B000CDE7BDF81E00083080B2BDF8121088425B
:1053C00014DDFFE7BDF81400ADF81E00BDF81C00A9
:1053D0001230ADF81C00BDF81C00103080B2BDF8D2
:1053E0001010884201DDFFE725E0FFE79DF80F0080
:1053F000202805DBFFE79DF80F007F2804DBFFE78F
:105400002E208DF80F00FFE7BDF81E00BDF81C1020
:105410009DF80F20BDF81630EC46CCF8043001237F
:10542000CCF80030102302F1A3FEBDF81E000830B6
:10543000ADF81E008BE708B080BD00000000000042
:1054400010B58AB08C4686460D980C99ADF826E0CA
:10545000ADF824C008928DF81F308DF81E10ADF8FD
:105460001C009DF81F000B2804D3FFE70A208DF8CD
:105470001F00FFE79DF81F200DF111010020885447
:105480009DF81F008DF81000FFE79DF8100008B38D
:10549000FFE708984CF6CD41CCF6CC41A0FB013299
:1054A000D20802EB8202A0EB420040F030009DF8EF
:1054B00010200DF111031A4402F8010C0898A0FB0A
:1054C0000110C0080890FFE79DF8100001388DF822
:1054D0001000DAE7BDF82600BDF824109DF81F2063
:1054E0009DF81E305A435208BDF81CE0EC46CCF83B
:1054F00008E00DF1110ECCF804E0CCF80030FFF01C
:1055000067F90AB010BD000010B58AB084460C9847
:10551000ADF826C0ADF8241008928DF81F30ADF814
:105520001C000A208DF8100000208DF81B00FFE7FA
:105530009DF8100001388DF8100008984CF6CD4108
:10554000CCF6CC41A0FB0132D20802EB8202A0EBE8
:10555000420040F030009DF810300DF11102D0549F
:105560000898A0FB0110C0080890FFE708990020E8
:10557000039039B1FFE79DF81000002818BF012003
:105580000390FFE70398C0070028D1D1FFE7BDF8DB
:105590002600BDF824109DF810E0CEF10A029DF817
:1055A0001F305A430DF1110CE644BDF81C40EC4687
:1055B000CCF80840CCF804E0CCF80030C2F34F023D
:1055C000FFF006F90AB010BD80B582B001F000FE10
:1055D00001F16EFBA02001F04FFE01F1B1FB8DF84F
:1055E000070001F18DFB9DF80700B0FA80F040093B
:1055F00002B080BD0000000080B501F0E9FD80BD73
:1056000080B582B0ADF80600002000908DF805004E
:1056100001F14EFB9DF80710A02000EB4100C0B245
:1056200001F02AFE01F18CFB9DF8060001F024FE3A
:1056300001F186FB01F13CFBA12001F01DFE01F10F
:105640007FFB009801F1E8FA8DF8050001F158FBA5
:105650009DF8050002B080BD80B584B0ADF80E00A5
:105660000291ADF80620FFE7BDF80600411EADF837
:10567000061078B1FFE7BDF80E000299097800F036
:105680000BF8BDF80E000130ADF80E0002980130A5
:105690000290E9E704B080BD80B582B0ADF80600A5
:1056A0008DF8051001F104FB9DF80710A02000EB18
:1056B0004100C0B201F0E0FD01F142FB9DF806009F
:1056C00001F0DAFD01F13CFB9DF8050001F0D4FD8D
:1056D00001F136FB01F114FB0A20FFF0A5FE02B038
:1056E00080BD00000000000080B584B002900191F0
:1056F00002990020C87002994FF0FF30C8620298EA
:10570000019905F0C5F820B1FFE704208DF80F00DE
:1057100042E0029800F22E2002F19EFE4AF6552148
:10572000884204D0FFE703208DF80F0034E0029890
:1057300090F83000E9280CD0FFE7029890F830008C
:10574000EB2806D0FFE7029890F83000E8281FD138
:10575000FFE7029866304EF69C21C0F61001032246
:1057600005F04AF820B9FFE700208DF80F0013E09C
:10577000029882304EF69621C0F61001052205F0FF
:105780003BF820B9FFE700208DF80F0004E0FFE7A9
:1057900002208DF80F00FFE79DF80F0004B080BDD8
:1057A00083B0019000910098023800900098019910
:1057B00049690239884203D3FFE70020029007E0DD
:1057C0000198826A4089009900FB01200290FFE75E
:1057D000029803B07047000080B58AB00890079126
:1057E00007980068019008982030059005982021BE
:1057F0000B2203F1F5F90020029003900820049099
:10580000FFE7019803994A1C0392405C8DF81B0046
:105810009DF81B00202801DCFFE7A4E09DF81B0099
:105820002F2805D0FFE79DF81B005C281BD1FFE760
:10583000FFE701980399415C01202F29009009D0CE
:10584000FFE701980399405C5C38B0FA80F04009AA
:105850000090FFE70098C00720B1FFE703980130F0
:105860000390E6E77FE09DF81B002E2805D0FFE7B8
:1058700002980499884212D3FFE704980B2805D0B8
:10588000FFE79DF81B002E2804D0FFE706208DF8C7
:1058900027008AE0082002900B200490B1E79DF8D1
:1058A0001B0080280CDBFFE79DF81B0000F07F0148
:1058B0004DF6D430C0F60000405C8DF81B00FFE7C9
:1058C0009DF81B00FFF0A0FD30B3FFE7019803999E
:1058D0004A1C0392405C8DF81A009DF81A0000F0F3
:1058E00003F930B1FFE7029804990139884204D3E3
:1058F000FFE706208DF8270057E09DF81B0005996B
:10590000029A531C029388549DF81A000599029A32
:10591000531C0293885425E09DF81B104EF6A020DE
:10592000C0F61000FFF030FB20B1FFE706208DF835
:1059300027003AE09DF81B0061280BDBFFE79DF88C
:105940001B007A2806DCFFE79DF81B0020388DF845
:105950001B00FFE79DF81B000599029A531C029358
:105960008854FFE74DE701980399084407990860B8
:10597000029820B9FFE706208DF8270015E005986A
:105980000078E52804D1FFE7059905200870FFE7B6
:105990009DF81B10002021290146B8BF0121890074
:1059A000059AD1728DF82700FFE79DF827000AB00D
:1059B00080BD00000000000080B584B0FFE744F225
:1059C000E041C5F60201086840F080000860FFE78A
:1059D000FFE744F2E041C5F60201086840F4807038
:1059E0000860FFE76846012303934360036041F6C4
:1059F0000040C5F6020040211A4606F06DF9039BEF
:105A000068464360036042F20000C5F602000821C8
:105A10001A4606F061F900F043F804B080BD0000BA
:105A200080B584B08DF80F0000208DF80E00FFE7E0
:105A30009DF80E00072829DCFFE79DF80F00C2093A
:105A400042F20000C5F60200082104F12DF9FFF032
:105A5000EFFB41F60040C5F60200019040210291A3
:105A6000012204F121F9FFF0E3FB019802990022E1
:105A700004F11AF99DF80F0040008DF80F00FFE7C0
:105A80009DF80E0001308DF80E00D1E742F20000C3
:105A9000C5F602000821012204F106F904B080BD18
:105AA00080B584B042F20000C5F6020001900821E2
:105AB0000291002204F1F8F8FFF0BAFB41F6004031
:105AC000C5F6020040210122039204F1EDF8FFF037
:105AD000AFFB01980299039A04F1E6F8FFF0A8FBE6
