:020000040800F2
:10000000100C0224ED03000801040008030400089A
:10001000190F100807040008090400080000000078
:10002000000000000000000000000000610A00085D
:100030000D04000800000000F9090008810A00080A
:100040001304000813040008130400081304000834
:100050001304000813040008130400081304000824
:100060001304000813040008130400081304000814
:100070001304000813040008130400081304000804
:1000800013040008130400081304000813040008F4
:1000900013040008130400081304000813040008E4
:1000A00013040008130400081304000813040008D4
:1000B00013040008130400081304000813040008C4
:1000C00013040008130400081304000813040008B4
:1000D00013040008C90A00081304000813040008E8
:1000E00013040008130400080000000013040008B3
:1000F0001304000813040008130400081304000884
:100100001304000813040008130400081304000873
:100110001304000813040008130400081304000863
:100120001304000813040008130400081304000853
:100130001304000813040008130400081304000843
:1001400000000000000000000000000000000000AF
:100150001304000813040008130400081304000823
:100160001304000813040008130400081304000813
:100170001304000813040008130400080000000022
:1001800013040008130400081304000813040008F3
:1001900013040008130400081304000813040008E3
:1001A00013040008130400081304000813040008D3
:1001B00013040008130400081304000813040008C3
:1001C00013040008130400081304000813040008B3
:1001D00013040008130400081304000813040008A3
:1001E0001304000813040008130400081304000893
:1001F0001304000813040008130400081304000883
:100200001304000813040008130400081304000872
:100210001304000813040008130400081304000862
:100220001304000813040008130400080000000071
:100230001304000813040008000000001304000861
:100240001304000813040008130400081304000832
:100250001304000813040008130400081304000822
:100260001304000813040008130400081304000812
:100270001304000813040008130400080000000021
:100280001304000813040008130400080000000011
:10029000000000001304000800F002F8FFF0B2FEB6
:1002A00014A696E8000CB244B344DA4501D1FFF03D
:1002B000A9FEBAE80F000FA696E83000A5EB0405EA
:1002C00004EB0607AAEB0704A7F101074FEA15158F
:1002D0004FEA3414A4F10104AC4201D3FFF092FEC2
:1002E00013F0010F18BFFB1A43F0010300F001F8EF
:1002F000DBE718479C880000BC880000103A24BF48
:1003000078C878C1FAD8520724BF30C830C144BF7A
:1003100004680C6070470000704700000023002450
:1003200000250026103A28BF78C1FBD8520728BF05
:1003300030C148BF0B6070476E2907F043877029B2
:1003400000F0F581662907F03F87652907F03C87B3
:10035000672907F03987612907F0388703681B0A86
:1003600028BF41F08001692907F03287642907F02E
:100370002F87752907F02C876F2907F02B8778299D
:1003800000F0C181E92900F05581E42900F0528193
:10039000F52900F04F81EF2907F01E87F82900F0BA
:1003A000C0810368DB0928BF41F08001632900F0A8
:1003B0009782732900F09C82E32907F00F87F329C5
:1003C00007F00E87002070471FB505F1D3FC00F140
:1003D0003BFC04000020002105F1B6FC401C6060DD
:1003E0000020002107F002FFE0601FBDDFF83000B1
:1003F000016841F470010160BFF34F8F0948004765
:10040000FEE7FEE7FEE7FEE7FEE7FEE7FEE7FEE7C4
:10041000FEE7FEE704480549034A054B7047000024
:1004200088ED00E09902000810040224100C022458
:10043000100402240FB4044910B503AA0298FFF077
:100440001DFF10BC5DF814FBC0000024032A40F21D
:10045000308010F0030C00F0158011F8013BBCF166
:10046000020F624498BF11F801CB00F8013B38BF7E
:1004700011F8013BA2F1040298BF00F801CB38BF8C
:1004800000F8013B11F0030307F0AC86083AC0F016
:10049000088051F8043B083A51F804CBA0E8081052
:1004A000F5E7121D5CBF51F8043B40F8043BAFF385
:1004B0000080D20724BF11F8013B11F801CB48BFDF
:1004C00011F8012B24BF00F8013B00F801CB48BF15
:1004D00000F8012B704770B5044685690068C106B5
:1004E00001D5302600E02026C00707D070BDD4E932
:1004F000012130469047206A401C20626D1EF6D5CF
:1005000070BD70B5044685690078C00707D170BD1D
:10051000D4E9012120209047206A401C20626D1EF2
:10052000F6D570BD09684A0501D540B27047C905C6
:10053000FCD500B2704709684A0501D5C0B27047C2
:10054000C905FCD580B2704701694A1C0261087870
:10055000704700B58FB0CDE9013100210591054903
:100560007944CDE903101146684600F0EBF80FB06E
:1005700000BD0000E5FFFFFF2DE9FF5F15468A463D
:100580000446DFF8AC80F8440027D8E900103E4666
:10059000CDE9001010E03AF816106A4602A800F003
:1005A000ABF9411C07D02178890603D5E2693918D7
:1005B00091420DD80744761C2078800602D5E06968
:1005C000B84205DDAE42E6DB3AF816000028E2D17B
:1005D000A069C01BA0612046FFF77DFFD8E900108D
:1005E000CDE90010002017E03AF818106A4602A87A
:1005F00000F082F9B0F1FF3F81460BD000250DF1EC
:10060000080B05E0D4E901211BF8050090476D1C9B
:100610004D45F7D308F10100B0428046E4DB206A83
:10062000384420622046FFF76CFFBDE8FF9F0000C2
:100630000E5810002DE9F0418046D21D22F007022D
:100640000025D2E90002F52915A614D0011E72F189
:10065000000106DA0023D0EB030063EB020211A6CF
:1006600008E0D8F800108B0701D50FA602E0490773
:1006700001D50EA601251146002408F1240704E047
:10068000FFF078FE30323A55641C50EA0102F7D18F
:100690002B46324621464046BDE8F041FFF0AFBE52
:1006A000000000002D0000002B00000020000000D2
:1006B000F0B40D460188090502D5214C7C4402E0C6
:1006C0001F4C7C440E34002100F1240608E002F0A7
:1006D0000F071209E75D42EA03721B097754491CB0
:1006E00052EA0307F3D102780023120704D5702DD4
:1006F00006D009B1022311342246F0BCFFF07FBEC0
:1007000001231034F8E770B504460D462146106801
:10071000FFF711FF024629462046BDE8704000233E
:10072000C6E7D21D22F00703D3E90023C0E7036820
:10073000126843F0200303600823C3610023B7E776
:10074000587B00002DE9F05F894604464FF0000A0F
:10075000DFF874B1FB44C0F820A02046E168884768
:10076000002874D0252806D0D4E901219047206ABA
:10077000401C2062F1E700265F462046E16888477A
:100780002028054607DB312D05D2781910F8200CFA
:1007900008B10643F1E7B00701D526F00406C4F816
:1007A0001CA00027C4F818A02A2D09D0284605F15E
:1007B000C3FA38B304EB8708303DC8F8185019E085
:1007C00059F8041B204604EB87029161E1688847D1
:1007D000012F054618D1E069002820DA26F020060E
:1007E0001DE0D8F8180000EB800005EB4000303821
:1007F000C8F818002046E1688847054605F19CFACC
:100800000028EED1012F0AD02E2D08D12046E16814
:1008100088477F1C0546022F46F02006C4DBA069EE
:10082000002803DA404246F00106A061F00701D03B
:1008300026F010066C2D0BD0682D09D04C2D39D028
:100840006A2D35D0742D35D07A2D33D016E038E0AE
:10085000E1682F4620468847B842054609D16C2FEB
:1008600026D04FF48060E16806432046884705465D
:1008700004E06C2F1AD04FF4807006430DB3A5F13D
:100880004100192802D8203546F400664A46294618
:10089000204626604E46FFF74FFD80B101280BD061
:1008A000F61D26F0070000F1080956E74020E4E7AE
:1008B0008020D8E70020D6E706F104094DE7284656
:1008C00052E7206ABDE8F09F4856100010B5436912
:1008D00013B1AFF3008001E0FFF050FC012010BD28
:1008E000127800F124010A7000224A700122EDE71B
:1008F00011684FF0FF32E9E72DE9F04116460C464A
:10090000054600F01DF8036893F80101012807D09F
:10091000FF2C12D8185D80B101202C70BDE8F08149
:10092000D3F807013246214603F20713C7182846B9
:10093000BC46BDE8F041002360474FF0FF30EDE7D3
:1009400010B500F181F9001D10BD00BFFD5310006E
:1009500010B50446AFF300802046BDE81040FFF01C
:100960005ABB00000000000080B584B00390FFE790
:1009700040F22C10C2F20040006869464FF0FF328E
:1009800006F012FF012835D1FFE79DF80000D0B92D
:10099000FFE7BDF8020040F2B221884213D3FFE71F
:1009A000BDF80400B0F5E07F0DD3FFE740F2291059
:1009B000C2F20040007840F20801C2F2004109682A
:1009C00000F1A6FC15E09DF8000028B1FFE79DF8B6
:1009D000000001280CD1FFE7BDF80200BDF80410AB
:1009E00048F6AC12C0F61002128800F091FAFFE748
:1009F000FFE7FFE7BCE70000EFF30980BFF36F8F6D
:100A0000154B1A681EF0100F08BF20ED108A20E960
:100A1000F04F10602DE909004FF0500072B680F3DE
:100A20001188BFF34F8FBFF36F8F62B604F194F953
:100A30004FF0000080F31188BDE8090019680868CC
:100A4000B0E8F04F1EF0100F08BFB0EC108A80F332
:100A50000988BFF36F8F7047300200240000000048
:100A6000064B19680868B0E8F04F80F30988BFF3B7
:100A70006F8F4FF0000080F3118870473002002420
:100A800080B582B04FF0500072B680F31188BFF38A
:100A90006F8FBFF34F8F62B6009004F1B1FC40B18D
:100AA000FFE74EF60451CEF200014FF0805008608F
:100AB00000E0FFE700200190019880F3118802B068
:100AC00080BD00000000000081B041F21C00C4F2B3
:100AD00001000068800600285DD5FFE741F2240090
:100AE000C4F2010000688DF8030040F2F810C2F271
:100AF00000404078000600284CD4FFE740F2F81090
:100B0000C2F2004000884004002816D5FFE79DF897
:100B100003000A2807D0FFE740F2F811C2F20041B3
:100B20000020088008E040F2F811C2F20041088875
:100B300040F400400880FFE72BE09DF803000D28FB
:100B400009D1FFE740F2F811C2F20041088840F4F1
:100B5000804008801CE09DF8031040F2F810C2F2BB
:100B6000004003886FF39F3340F23012C2F200421C
:100B7000D1540188013101800088C82807DBFFE7D4
:100B800040F2F811C2F2004100200880FFE7FFE7C1
:100B9000FFE7FFE7FFE741F22001C4F20101086827
:100BA00040F00800086001B070470000000000003D
:100BB00080B584B0ADF80E000291ADF80620FFE7D5
:100BC000BDF80600411EADF8061060B1FFE7BDF8A4
:100BD0000E00411CADF80E1000F00AF802994A1CF4
:100BE00002920870ECE704B080BD00000000000035
:100BF00080B582B0ADF80600002000908DF80500A9
:100C000000F176FE9DF80710A02000EB4100C0B275
:100C100001F056F801F0B4F89DF8060001F050F824
:100C200001F0AEF800F164FEA12001F049F801F0F6
:100C3000A7F8009800F0F8FF8DF8050001F080F8A3
:100C40009DF8050002B080BD80B582B08DF8070028
:100C500000F156FA9DF8070000F08AF800F17CFADE
:100C60008DF8060000F0C4F89DF8060002B080BDC3
:100C700080B584B0FFE744F2E041C5F602010868A0
:100C800040F080000860FFE7FFE744F2E041C5F66E
:100C90000201086840F480700860FFE7684601239D
:100CA00003934360036041F60040C5F60200402113
:100CB0001A4605F0F1FF039B68464360036042F269
:100CC0000000C5F6020008211A4605F0E5FF00F015
:100CD0008FF804B080BD000080B582B08DF80700A9
:100CE00000208DF805008DF80600FFE79DF806004E
:100CF00007282FDCFFE79DF8050040008DF8050070
:100D000041F60040C5F602004021012205F0A8FF8F
:100D100000F1CAF942F20000C5F60200082105F010
:100D200087FF30B1FFE79DF8050001308DF8050021
:100D3000FFE741F60040C5F602004021002205F021
:100D40008FFF00F1B1F9FFE79DF8060001308DF843
:100D50000600CBE79DF8070018B9FFE700F1ACF9F2
:100D600002E000F175F9FFE79DF8050002B080BDD3
:100D700080B584B08DF80F0000208DF80E00FFE7DD
:100D80009DF80E00072829DCFFE79DF80F00C20937
:100D900042F20000C5F60200082105F061FF00F1F3
:100DA00083F941F60040C5F602000190402102910E
:100DB000012205F055FF00F177F901980299002210
:100DC00005F04EFF9DF80F0040008DF80F00FFE783
:100DD0009DF80E0001308DF80E00D1E742F20000C0
:100DE000C5F602000821012205F03AFF04B080BDDB
:100DF00080B584B042F20000C5F6020001900821DF
:100E00000291002205F02CFF00F14EF941F600405E
:100E1000C5F6020040210122039205F021FF00F1F6
:100E200043F901980299039A05F01AFF00F13CF981
:100E300004B080BD0000000081B0ADF802004EF2A9
:100E40001001CEF20001086840F004000860BDF80F
:100E5000020040F21812C2F200421060086840F02E
:100E6000010008604EF21401CEF200016FF07040F4
:100E7000086001B07047000080B582B0ADF8060090
:100E8000BDF806004FF47A71484300F1ADF902B0A5
:100E900080BD00000000000080B584B00020ADF8E7
:100EA0000E00FFE7BDF80E0007282CDCFFE7BDF8B9
:100EB0000E004FF448714843C008ADF80C00BDF86F
:100EC0000E00484300F548714FF0FF3000EBD100B1
:100ED000ADF80A00BDF80C00BDF80A20BDF80E30D0
:100EE00048F2BE61C0F6000131F813106B4619607C
:100EF0004821BF2303F014F9FFE7BDF80E000130CD
:100F0000ADF80E00CEE704B080BD00000000000088
:100F100080B58CB0ADF82E00ADF82C10ADF82A20BD
:100F2000BDF82E004009182806D8FFE7BDF82C00B0
:100F3000B0F5E07F01D3FFE76EE0BDF82E00BDF80D
:100F40002C10BDF82A30052203F04EF9BDF82E0012
:100F50000B2805D3FFE7BDF82E000A38099002E000
:100F600000200990FFE709980790BDF82C00089031
:100F7000BDF82E000A304009182805D8FFE7BDF853
:100F80002E000A30069003E040F21F300690FFE783
:100F900008990798069ABDF82C30BDF82AC0EE468D
:100FA000CEF800C080B289B292B201F089F8BDF8E3
:100FB0002E000590BDF82C000B2805D3FFE7BDF8E7
:100FC0002C000A38049002E000200490FFE7049807
:100FD0000290BDF82E000390BDF82C000A304009A5
:100FE0000E2805D8FFE7BDF82C000A30019003E079
:100FF00040F2DF100190FFE7039A02990598019BE8
:10100000BDF82AC0EE46CEF800C080B289B292B2D6
:101010009BB201F055F8FFE70CB080BD0000000066
:1010200082B001900091FFE741F21C00C4F2010080
:1010300000684006002801D4FFE7F5E79DF80400AA
:1010400041F22801C4F201010860019802B0704722
:1010500080B58AB0FFE744F2E041C5F602010868B6
:1010600040F480700860FFE7FFE744F2E041C5F616
:101070000201086840F080000860FFE7684601222E
:1010800008924260026042F20000C5F6020006903B
:101090004FF4807107910023059305F0FDFD059B3A
:1010A000089869464860086041F60040C5F60200AD
:1010B00080211A4605F0F0FDFFF7DAFD059A069843
:1010C000079905F0CDFD1420FFF7D6FE0698079985
:1010D000089A05F0C5FD3220FFF7CEFE7020FFF71D
:1010E000B3FD50B1FFE748F6BF10C0F60000FFF7B0
:1010F000A1F901208DF8270050E000208DF825008F
:101100000DF1250104910122039200F08DF9039A5B
:101110000499A42000F088F9039A049916208DF808
:101120002500802000F080F9039A04990C208DF8A6
:101130002500882000F078F90499A120022200F10E
:10114000ABFA9DF82500302805D1FFE79DF8260071
:10115000032812D0FFE79DF8260001280DD0FFE7F5
:101160009DF82600022808D0FFE79DF8250088B9E1
:10117000FFE79DF8260068B9FFE7BDF8250041BAF2
:1011800048F6DF10C0F60000FFF754F900208DF894
:10119000270003E001208DF82700FFE79DF82700D6
:1011A0000AB080BD0000000080B584B08DF80F004B
:1011B00000208DF80E008DF809008DF8080040F22F
:1011C0001410C2F20040017801310170007849F634
:1011D0009812C1F699124CF6CD41CCF6CC4100FBE9
:1011E00001204FEA700049F69911C1F69911884221
:1011F00009D3FFE740F21410C2F20040007809283A
:1012000000F3D980FFE702200DF10E01012200F169
:1012100043FA9DF80E000007002800F0CB80FFE79E
:101220009DF80E0000F00F00052800F3C380FFE7D3
:101230009DF80E0000F00F014FF6FF708840ADF8EA
:101240000600BDF806104FF4404060EA010040F28D
:101250001001C2F2004188860420FFF70DFE002035
:101260008DF80900FFE79DF80900042800F3868047
:10127000FFE740F21000C2F20040808E9DF8091096
:10128000C840C007002872D0FFE79DF8091048F257
:101290004020C0F6000030F811000DF10A010422D0
:1012A00000F1FAF940F21000C2F2004090F8440058
:1012B000C007F8B1FFE79DF80A109DF80B0001F098
:1012C0000F0140EA01209DF8092040F21001C2F20E
:1012D000004101EB420210849DF80C209DF80D00A6
:1012E00002F00F0240EA02209DF8092001EB4201C2
:1012F000888124E040F2FC10C2F2004000889DF892
:101300000A209DF80B1002F00F0241EA0221401A58
:101310009DF8092040F21001C2F2004101EB4202A7
:1013200090819DF80C209DF80D0002F00F0240EA1C
:1013300002209DF8092001EB42010884FFE79DF897
:101340000A0000F0F000802810D0FFE79DF80900A7
:1013500040F21001C2F2004101EB40020020108473
:101360009DF8092001EB42018881FFE7FFE7FFE7D5
:101370009DF8090001308DF8090074E701208DF80F
:10138000080040F21000C2F20040808958B9FFE71F
:1013900040F21000C2F20040008C20B9FFE70020AC
:1013A0008DF80E00FFE740F21411C2F20041002058
:1013B0000870FFE7FFE79DF80E00C00600BBFFE7DF
:1013C00040F21000C2F20040808E0004002809D5CF
:1013D000FFE740F21001C2F20041888E6FF3DF3068
:1013E00088860CE040F21001C2F200414FF6FF7017
:1013F00088810884888E00F460408886FFE7FFE7D4
:1014000040F21410C2F200400078F12807DBFFE739
:1014100040F21411C2F200410A200870FFE79DF863
:10142000080004B080BD000080B584B0ADF80E00A7
:1014300002918DF80720002000908DF80500FFF044
:101440005FFE7020FFF794FCFFF086FE9DF80E0013
:10145000FFF78EFCFFF080FE00988DF80600FFE796
:101460009DF806009DF80710884216DAFFE70298FB
:101470009DF80610405CFFF77BFCFFF06DFE8DF8D9
:1014800005009DF8050008B1FFE706E0FFE79DF8BD
:10149000060001308DF80600E2E7FFF7A9FC9DF891
:1014A000050004B080BD000080B58CB0FFE744F2B9
:1014B000E041C5F60201086840F480700860FFE76B
:1014C000FFE744F2E041C5F60201086840F0800001
:1014D0000860FFE76846012209924260026042F21A
:1014E0000000C5F602004FF48071002305F0D4FB24
:1014F000FFF7BEFB0998282100F166F998B9FFE7CC
:1015000040F20D01C2F200412820087040F20C01A7
:10151000C2F200412920087048F61220C0F60000EF
:10152000FEF788FF28E048F65020C0F60000FEF7DE
:1015300081FF0020BA2100F147F950B1FFE748F6DA
:101540007020C0F60000FEF775FF01208DF82F0017
:1015500077E040F20D01C2F20041BA20087040F27B
:101560000C01C2F20041BB20087048F63120C0F6E1
:101570000000FEF75FFFFFE748F240100DF12A017F
:101580000891042200F1D0F8DDF820E000208DF869
:101590002E009DF82A109DF82B209DF82C309DF8E8
:1015A0002D00EC46CCF804E0CCF8000048F6902082
:1015B000C0F60000FEF73EFF089800F049F850B969
:1015C000FFE748F6EB10C0F60000FEF733FF0120FE
:1015D0008DF82F0035E048F6C020C0F600000DF170
:1015E0002A010791FEF726FF079848F6CC21C0F69E
:1015F0000001FEF081FD38B9FFE740F20E01C2F2B2
:1016000000410A200870FFE702208DF82A0048F206
:10161000400003900DF12A0104910122059200F08F
:101620005BFA0A20FFF728FC03980499059A002327
:1016300006938DF82A3000F04FFA06988DF82F00A7
:10164000FFE79DF82F000CB080BD000000000000F7
:1016500083B0019000208DF802008DF80300FFE7B1
:101660009DF80300032825D8FFE701989DF8031093
:10167000405C08B9FFE71DE001989DF80310405C4D
:10168000202807D3FFE701989DF80310405C7F28CE
:1016900004D3FFE700208DF80B0014E09DF8020052
:1016A00001308DF80200FFE79DF8030001308DF84E
:1016B0000300D5E79DF802100020022988BF012011
:1016C0008DF80B00FFE79DF80B0003B0704700009A
:1016D00080B584B08DF80F0000208DF80A008DF8D9
:1016E000090040F2FA10C2F20040017801310170A5
:1016F000007849F69812C1F699124CF6CD41CCF615
:10170000CC4100FB01204FEA700049F69911C1F667
:101710009911884209D3FFE740F2FA10C2F2004063
:101720000078092800F39C81FFE748F24E100DF184
:101730000F010122FFF0F8FF9DF80F0000060028BE
:1017400017D5FFE79DF80F0000F00F0040F20E01E3
:10175000C2F20041097888420BDCFFE700208DF8D7
:101760000A0048F24E100DF10A01012200F0B4F90E
:10177000FFE79DF80F000007002800F07081FFE7E9
:101780009DF80F0000F00F0040F20E01C2F2004180
:101790000978884200F36381FFE79DF80F0000F0AD
:1017A0000F014FF6FF708840ADF8060040F21001BF
:1017B000C2F20041888EADF80400BDF806204FF457
:1017C000404060EA020088860B4633F80C0F40F276
:1017D0000E02C2F2004292F800C003EB4C0323F861
:1017E000020C31F8200F127801EB420121F8020CB3
:1017F00000208DF80A00FFE79DF80A0040F20E0174
:10180000C2F200410978884280F2CE80FFE740F2C0
:101810001000C2F20040808E9DF80A10C840C00738
:10182000002800F0BA80FFE79DF80A1045F66C60CA
:10183000C0F6100030F811000DF10B010422FFF08A
:1018400073FF40F2FC10C2F20040808845F2105154
:10185000884214D0FFE740F2FC10C2F200408088BA
:1018600049F6060188420AD0FFE740F2FC10C2F2B6
:101870000040808847F29671884246D1FFE740F2E7
:101880001000C2F2004090F84400C00708B3FFE720
:1018900040F2FC10C2F2004000889DF80D109DF847
:1018A0000E2041EA0221401A9DF80A2040F2100160
:1018B000C2F2004101EB420290819DF80B009DF8BD
:1018C0000C2040EA02209DF80A2001EB4201088426
:1018D0001AE09DF80B009DF80C1040EA01209DF8DD
:1018E0000A2040F21001C2F2004101EB4202908155
:1018F0009DF80D009DF80E2040EA02209DF80A2078
:1019000001EB42010884FFE746E040F21000C2F21A
:10191000004090F84400C007D8B1FFE79DF80B00E5
:101920009DF80C1040EA01209DF80A2040F21001B9
:10193000C2F2004101EB420290819DF80D009DF83A
:101940000E2040EA02209DF80A2001EB42010884A3
:1019500021E040F2FC10C2F2004001889DF80D0029
:101960009DF80E2040EA0220C04308449DF80A205A
:1019700040F21001C2F2004101EB420290819DF859
:101980000B009DF80C2040EA02209DF80A2001EB94
:1019900042010884FFE7FFE7FFE7FFE79DF80A0041
:1019A00001308DF80A0027E701208DF8090040F288
:1019B0001000C2F20040808940F2FC11C2F20041E6
:1019C000098888420DDCFFE740F21000C2F20040B7
:1019D000008C40F2FC11C2F200414988884236DD99
:1019E000FFE79DF80F0000F00F0002280FDBFFE774
:1019F00040F21001C2F20041C8898881488C0884F5
:101A000040F2FA11C2F20041002008701EE040F2DC
:101A10000E00C2F20040037840F21001C2F2004111
:101A200001F10C0202EB430232F8022C8A810278A7
:101A300001F1200000EB420030F8020C0884802005
:101A40008DF80F00BDF804008886FFE706E040F23D
:101A5000FA11C2F2004100200870FFE7FFE7FFE73C
:101A60009DF80F0000F08F00802820D1FFE740F2A2
:101A70001000C2F20040808E0004002809D5FFE764
:101A800040F21001C2F20041888E6FF3DF30888689
:101A90000CE040F21001C2F200414FF6FF70888165
:101AA0000884888E00F460408886FFE7FFE740F2F4
:101AB000FA10C2F200400078F12807DBFFE740F29D
:101AC000FA11C2F200410A200870FFE79DF80900F0
:101AD00004B080BD0000000080B584B0ADF80E00F9
:101AE00002918DF80720002000908DF80500FFF08E
:101AF00007FB40F20D00C2F200400078FFF738F912
:101B0000FFF02AFB9DF80F00FFF732F9FFF024FBEE
:101B10009DF80E00FFF72CF9FFF01EFB00988DF8E2
:101B20000600FFE79DF806009DF80710884216DAC8
:101B3000FFE702989DF80610405CFFF719F9FFF0E7
:101B40000BFB8DF805009DF8050008B1FFE706E0E6
:101B5000FFE79DF8060001308DF80600E2E7FFF789
:101B600047F99DF8050004B080BD000000000000AA
:101B700080B586B041F60040C5F6020003902021F2
:101B800004910022029205F06BF8FFF089FE0398A1
:101B9000102101910122059205F062F8FFF080FE0C
:101BA0000199029A039805F05BF8FFF079FE03981B
:101BB0000499059A05F054F8FFF072FE06B080BD56
:101BC00080B584B0FFE744F2E041C5F60201086841
:101BD00040F080000860FFE7FFE744F2E041C5F60F
:101BE0000201086840F080000860FFE768460122B3
:101BF00003924260026041F60040C5F60200029086
:101C00001021002305F048F80298039B69464B60B9
:101C10000B6020211A4605F03FF800F091F804B05F
:101C200080BD00000000000080B582B08DF8070084
:101C300000208DF805008DF80600FFE79DF80600EE
:101C400007282DDCFFE79DF8050040008DF8050012
:101C500041F60040C5F6020000901021012204F078
:101C6000FFFFFFF01DFE0098202104F0E1FF30B1DE
:101C7000FFE79DF8050001308DF80500FFE741F60C
:101C80000040C5F602001021002204F0E9FFFFF039
:101C900007FEFFE79DF8060001308DF80600CDE74E
:101CA0009DF8070018B9FFE7FFF002FE02E0FFF71A
:101CB0005FFFFFE79DF8050002B080BD0000000057
:101CC00080B584B08DF80F0000208DF80E00FFE77E
:101CD0009DF80E00072826DCFFE79DF80F00C209DB
:101CE00041F60040C5F602000190202104F0B8FF43
:101CF000FFF0D6FD019810210291012204F0B0FFFF
:101D0000FFF0CEFD01980299002204F0A9FF9DF892
:101D10000F0040008DF80F00FFE79DF80E00013026
:101D20008DF80E00D4E741F60040C5F602002021F0
:101D3000012204F095FF04B080BD00000000000007
:101D400080B584B041F60040C5F602000190202124
:101D50000291002204F084FFFFF0A2FD01981021FF
:101D60000122039204F07CFFFFF09AFD0198029992
:101D7000039A04F075FFFFF093FD04B080BD0000EE
:101D800080B584B000208DF80F008DF80E0041F66C
:101D90000040C5F60200019020210122029204F0C9
:101DA0005FFFFFF07DFD0198029A102104F058FFBB
:101DB000FFF076FDFFE741F60040C5F60200202166
:101DC00004F036FF88B1FFE79DF80F0001308DF871
:101DD0000F009DF80F00FB2806DBFFE7FFF7B0FFC1
:101DE00001208DF80E0000E0E5E741F60040C5F661
:101DF00002001021002204F033FFFFF051FD9DF896
:101E00000E0004B080BD000080B582B08DF80700E0
:101E10009DF8070040F2FC11C2F20041887140F2C7
:101E20000C20C2F20040006888B1FFE79DF807006F
:101E300003F00AFA40F20C20C2F20040C28A40F2DB
:101E4000FC11C2F200410A80008B4880FCE09DF842
:101E50000700002840F08080FFE740F2FC10C2F24B
:101E60000040F02101804FF4A0714180808845F24C
:101E70001051884214D1FFE740F2FC11C2F2004138
:101E80004FF4305008814FF4285048814FF42C50C3
:101E900088814FF4F07008804FF44870488026E045
:101EA00040F2FC10C2F20040808841F66311884283
:101EB00011D1FFE740F2FC11C2F200412C20088151
:101EC0002B2048812A2088814FF4F07008804FF43D
:101ED000487048800AE040F2FC11C2F200412C2018
:101EE00008812A2048812B208881FFE7FFE740F204
:101EF000FC10C2F20040808845F2103188420AD0BE
:101F0000FFE740F2FC10C2F20040808847F2967171
:101F100088420BD1FFE740F2FC11C2F200414FF4BE
:101F2000A07008804FF4F0704880FFE740F2FC108A
:101F3000C2F20040808849F6060188420BD1FFE7D3
:101F400040F2FC11C2F200414FF4F07008804FF4EF
:101F500048704880FFE773E040F2FC10C2F2004096
:101F60004FF4A0710180F0214180808845F210512A
:101F7000884214D1FFE740F2FC11C2F200414FF455
:101F8000305008814FF4285048814FF42C508881FC
:101F90004FF4487008804FF4F070488030E040F211
:101FA000FC10C2F20040808841F6631188420AD0DA
:101FB000FFE740F2FC10C2F20040808849F60601BB
:101FC000884211D1FFE740F2FC11C2F200412C20FF
:101FD00008812A2048812B2088814FF4487008808E
:101FE0004FF4F07048800AE040F2FC11C2F2004168
:101FF0002C2008812A2048812B208881FFE7FFE7D9
:1020000040F2FC10C2F20040808845F21031884254
:102010000AD0FFE740F2FC10C2F20040808847F28D
:10202000967188420BD1FFE740F2FC11C2F20041E9
:102030004FF4F07008804FF4A0704880FFE7FFE78E
:10204000002002F0F1FCFFE702B080BD00000000BC
:1020500080B584B0ADF80E00ADF80C10ADF80A20D4
:10206000ADF80830BDF80A00A0B1FFE7BDF80E00DA
:1020700040F2FC11C2F20041098888420ADCFFE705
:10208000BDF80C0040F2FC11C2F2004149888842C0
:1020900001DDFFE711E0BDF80E00BDF80C30BDF822
:1020A0000A1001440139BDF80820EC46CCF80020A4
:1020B0008AB2194602F034F8FFE704B080BD000090
:1020C00080B58CB084460E98ADF82EC0ADF82C10BB
:1020D000ADF82A20ADF82830ADF826000020089091
:1020E0000790BDF82A00BDF82E10401A0690BDF8E2
:1020F0002800BDF82C10401A0590BDF82E00019064
:10210000BDF82C0000900698012803DBFFE70120B2
:1021100003900DE0069818B9FFE70020039006E051
:102120004FF0FF300390069840420690FFE7FFE72C
:102130000598012803DBFFE7012002900DE00598D8
:1021400018B9FFE70020029006E04FF0FF30029040
:10215000059840420590FFE7FFE7069805998842F9
:1021600003DDFFE70698049002E005980490FFE77E
:102170000020ADF82400FFE7BDF8240004990131E8
:10218000884233DCFFE7BDF80400BDF80010BDF85D
:10219000262000F02DF80699089808440890059923
:1021A00007980844079008980499884209DDFFE7DA
:1021B00004990898401A08900399019808440190DE
:1021C000FFE707980499884209DDFFE7049907981B
:1021D000401A07900299009808440090FFE7FFE733
:1021E000BDF824000130ADF82400C5E70CB080BD77
:1021F00080B582B0ADF80600ADF80410009240F250
:102200000C20C2F20040006840B1FFE7BDF80600B4
:10221000BDF80410009A00F13BFB0DE0BDF806008C
:10222000BDF8041000F1F8F900F1FAFA0098002165
:10223000C6F208010880FFE702B080BD0000000080
:1022400080B5CEB0ED2000F1DBFA0120219002F044
:1022500003FFFE2002F000FFEE2000F1D1FADE20A5
:1022600002F0FAFE21200B9002F0F6FEF12000F1C0
:10227000C7FA219802F0F0FEDF2000F1C1FA102029
:10228000459002F0E9FEC4202D9000F1B9FA8F20AC
:1022900002F0E2FEC620089000F1B2FA00204A9057
:1022A00002F0DAFEE220169002F0D6FE169802F056
:1022B000D3FE169802F0D0FEBF2000F1A1FAAA20AA
:1022C000419002F0C9FEB02000F19AFA0D20009072
:1022D00002F0C2FE4A9802F0BFFE009802F0BCFE77
:1022E0004A9802F0B9FE1120479002F0B5FE4A98D4
:1022F00002F0B2FE192002F0AFFE4A9802F0ACFEE6
:102300000B9802F0A9FE4A9802F0A6FE2D2002F0DA
:10231000A3FE4A9802F0A0FE3D2002F09DFE4A98DE
:1023200002F09AFE5D20269002F096FE4A9802F096
:1023300093FE269802F090FE4A9802F08DFEB1209E
:1023400000F15EFA802002F087FE4A9802F084FED7
:102350008B20109002F080FE4A9802F07DFE9620BD
:10236000019002F079FE4A9802F076FEB22000F168
:1023700047FA4A9802F070FE4A9802F06DFE022079
:10238000239002F069FE4A9802F066FE0320029054
:1023900002F062FE4A9802F05FFEB3202B9000F13B
:1023A0002FFA4A9802F058FE4A9802F055FE4A98D1
:1023B00002F052FE4A9802F04FFE4A9802F04CFE9C
:1023C0004A9802F049FE4A9802F046FE4A9802F006
:1023D00043FE4A9802F040FE4A9802F03DFE4A98B9
:1023E00002F03AFE4A9802F037FE4A9802F034FEB4
:1023F0004A9802F031FE4A9802F02EFE4A9802F006
:102400002BFE4A9802F028FE4A9802F025FE4A98D0
:1024100002F022FE4A9802F01FFE4A9802F01CFECB
:102420004A9802F019FE4A9802F016FE4A9802F005
:1024300013FEB42000F1E4F9109802F00DFE4A9862
:1024400002F00AFE019802F007FE4A9802F004FE2C
:10245000A12002F001FE4A9802F0FEFDB52000F135
:10246000CFF9239802F0F8FD4A9802F0F5FD0298A2
:1024700002F0F2FD4A9802F0EFFD0420039002F012
:10248000EBFD4A9802F0E8FDB62000F1B9F94A9850
:1024900002F0E2FD4A9802F0DFFDB7201D9000F146
:1024A000AFF94A9802F0D8FD4A9802F0D5FD3F20D6
:1024B00002F0D2FD4A9802F0CFFD5E2002F0CCFD82
:1024C0004A9802F0C9FD6420489002F0C5FD4A9880
:1024D00002F0C2FD8C2002F0BFFD4A9802F0BCFD64
:1024E000AC2002F0B9FD4A9802F0B6FDDC20309035
:1024F00002F0B2FD4A9802F0AFFD702002F0ACFD90
:102500004A9802F0A9FD902002F0A6FD4A9802F038
:10251000A3FDEB2002F0A0FD4A9802F09DFD30984B
:1025200002F09AFD4A9802F097FDB82000F168F990
:102530004A9802F091FD4A9802F08EFD4A9802F006
:102540008BFD4A9802F088FD4A9802F085FD4A9872
:1025500002F082FD4A9802F07FFD4A9802F07CFD6D
:10256000BA2000F14DF92420069002F075FD4A983A
:1025700002F072FD4A9802F06FFD4A9802F06CFD7D
:10258000C12000F13DF92020099002F065FD4A9834
:1025900002F062FD542002F05FFD4A9802F05CFDFB
:1025A000FF204B9002F058FD4A9802F055FDC220E2
:1025B0001E9000F125F90A20189002F04DFD4A986E
:1025C00002F04AFD039802F047FD4A9802F044FDEC
:1025D000C32000F115F93C20249002F03DFD4A98FB
:1025E00002F03AFD3A20469002F036FD4A9802F099
:1025F00033FD392002F030FD4A9802F02DFD3720DE
:1026000002F02AFD4A9802F027FD249802F024FDEA
:102610004A9802F021FD36200D9002F01DFD4A98E7
:1026200002F01AFD3220339002F016FD4A9802F0B3
:1026300013FD2F20049002F00FFD4A9802F00CFDCC
:102640002C204D9002F008FD4A9802F005FD29204B
:10265000499002F001FD4A9802F0FEFC2620059008
:1026600002F0FAFC4A9802F0F7FC069802F0F4FC3B
:102670004A9802F0F1FC069802F0EEFC4A9802F04B
:10268000EBFC2320379002F0E7FC4A9802F0E4FCD0
:10269000249802F0E1FC4A9802F0DEFC0D9802F06A
:1026A000DBFC4A9802F0D8FC339802F0D5FC4A983B
:1026B00002F0D2FC049802F0CFFC4A9802F0CCFC65
:1026C0004D9802F0C9FC4A9802F0C6FC499802F005
:1026D000C3FC4A9802F0C0FC059802F0BDFC4A9881
:1026E00002F0BAFC069802F0B7FC4A9802F0B4FC7B
:1026F000069802F0B1FC4A9802F0AEFC379802F05E
:10270000ABFC4A9802F0A8FC2D9800F179F8622001
:102710001A9002F0A1FC4A9802F09EFC0520179046
:1027200002F09AFC4A9802F097FC8420289002F06C
:1027300093FC4A9802F090FCF020429002F08CFC4E
:102740004A9802F089FC1820079002F085FC4A980C
:1027500002F082FCA42002F07FFC4A9802F07CFC8C
:10276000079802F079FC4A9802F076FC50204390DA
:1027700002F072FC4A9802F06FFC0C2002F06CFC34
:102780004A9802F069FC17200A9002F065FC4A980A
:1027900002F062FC952002F05FFC4A9802F05CFCBB
:1027A000F320449002F058FC4A9802F055FCE620D1
:1027B000319002F051FC4A9802F04EFCC52000F125
:1027C0001FF8339802F048FC4A9802F045FC442078
:1027D000409002F041FC4A9802F03EFC652002F075
:1027E0003BFC4A9802F038FC7620349002F034FC2E
:1027F0004A9802F031FC88203C9002F02DFC4A9867
:1028000002F02AFC0898FFF0FBFF099802F024FC74
:102810004A9802F021FC0A9802F01EFC4A9802F045
:102820001BFC219802F018FC4A9802F015FCC72006
:102830001F90FFF0E5FF4A9802F00EFC4A9802F064
:102840000BFC4A9802F008FC4A9802F005FCC820EC
:10285000FFF0D6FF4A9802F0FFFB4A9802F0FCFB1B
:102860004A9802F0F9FB4A9802F0F6FBC920FFF003
:10287000C7FF4A9802F0F0FB4A9802F0EDFB4A9835
:1028800002F0EAFB4A9802F0E7FB4A9802F0E4FB08
:102890004A9802F0E1FB4A9802F0DEFB4A9802F007
:1028A000DBFB4A9802F0D8FB4A9802F0D5FB4A9825
:1028B00002F0D2FB4A9802F0CFFB4A9802F0CCFB20
:1028C0004A9802F0C9FB4A9802F0C6FB4A9802F007
:1028D000C3FBE0201590FFF093FF16200C9002F050
:1028E000BBFB4A9802F0B8FB1C20199002F0B4FB25
:1028F0004A9802F0B1FB0B9802F0AEFB4A9802F046
:10290000ABFB0D9802F0A8FB4A9802F0A5FB46200D
:1029100002F0A2FB4A9802F09FFB52200E9002F0B8
:102920009BFB4A9802F098FB489802F095FB4A9866
:1029300002F092FB7A200F9002F08EFB4A9802F090
:102940008BFB109802F088FB4A9802F085FB9920D7
:102950003E9002F081FB4A9802F07EFBA820119085
:1029600002F07AFB4A9802F077FBB920129002F04D
:1029700073FB4A9802F070FB2D9802F06DFB4A98A9
:1029800002F06AFBCA20139002F066FB4A9802F03C
:1029900063FBD220149002F05FFB4A9802F05CFBCC
:1029A000D92002F059FB4A9802F056FB159802F024
:1029B00053FB4A9802F050FB449802F04DFB4A98B2
:1029C00002F04AFBE120FFF01BFF0C9802F044FBF1
:1029D0004A9802F041FB199802F03EFB4A9802F037
:1029E0003BFB222002F038FB4A9802F035FB0D98A1
:1029F00002F032FB4A9802F02FFB4520399002F09A
:102A00002BFB4A9802F028FB0E9802F025FB4A980F
:102A100002F022FB489802F01FFB4A9802F01CFBD0
:102A20000F9802F019FB4A9802F016FB109802F07A
:102A300013FB4A9802F010FB3E9802F00DFB4A98F7
:102A400002F00AFB119802F007FB4A9802F004FB1F
:102A5000129802F001FB4A9802F0FEFA2D9802F05B
:102A6000FBFA4A9802F0F8FA139802F0F5FA4A983D
:102A700002F0F2FA149802F0EFFA4A9802F0ECFA37
:102A8000D82002F0E9FA4A9802F0E6FA159802F026
:102A9000E3FA4A9802F0E0FA449802F0DDFA4A9824
:102AA00002F0DAFA1698FFF0ABFE179802F0D4FAAB
:102AB0004A9802F0D1FA0B2002F0CEFA4A9802F0BE
:102AC000CBFA1B2002F0C8FA4A9802F0C5FA34206B
:102AD000329002F0C1FA4A9802F0BEFA409802F031
:102AE000BBFA4A9802F0B8FA4F2002F0B5FA4A98B9
:102AF00002F0B2FA612002F0AFFA4A9802F0ACFAA2
:102B0000792002F0A9FA4A9802F0A6FA3C9802F05D
:102B1000A3FA4A9802F0A0FA97201B9002F09CFAC0
:102B20004A9802F099FAA6201C9002F095FA4A9869
:102B300002F092FA1D9802F08FFA4A9802F08CFA8D
:102B40001E9802F089FA4A9802F086FA1F9802F05D
:102B500083FA4A9802F080FAD120209002F07CFAA1
:102B60004A9802F079FAD62002F076FA4A9802F0F2
:102B700073FADD20229002F06FFA4A9802F06CFAA4
:102B8000449802F069FA4A9802F066FAE320FFF0EE
:102B900037FE179802F060FA4A9802F05DFA18982A
:102BA00002F05AFA4A9802F057FA199802F054FAC9
:102BB0004A9802F051FA3320389002F04DFA4A98C0
:102BC00002F04AFA409802F047FA4A9802F044FAB2
:102BD000439802F041FA4A9802F03EFA1A9802F03D
:102BE0003BFA4A9802F038FA782002F035FA4A980F
:102BF00002F032FA3C9802F02FFA4A9802F02CFACE
:102C00001B9802F029FA4A9802F026FA1C9802F062
:102C100023FA4A9802F020FA1D9802F01DFA4A9809
:102C200002F01AFA1E9802F017FA4A9802F014FA03
:102C30001F9802F011FA4A9802F00EFA209802F05A
:102C40000BFA4A9802F008FAD52002F005FA4A98E1
:102C500002F002FA229802F0FFF94A9802F0FCF919
:102C6000449802F0F9F94A9802F0F6F9E420FFF0EE
:102C7000C7FD219802F0F0F94A9802F0EDF9219889
:102C800002F0EAF94A9802F0E7F9239802F0E4F931
:102C90004A9802F0E1F92A2002F0DEF94A9802F09F
:102CA000DBF9249802F0D8F94A9802F0D5F94B20C4
:102CB000259002F0D1F94A9802F0CEF9269802F058
:102CC000CBF94A9802F0C8F97420279002F0C4F9B1
:102CD0004A9802F0C1F9289802F0BEF94A9802F029
:102CE000BBF99320299002F0B7F94A9802F0B4F9A1
:102CF000A2202A9002F0B0F94A9802F0ADF92B9880
:102D000002F0AAF94A9802F0A7F9BE202C9002F02E
:102D1000A3F94A9802F0A0F92D9802F09DF94A987B
:102D200002F09AF9CD202E9002F096F94A9802F01E
:102D300093F9D3202F9002F08FF94A9802F08CF982
:102D4000229802F089F94A9802F086F9449802F034
:102D500083F94A9802F080F9E520FFF051FD4A9886
:102D600002F07AF94A9802F077F94A9802F074F979
:102D70004A9802F071F9239802F06EF94A9802F02D
:102D80006BF9499802F068F94A9802F065F92498BD
:102D900002F062F94A9802F05FF9259802F05CF9B6
:102DA0004A9802F059F9269802F056F94A9802F02A
:102DB00053F9279802F050F94A9802F04DF92898F3
:102DC00002F04AF94A9802F047F9299802F044F9CA
:102DD0004A9802F041F92A9802F03EF94A9802F026
:102DE0003BF92B9802F038F94A9802F035F92C9803
:102DF00002F032F94A9802F02FF92D9802F02CF9DE
:102E00004A9802F029F92E9802F026F94A9802F021
:102E100023F92F9802F020F94A9802F01DF9309812
:102E200002F01AF94A9802F017F9449802F014F9DE
:102E30004A9802F011F93198FFF0E2FC479802F04D
:102E40000BF94A9802F008F9329802F005F94A980D
:102E500002F002F95620369002F0FEF84A9802F08D
:102E6000FBF8349802F0F8F84A9802F0F5F8772069
:102E70003B9002F0F1F84A9802F0EEF866203F909D
:102E800002F0EAF84A9802F0E7F83C9802F0E4F819
:102E90004A9802F0E1F83E9802F0DEF84A9802F013
:102EA000DBF8BB203D9002F0D7F84A9802F0D4F846
:102EB0003E9802F0D1F84A9802F0CEF83F9802F01E
:102EC000CBF84A9802F0C8F855204C9002F0C4F8AC
:102ED0004A9802F0C1F84C9802F0BEF84A9802F005
:102EE000BBF8399802F0B8F84A9802F0B5F84320D8
:102EF00002F0B2F84A9802F0AFF8409802F0ACF84D
:102F00004A9802F0A9F8E720FFF07AFC339802F023
:102F1000A3F84A9802F0A0F84C9802F09DF84A985D
:102F200002F09AF8349802F097F84A9802F094F870
:102F30003F9802F091F84A9802F08EF86720359099
:102F400002F08AF84A9802F087F8359802F084F87F
:102F50004A9802F081F887203A9002F07DF84A986A
:102F600002F07AF83E9802F077F84A9802F074F886
:102F70003D9802F071F84A9802F06EF83E9802F01F
:102F80006BF84A9802F068F83B9802F065F84A98A6
:102F900002F062F8409802F05FF84A9802F05CF89C
:102FA000369802F059F84A9802F056F8379802F02D
:102FB00053F84A9802F050F8389802F04DF84A98C1
:102FC00002F04AF8399802F047F84A9802F044F8BB
:102FD000E820FFF015FC4A9802F03EF84A9802F00B
:102FE0003BF83E9802F038F84A9802F035F83A98E3
:102FF00002F032F84A9802F02FF83C9802F02CF8D0
:103000004A9802F029F83B9802F026F84A9802F014
:1030100023F83F9802F020F84A9802F01DF83C98F7
:1030200002F01AF84A9802F017F8419802F014F8E2
:103030004A9802F011F83D9802F00EF84A9802F012
:103040000BF83E9802F008F84A9802F005F83F980D
:1030500002F002F84A9801F0FFFF4C9801F0FCFFE3
:103060004A9801F0F9FF4C9801F0F6FF4A9801F0F8
:10307000F3FF409801F0F0FF4A9801F0EDFF40980F
:1030800001F0EAFF4A9801F0E7FF4C9801F0E4FFF5
:103090004A9801F0E1FFE920FFF0B2FB419801F00E
:1030A000DBFF4A9801F0D8FF4A9801F0D5FF4A9813
:1030B00001F0D2FF4A98FFF0A3FB419801F0CCFF4A
:1030C000CF20FFF09DFB4A9801F0C6FF4A9801F01F
:1030D000C3FF4A9801F0C0FF4A9801F0BDFF4A982B
:1030E00001F0BAFF4A9801F0B7FF4A9801F0B4FF27
:1030F0004A9801F0B1FF4A9801F0AEFF4A9801F0FA
:10310000ABFF4A9801F0A8FF4A9801F0A5FF4A9842
:1031100001F0A2FF4A9801F09FFF4A9801F09CFF3E
:103120004A9801F099FF4A9801F096FF4298FFF003
:1031300067FB4A9801F090FF439801F08DFF4A9891
:1031400001F08AFF4A9801F087FF4A9801F084FF56
:103150004498FFF055FB4A9801F07EFFF920FFF0FC
:103160004FFB062001F078FF459801F075FF499864
:1031700001F072FF4A9801F06FFF4698FFF040FBA4
:103180004C9801F069FF4798FFF03AFB4898FDF72B
:1031900073FE4998FFF034FB3520FFF031FB4A986D
:1031A00001F05AFF5120FFF02BFB4B9801F054FF28
:1031B0005320FFF025FB4D9801F04EFF4C98FFF097
:1031C0001FFB822001F048FF4D98FFF019FB4EB025
:1031D00080BD00000000000080B5B4B04FF4704026
:1031E000199055213291FFF027FB4FF201001A9000
:1031F000AA211B91FFF020FB4FF202001C905221EC
:103200001D91FFF019FB4FF203001E9008211F9142
:10321000FFF012FB4FF20400209001212891FFF0F3
:103220000BFB4FF430400D210091FFF005FB00999E
:103230004BF20100FFF000FB00994BF20200FFF09F
:10324000FBFA4FF43640239034210D91FFF0F4FA4D
:103250000D994BF20160FFF0EFFA0D994BF202600D
:10326000FFF0EAFA00994FF431402190FFF0E4FAC0
:1032700000994BF201102290FFF0DEFA00994BF218
:103280000210FFF0D9FA0D994FF437402490FFF067
:10329000D3FA0D994BF201702590FFF0CDFA0D99FC
:1032A0004BF20270FFF0C8FA4FF432400021319126
:1032B000FFF0C2FA31994BF20120FFF0BDFA3199CB
:1032C0004BF20220FFF0B8FA4FF438402790242147
:1032D0000291FFF0B1FA02994BF601002990FFF03C
:1032E000ABFA02994BF602002A90FFF0A5FA289952
:1032F0004FF43F40FFF0A0FA4FF433400F2101910B
:10330000FFF09AFA01994BF20130FFF095FA01991A
:103310004BF20230FFF090FA0D994FF43940FFF074
:103320008BFA0D994BF60110FFF086FA0D994BF6CA
:103330000210FFF081FA1F994FF43540FFF07CFA3C
:103340001F994BF20150FFF077FA1F994BF2025090
:10335000FFF072FA4FF4424003212B91FFF06CFA18
:1033600002994FF43A40FFF067FA02994BF60120B8
:10337000FFF062FA02994BF60220FFF05DFA3199F4
:103380004FF43C402C90FFF057FA4BF601402D9043
:1033900078213391FFF050FA31994BF602402E908C
:1033A000FFF04AFA31994FF43D40FFF045FA339966
:1033B0004BF60150FFF040FA31994BF60250FFF006
:1033C0003BFA31994FF43E40FFF036FA4BF601607C
:1033D0006421FFF031FA31994FF45140FFF02CFA9B
:1033E0004DF2011033211791FFF026FA31994DF279
:1033F0000210FFF021FA0D994DF20310FFF01CFAB4
:1034000031994DF20410FFF017FA4DF205103A21F0
:103410000391FFF011FA31994DF20610FFF00CFA0A
:103420004DF207104A210491FFF006FA31994DF24E
:103430000810FFF001FA4DF209105C210591FFF030
:10344000FBF931994DF20A10FFF0F6F94DF20B102D
:1034500081210691FFF0F0F931994DF20C10FFF047
:10346000EBF94DF20D10A6210791FFF0E5F9319926
:103470004DF20E10FFF0E0F94DF20F10E52108912A
:10348000FFF0DAF928994DF21010FFF0D5F94DF25E
:10349000111013210991FFF0CFF928994DF2121064
:1034A000FFF0CAF94DF2131054210A91FFF0C4F94C
:1034B00028994DF21410FFF0BFF94DF2151082213A
:1034C0000B91FFF0B9F928994DF21610FFF0B4F9FD
:1034D0004DF21710CA210C91FFF0AEF94DF2181001
:1034E00002212F91FFF0A8F931994DF21910FFF048
:1034F000A3F92F994DF21A10FFF09EF928994DF279
:103500001B10FFF099F92F994DF21C10FFF094F960
:103510000D994DF21D10FFF08FF92F994DF21E10ED
:10352000FFF08AF94DF21F1067210E91FFF084F928
:103530002F994DF22010FFF07FF94DF221108421D8
:103540000F91FFF079F92F994DF22210FFF074F9E5
:103550004DF22310A4211091FFF06EF92F994DF236
:103560002410FFF069F94DF22510B7211191FFF0F9
:1035700063F92F994DF22610FFF05EF94DF22710F6
:10358000CF211291FFF058F92F994DF22810FFF03A
:1035900053F94DF22910DE211391FFF04DF92F99C7
:1035A0004DF22A10FFF048F94DF22B10F221149140
:1035B000FFF042F92F994DF22C10FFF03DF94DF23A
:1035C0002D10FE211591FFF037F92B994DF22E1099
:1035D000FFF032F94DF22F1010211691FFF02CF967
:1035E0002B994DF23010FFF027F917994DF2311059
:1035F000FFF022F92B994DF23210FFF01DF94DF238
:1036000033106D211891FFF017F931994FF45240A2
:10361000FFF012F917994DF20120FFF00DF93199E1
:103620004DF20220FFF008F90D994DF20320FFF052
:1036300003F931994DF20420FFF0FEF803994DF2A1
:103640000520FFF0F9F831994DF20620FFF0F4F86B
:1036500004994DF20720FFF0EFF831994DF2082060
:10366000FFF0EAF805994DF20920FFF0E5F83199ED
:103670004DF20A20FFF0E0F806994DF20B20FFF022
:10368000DBF831994DF20C20FFF0D6F807994DF296
:103690000D20FFF0D1F831994DF20E20FFF0CCF85B
:1036A00008994DF20F20FFF0C7F828994DF210202D
:1036B000FFF0C2F809994DF21120FFF0BDF82899EA
:1036C0004DF21220FFF0B8F80A994DF21320FFF0E6
:1036D000B3F828994DF21420FFF0AEF80B994DF293
:1036E0001520FFF0A9F828994DF21620FFF0A4F854
:1036F0000C994DF21720FFF09FF82F994DF21820EA
:10370000FFF09AF831994DF21920FFF095F82F99B2
:103710004DF21A20FFF090F828994DF21B20FFF08F
:103720008BF82F994DF21C20FFF086F80D994DF281
:103730001D20FFF081F82F994DF21E20FFF07CF83C
:103740000E994DF21F20FFF077F82F994DF22020AF
:10375000FFF072F80F994DF22120FFF06DF82F99CC
:103760004DF22220FFF068F810994DF22320FFF06F
:1037700063F82F994DF22420FFF05EF811994DF275
:103780002520FFF059F82F994DF22620FFF054F82C
:1037900012994DF22720FFF04FF82F994DF2282073
:1037A000FFF04AF813994DF22920FFF045F82F99C0
:1037B0004DF22A20FFF040F814994DF22B20FFF033
:1037C0003BF82F994DF22C20FFF036F815994DF269
:1037D0002D20FFF031F82B994DF22E20FFF02CF820
:1037E00016994DF22F20FFF027F82B994DF230203B
:1037F000FFF022F817994DF23120FFF01DF82B99B8
:103800004DF23220FFF018F818994DF23320FFF0F6
:1038100013F831994FF45340FFF00EF817994DF219
:103820000130FFF009F831994DF20230FFF004F851
:103830000D994DF20330FEF0FFFF31994DF2043047
:10384000FEF0FAFF03994DF20530FEF0F5FF3199D5
:103850004DF20630FEF0F0FF04994DF20730FEF015
:10386000EBFF31994DF20830FEF0E6FF05994DF27D
:103870000930FEF0E1FF31994DF20A30FEF0DCFF35
:1038800006994DF20B30FEF0D7FF31994DF20C3016
:10389000FEF0D2FF07994DF20D30FEF0CDFF3199C9
:1038A0004DF20E30FEF0C8FF08994DF20F30FEF0D9
:1038B000C3FF28994DF21030FEF0BEFF09994DF27A
:1038C0001130FEF0B9FF28994DF21230FEF0B4FF2E
:1038D0000A994DF21330FEF0AFFF28994DF21430E3
:1038E000FEF0AAFF0B994DF21530FEF0A5FF2899C6
:1038F0004DF21630FEF0A0FF0C994DF21730FEF09D
:103900009BFF2F994DF21830FEF096FF31994DF242
:103910001930FEF091FF2F994DF21A30FEF08CFF16
:1039200028994DF21B30FEF087FF2F994DF21C3085
:10393000FEF082FF0D994DF21D30FEF07DFF2F99B4
:103940004DF21E30FEF078FF0E994DF21F30FEF062
:1039500073FF2F994DF22030FEF06EFF0F994DF25C
:103960002130FEF069FF2F994DF22230FEF064FF06
:1039700010994DF22330FEF05FFF2F994DF2243065
:10398000FEF05AFF11994DF22530FEF055FF2F99A8
:103990004DF22630FEF050FF12994DF22730FEF026
:1039A0004BFF2F994DF22830FEF046FF13994DF250
:1039B0002930FEF041FF2F994DF22A30FEF03CFFF6
:1039C00014994DF22B30FEF037FF2F994DF22C3029
:1039D000FEF032FF15994DF22D30FEF02DFF2B99A0
:1039E0004DF22E30FEF028FF16994DF22F30FEF0EA
:1039F00023FF2B994DF23030FEF01EFF17994DF248
:103A00003130FEF019FF2B994DF23230FEF014FFE9
:103A100018994DF23330FEF00FFF31994FF45440B6
:103A2000FEF00AFF17994DF20140FEF005FF3199B3
:103A30004DF20240FEF000FF0D994DF20340FEF002
:103A4000FBFE31994DF20440FEF0F6FE03994DF273
:103A50000540FEF0F1FE31994DF20640FEF0ECFE1D
:103A600004994DF20740FEF0E7FE31994DF208400F
:103A7000FEF0E2FE05994DF20940FEF0DDFE3199BF
:103A80004DF20A40FEF0D8FE06994DF20B40FEF0D2
:103A9000D3FE31994DF20C40FEF0CEFE07994DF267
:103AA0000D40FEF0C9FE31994DF20E40FEF0C4FE0D
:103AB00008994DF20F40FEF0BFFE28994DF21040DC
:103AC000FEF0BAFE09994DF21140FEF0B5FE2899BC
:103AD0004DF21240FEF0B0FE0A994DF21340FEF096
:103AE000ABFE28994DF21440FEF0A6FE0B994DF264
:103AF0001540FEF0A1FE28994DF21640FEF09CFE06
:103B00000C994DF21740FEF097FE2F994DF2184098
:103B1000FEF092FE31994DF21940FEF08DFE2F9984
:103B20004DF21A40FEF088FE28994DF21B40FEF03F
:103B300083FE2F994DF21C40FEF07EFE0D994DF252
:103B40001D40FEF079FE2F994DF21E40FEF074FEEE
:103B50000E994DF21F40FEF06FFE2F994DF220405E
:103B6000FEF06AFE0F994DF22140FEF065FE2F999E
:103B70004DF22240FEF060FE10994DF22340FEF01F
:103B80005BFE2F994DF22440FEF056FE11994DF246
:103B90002540FEF051FE2F994DF22640FEF04CFEDE
:103BA00012994DF22740FEF047FE2F994DF2284022
:103BB000FEF042FE13994DF22940FEF03DFE2F9992
:103BC0004DF22A40FEF038FE14994DF22B40FEF0E3
:103BD00033FE2F994DF22C40FEF02EFE15994DF23A
:103BE0002D40FEF029FE2B994DF22E40FEF024FED2
:103BF00016994DF22F40FEF01FFE2B994DF23040EA
:103C0000FEF01AFE17994DF23140FEF015FE2B9989
:103C10004DF23240FEF010FE18994DF23340FEF0A6
:103C20000BFE31994FF45540FEF006FE17994DF208
:103C30000150FEF001FE31994DF20250FEF0FCFD04
:103C40000D994DF20350FEF0F7FD31994DF20450FD
:103C5000FEF0F2FD03994DF20550FEF0EDFD3199B5
:103C60004DF20650FEF0E8FD04994DF20750FEF0CB
:103C7000E3FD31994DF20850FEF0DEFD05994DF25D
:103C80000950FEF0D9FD31994DF20A50FEF0D4FDF5
:103C900006994DF20B50FEF0CFFD31994DF20C50CC
:103CA000FEF0CAFD07994DF20D50FEF0C5FD3199A9
:103CB0004DF20E50FEF0C0FD08994DF20F50FEF08F
:103CC000BBFD28994DF21050FEF0B6FD09994DF25A
:103CD0001150FEF0B1FD28994DF21250FEF0ACFDEE
:103CE0000A994DF21350FEF0A7FD28994DF2145099
:103CF000FEF0A2FD0B994DF21550FEF09DFD2899A6
:103D00004DF21650FEF098FD0C994DF21750FEF052
:103D100093FD2F994DF21850FEF08EFD31994DF222
:103D20001950FEF089FD2F994DF21A50FEF084FDD6
:103D300028994DF21B50FEF07FFD2F994DF21C503B
:103D4000FEF07AFD0D994DF21D50FEF075FD2F9994
:103D50004DF21E50FEF070FD0E994DF21F50FEF018
:103D60006BFD2F994DF22050FEF066FD0F994DF23C
:103D70002150FEF061FD2F994DF22250FEF05CFDC6
:103D800010994DF22350FEF057FD2F994DF224501B
:103D9000FEF052FD11994DF22550FEF04DFD2F9988
:103DA0004DF22650FEF048FD12994DF22750FEF0DC
:103DB00043FD2F994DF22850FEF03EFD13994DF230
:103DC0002950FEF039FD2F994DF22A50FEF034FDB6
:103DD00014994DF22B50FEF02FFD2F994DF22C50DF
:103DE000FEF02AFD15994DF22D50FEF025FD2B9980
:103DF0004DF22E50FEF020FD16994DF22F50FEF0A0
:103E00001BFD2B994DF23050FEF016FD17994DF227
:103E10003150FEF011FD2B994DF23250FEF00CFDA9
:103E200018994DF23350FEF007FD31994FF456408A
:103E3000FEF002FD17994DF20160FEF0FDFC319994
:103E40004DF20260FEF0F8FC0D994DF20360FEF0B9
:103E5000F3FC31994DF20460FEF0EEFC03994DF253
:103E60000560FEF0E9FC31994DF20660FEF0E4FCDD
:103E700004994DF20760FEF0DFFC31994DF20860C5
:103E8000FEF0DAFC05994DF20960FEF0D5FC31999F
:103E90004DF20A60FEF0D0FC06994DF20B60FEF088
:103EA000CBFC31994DF20C60FEF0C6FC07994DF247
:103EB0000D60FEF0C1FC31994DF20E60FEF0BCFCCD
:103EC00008994DF20F60FEF0B7FC28994DF2106092
:103ED000FEF0B2FC09994DF21160FEF0ADFC28999C
:103EE0004DF21260FEF0A8FC0A994DF21360FEF04C
:103EF000A3FC28994DF21460FEF09EFC0B994DF244
:103F00001560FEF099FC28994DF21660FEF094FCC5
:103F10000C994DF21760FEF08FFC2F994DF218604E
:103F2000FEF08AFC31994DF21960FEF085FC2F9964
:103F30004DF21A60FEF080FC28994DF21B60FEF0F5
:103F40007BFC2F994DF21C60FEF076FC0D994DF232
:103F50001D60FEF071FC2F994DF21E60FEF06CFCAE
:103F60000E994DF21F60FEF067FC2F994DF2206014
:103F7000FEF062FC0F994DF22160FEF05DFC2F997E
:103F80004DF22260FEF058FC10994DF22360FEF0D5
:103F900053FC2F994DF22460FEF04EFC11994DF226
:103FA0002560FEF049FC2F994DF22660FEF044FC9E
:103FB00012994DF22760FEF03FFC2F994DF22860D8
:103FC000FEF03AFC13994DF22960FEF035FC2F9972
:103FD0004DF22A60FEF030FC14994DF22B60FEF099
:103FE0002BFC2F994DF22C60FEF026FC15994DF21A
:103FF0002D60FEF021FC2B994DF22E60FEF01CFC92
:1040000016994DF22F60FEF017FC2B994DF230609F
:10401000FEF012FC17994DF23160FEF00DFC2B9969
:104020004DF23260FEF008FC18994DF23360FEF05C
:1040300003FC19983299FEF0FFFB1A981B99FEF0C9
:10404000FBFB1C981D99FEF0F7FB1E981F99FEF0D4
:10405000F3FB20983199FEF0EFFB2198CC21FEF084
:10406000EBFB22983199FEF0E7FB23980521FEF047
:10407000E3FB249870212691FEF0DEFB259826991B
:10408000FEF0DAFB27982899FEF0D6FB29982B99A9
:10409000FEF0D2FB2A982B99FEF0CEFB2B994BF623
:1040A0000300FEF0C9FB2C982F99FEF0C5FB2D985C
:1040B0003199FEF0C1FB2E983199FEF0BDFB4FF413
:1040C0004940D021FEF0B8FB2F994CF60110FEF0CC
:1040D000B3FB4CF6021050213091FEF0ADFB30994D
:1040E0004CF60310FEF0A8FB30994CF60410FEF0DD
:1040F000A3FB31994FF45450FEF09EFB32994FF4DC
:104100006850FEF099FB4FF48850FEF079FB33982D
:10411000FDF06AF84FF42450FEF072FB34B080BD1D
:1041200080B586B0DDF820C0ADF81600ADF81410EB
:10413000ADF81220ADF810300020ADF80A0040F2C2
:104140000C20C2F20040006880B1FFE7BDF8160005
:10415000BDF81410BDF81220BDF81030DDF820C0F5
:10416000EE46CEF800C001F097F83AE0BDF8120034
:10417000BDF81610401A0130ADF80A00BDF8140061
:10418000ADF80E00FFE7BDF80E00BDF81010884234
:1041900026DCFFE7BDF81600BDF80E10FEF03CFA75
:1041A000FEF03EFB0020ADF80C00FFE7BDF80C0070
:1041B000BDF80A1088420CDAFFE708980021C6F221
:1041C00008010880FFE7BDF80C000130ADF80C00D5
:1041D000ECE7FFE7BDF80E000130ADF80E00D2E7C6
:1041E000FFE706B080BD000080B588B0ADF81E00C6
:1041F000ADF81C10ADF81A20ADF81830BDF81A0053
:1042000040F2C321484349F27531C0F21841A0FB86
:1042100001010120019000EB11100490BDF81A106B
:1042200001FB01F000EB51000390BDF81A00029071
:10423000BDF81E00BDF81A20801ABDF81C105200EF
:10424000BDF8183080B292B2FDF702FF01980590D8
:10425000FFE705980499884262D8FFE7059802991C
:10426000494300FB00100399884234D9FFE70298C4
:10427000049988422BD9FFE7BDF81E00059BC01AA0
:104280000130BDF81C10029A11446FF00102009237
:1042900002EB4302BDF8183089B292B280B2FDF74A
:1042A000D7FE009ABDF81E00059BC01A0130BDF86C
:1042B0001C10DDF808C0A1EB0C0102EB4302BDF8B5
:1042C000183089B292B280B2FDF7C2FEFFE70298C1
:1042D00001380290FFE7BDF81E00029A801ABDF86F
:1042E0001C10059B19445200BDF8183080B289B2E9
:1042F00092B2FDF7ADFEBDF81E00029A801ABDF81D
:104300001C10059BC91A5200BDF8183080B289B242
:1043100092B2FDF79DFEFFE705980130059098E702
:1043200008B080BD0000000080B59CB0FEF0BCFC71
:10433000014640F2FC10C2F200408180808818B132
:10434000FFE701F081F843E2FFE744F2E041C5F600
:104350000201086840F008000860FFE7FFE744F248
:10436000E041C5F60201086840F008000860FFE778
:10437000FFE744F2E041C5F60201086840F008009A
:104380000860FFE7FFE744F2E041C5F60201086874
:1043900040F008000860FFE7FFE744F2E041C5F69F
:1043A0000201086840F002000860FFE744F2E041C3
:1043B000C5F60201086840F01800086044F2D441D4
:1043C000C5F60201086840F4805008606946012083
:1043D0001190486003201290086040F60040C5F636
:1043E0000200149080210D91022213920023199350
:1043F00002F052FC1299139A1498199BDDF844E0CC
:10440000EC46CCF804E0CCF8001020210E9102F02C
:1044100043FC1299139A1498199BDDF844E0EC467A
:10442000CCF804E0CCF8001010210F9102F034FC1D
:104430001299139A1498199BDDF844E0EC46CCF8D5
:1044400004E0CCF800104FF40051109102F024FC6D
:104450000E99119A1298199BEC46CCF80420CCF8CE
:10446000000040F20040C5F6020002F015FC0D9974
:1044700014980C22189202F093FB0E991498189A33
:1044800002F08EFB0F991498189A02F089FB10998C
:104490001498189A02F084FB1299139A1498199B95
:1044A000DDF844E0EC46CCF804E0CCF800104CF227
:1044B0000371159102F0F0FBDDF844C01298139AD5
:1044C000199B6946C1F804C0086041F20000C5F6B6
:1044D000020016904FF68071179102F0DDFB1498E0
:1044E0001599189A02F05CFB16981799189A02F021
:1044F00057FB199844F20001C5F200211A91086097
:1045000044F20403C5F20023186044F20412C5F219
:1045100000221060086840F480500860086840F489
:1045200080400860086840F0100008601868186053
:10453000186840F00F001860186840F49C4018603C
:1045400010681060106840F00F001060106840F4B0
:1045500070601060086840F001000860086840F072
:10456000004008604FF6FF70C0F20F0000F050FAF4
:10457000D320FEF045F9FEF043F840F2FC11C2F200
:1045800000411B918880FEF03BF81B998880FEF06B
:1045900037F81B998880888800028880FEF030F800
:1045A00002461B98818811438180808849F24131FD
:1045B000884200F00C81FFE70420FEF021F9FEF0B4
:1045C0001FF840F2FC11C2F200410C918880FEF00D
:1045D00017F80C998880FEF013F80C998880888869
:1045E00000028880FEF00CF802460C988188114386
:1045F0008180808848F25251884208D1FFE740F21A
:10460000FC11C2F2004147F289708880FFE740F256
:10461000FC10C2F20040808847F28971884200F0A5
:10462000D580FFE7D420FEF0EBF8FDF0E9FF40F283
:10463000FC11C2F200410B918880FDF0E1FF0B9963
:104640008880FDF0DDFF0B998880888800028880D3
:10465000FDF0D6FF02460B98818811438180808847
:1046600045F21031884200F0B080FFE7D320FEF021
:10467000C7F8FDF0C5FF40F2FC11C2F200410A91FB
:104680008880FDF0BDFF0A998880FDF0B9FF0A9986
:104690008880888800028880FDF0B2FF02460A9870
:1046A000818811438180808847F29671884200F0AA
:1046B0008B80FFE74FF470405521FEF0BDF84FF2BC
:1046C0000100AA21FEF0B8F84FF202005221FEF0DC
:1046D000B3F84FF203000821FEF0AEF84FF20400E9
:1046E0000121FEF0A9F84FF44540FEF089F8FDF0F5
:1046F00087FF40F2FC11C2F200410991888088884E
:10470000000288804CF20150FEF07AF8FDF078FF4C
:10471000099902468888104388800520FCF7ACFB85
:104720000998808845F2105188424CD0FFE7D32089
:10473000FEF066F8FDF064FF40F2FC11C2F20041A9
:1047400008918880FDF05CFF08998880FDF058FF93
:1047500008998880888800028880FDF051FF024611
:104760000898818811438180808849F60601884233
:1047700028D0FFE7A120FEF043F8FDF041FF40F212
:10478000FC11C2F2004107918880FDF039FF0799C2
:104790008880888800028880FDF032FF02460798F2
:1047A000818811438180808845F26171884208D1F7
:1047B000FFE740F2FC11C2F2004141F6631088802D
:1047C000FFE7FFE7FFE7FFE7FFE7FFE7FFE7FFE7B9
:1047D00040F2FC10C2F200400690818848F68C102E
:1047E000C0F61000FBF726FE0698808847F2897114
:1047F000884203D1FFE7FDF02FFD56E040F2FC10A8
:10480000C2F20040808849F24131884203D1FFE77B
:10481000FDF082F948E040F2FC10C2F200408088CE
:1048200045F21031884203D1FFE7FDF709FD3AE078
:1048300040F2FC10C2F20040808847F29671884234
:1048400003D1FFE7FDF0ECFD2CE040F2FC10C2F2DA
:104850000040808845F21051884203D1FFE7FEF7FF
:10486000BBFC1EE040F2FC10C2F20040808849F61A
:104870000601884203D1FFE7FDF072FA10E040F232
:10488000FC10C2F20040808841F66311884206D1D4
:10489000FFE7FDF01DFC6420FDF082FFFFE7FFE76E
:1048A000FFE7FFE7FFE7FFE7FFE740F2FC10C2F298
:1048B0000040808847F28971884216D1FFE744F2B0
:1048C0000411C5F200210591086820F00F0008606E
:1048D000086820F470600860086840F0050008600F
:1048E000086840F4A060086080E040F2FC10C2F26A
:1048F0000040808841F66311884216D1FFE744F2F8
:104900000411C5F200210491086820F00F0008602E
:10491000086820F470600860086840F007000860CC
:10492000086840F4E06008605FE040F2FC10C2F20A
:104930000040808845F2105188420AD0FFE740F2DB
:10494000FC10C2F20040808849F60601884216D168
:10495000FFE744F20411C5F200210391086820F03A
:104960000F000860086820F470600860086840F074
:1049700002000860086840F40070086034E040F20B
:10498000FC10C2F20040808845F21031884214D0F9
:10499000FFE740F2FC10C2F20040808847F29671B7
:1049A00088420AD0FFE740F2FC10C2F20040808843
:1049B00049F24131884216D1FFE744F20411C5F2B1
:1049C00000210291086820F00F000860086820F4B8
:1049D00070600860086840F003000860086840F4F0
:1049E00040700860FFE7FFE7FFE7FFE70020FDF703
:1049F0000BFA40F20040C5F602002021012202F02D
:104A00002FF94FF6FF70FCF09BFF1CB080BD00003B
:104A100081B00090FFE70098411E009108B1FFE7C8
:104A2000F9E701B07047000080B588B08DF81F002D
:104A30000020ADF81C00ADF81A0040F2FC10C2F2E4
:104A40000040807901280AD1FFE740F2FC10C2F251
:104A50000040808841F66311884212D1FFE740F29E
:104A6000FC10C2F200408079002838D1FFE740F204
:104A7000FC10C2F20040808841F6631188422ED1BA
:104A8000FFE79DF81F0001460591072826D80599E4
:104A9000DFE801F004080C1014181C2006208DF823
:104AA0001F001BE007208DF81F0017E004208DF881
:104AB0001F0013E005208DF81F000FE001208DF886
:104AC0001F000BE000208DF81F0007E003208DF889
:104AD0001F0003E002208DF81F00FFE7FFE79DF8AD
:104AE0001F0001460491072838D80499DFE801F037
:104AF00004050C131A21282F30E0BDF81C0040F0EB
:104B00008000ADF81C0029E0BDF81C0040F040001A
:104B1000ADF81C0022E0BDF81C0040F0C000ADF86C
:104B20001C001BE0BDF81C0040F02000ADF81C008C
:104B300014E0BDF81C0040F06000ADF81C000DE072
:104B4000BDF81C0040F0A000ADF81C0006E0BDF868
:104B50001C0040F0E000ADF81C00FFE73620ADF887
:104B60001A0040F2FC10C2F20040808845F2105159
:104B7000884205D1FFE74FF45850ADF81A00FFE71F
:104B800040F2FC10C2F20040808849F24131884274
:104B900014D0FFE740F2FC10C2F20040808847F2D8
:104BA000897188420AD0FFE740F2FC10C2F200404F
:104BB000808847F29671884207D1FFE7BDF81C0054
:104BC00040F00800ADF81C00FFE7BDF81A00BDF882
:104BD0001C10FDF031FE40F2FC10C2F20040808853
:104BE00041F66311884235D0FFE7BDF81C0080060E
:104BF000002817D5FFE740F2FC11C2F200410888F7
:104C0000498888420DDAFFE740F2FC11C2F2004108
:104C10000888ADF8180048880880BDF8180048805A
:104C2000FFE716E040F2FC11C2F200410888498813
:104C300088420DDDFFE740F2FC11C2F20041088816
:104C4000ADF8180048880880BDF818004880FFE7D4
:104C5000FFE7FFE740F2FC10C2F20040808845F217
:104C60001051884258D1FFE740F2FC10C2F20040D8
:104C700003904089FDF0C4FD0020029000F0ECF9A3
:104C800003984089013080B2FDF0BAFD029800F02F
:104C9000E3F903984089023080B2FDF0B1FD03983A
:104CA00000880138C0F30F2000F0D6F9039840893E
:104CB000033080B2FDF0A4FD039800880138C0B233
:104CC00000F0CAF903988089FDF09AFD029800F07F
:104CD000C3F903988089013080B2FDF091FD0298FC
:104CE00000F0BAF903988089023080B2FDF088FDA7
:104CF000039840880138C0F30F2000F0ADF9039805
:104D00008089033080B2FDF07BFD03984088013834
:104D1000C0B200F0A1F933E040F2FC10C2F2004052
:104D200001904089FDF06CFD0020009000F094F9A6
:104D3000009800F091F9019800880138C0F30F2025
:104D400000F08AF9019800880138C0B200F084F9B7
:104D500001988089FDF054FD009800F07DF90098DD
:104D600000F07AF9019840880138C0F30F2000F074
:104D700073F9019840880138C0B200F06DF9FFE77F
:104D800008B080BD0000000010B588B08C46864693
:104D90000B980A99ADF81EE0ADF81CC08DF81B20E9
:104DA0008DF81A308DF81910ADF81600BDF81C00FA
:104DB000ADF8100000208DF80F0002909DF81A1039
:104DC000C808012202EBD1024B07002B18BF104686
:104DD000490848438DF80F009DF81B0020388DF8D6
:104DE0001B009DF81A000C3801460191142839D88F
:104DF0000199DFE801F00B37373717373737373787
:104E0000373721373737373737372D009DF81B00B5
:104E100000EB400148F24A20C0F6000000EB8100A0
:104E2000029020E09DF81B1045F68060C0F610004F
:104E300000EB0110029016E09DF81B0000EBC00192
:104E400046F27040C0F6100000EB810002900AE0CC
:104E50009DF81B1047F2CC10C0F6100000EB81103B
:104E6000029000E07BE000208DF81300FFE79DF842
:104E700013009DF80F10884271DAFFE702989DF841
:104E80001310405C8DF8150000208DF81400FFE72A
:104E90009DF8140007285BDCFFE79DF8150000066D
:104EA000002809D5FFE7BDF81E00BDF81C10BDF8AD
:104EB0001620FDF79DF910E09DF8190060B9FFE795
:104EC000BDF81E00BDF81C1040F20402C2F2004200
:104ED0001268FDF78DF9FFE7FFE79DF81500400028
:104EE0008DF81500BDF81C000130ADF81C00BDF8B0
:104EF0001C0040F2FC11C2F200414988884201DBEB
:104F0000FFE72CE0BDF81C00BDF81010401A9DF81A
:104F10001A10884215D1FFE7BDF81000ADF81C004B
:104F2000BDF81E000130ADF81E00BDF81E0040F2B5
:104F3000FC11C2F200410988884201DBFFE70EE064
:104F400006E0FFE79DF8140001308DF814009FE79C
:104F5000FFE79DF8130001308DF8130087E708B0D4
:104F600010BD00000000000010B588B08C468646D9
:104F70000C980B990A99ADF81EE0ADF81CC0ADF87D
:104F80001A20ADF818308DF81710ADF814009DF800
:104F90001E008DF81300BDF81E10BDF81A0008445D
:104FA000ADF81A00BDF81C10BDF818000844ADF8A3
:104FB0001800FFE70B98017800207E29039008DC99
:104FC000FFE70B98017800201F29C8BF012003903C
:104FD000FFE70398C007D0B3FFE7BDF81E00BDF898
:104FE0001A1088420CDBFFE79DF81300ADF81E0095
:104FF0009DF81710BDF81C000844ADF81C00FFE731
:10500000BDF81C00BDF81810884201DBFFE71EE068
:10501000BDF81E00BDF81C100B9A12789DF81730D1
:10502000BDF814C0EE46CEF804C04FF0000CCEF828
:1050300000C0FFF7A9FE9DF81710BDF81E0000EB99
:105040005100ADF81E000B9801300B90B2E708B08C
:1050500010BD00000000000081B0ADF80200BDF8F6
:105060000200ADF80200BDF802000021C6F20801FE
:10507000088001B07047000080B586B0FFE744F2B9
:10508000E041C5F60201086840F002000860FFE751
:10509000FFE744F2E041C5F60201086840F0020073
:1050A0000860FFE76846012205924260026040F214
:1050B0000040C5F6020004900221039100230293F0
:1050C00001F0EAFD029B0498059A69464A600A606D
:1050D000114601F0E1FD03990498059A01F0C0FD25
:1050E0000498059A114601F0BBFD06B080BD000092
:1050F00088B00790069105920020ADF812008DF857
:10510000110044F20041C5F60201086820F0805009
:105110000860FFE744F20040C5F602000168002085
:105120008900002903900AD5FFE7BDF8121041F667
:10513000FF7200209142B8BF01200390FFE703985F
:10514000C00730B1FFE7BDF812000130ADF8120022
:10515000E0E7BDF8120041F6FF71884204D1FFE795
:1051600001208DF811006AE044F22841C5F60201E1
:10517000086820F07C700860069A086840EA0250CF
:10518000086044F24041C5F602010191086840F20E
:10519000FF12904308600798421E08681043086099
:1051A000086820F0FE4008600598421E086840EA42
:1051B0000260086044F22C41C5F6020102910868C1
:1051C00020F4706008600868086008680860086873
:1051D00040F08070086044F20041C5F602010868A2
:1051E00040F080500860FFE744F20040C5F602003E
:1051F000016800208900002900900AD4FFE7BDF86B
:10520000121041F6FF7200209142B8BF01200090B9
:10521000FFE70098C00730B1FFE7BDF8120001308A
:10522000ADF81200E0E7BDF8120041F6FF718842C8
:1052300004D1FFE702208DF81100FFE7FFE79DF89A
:10524000110008B07047000081B08DF803009DF890
:10525000030040F20C21C2F2004148759DF80300A2
:1052600048B9FFE740F20C21C2F200414868C88209
:10527000086808830EE09DF80300012809D1FFE7C4
:1052800040F20C21C2F200410868C88248680883D5
:10529000FFE7FFE701B0704789B0DDF824C0ADF843
:1052A0002200ADF82010ADF81E20ADF81C30002013
:1052B000029040F20C20C2F20040407D68B1FFE74E
:1052C000BDF822000690BDF820000590BDF81E0034
:1052D0000490BDF81C0003903CE0BDF81E0040F2B5
:1052E0000C21C2F200414968884209D3FFE740F22D
:1052F0000C20C2F2004040680138ADF81E00FFE704
:10530000BDF8220040F20C21C2F2004149688842F7
:1053100009D3FFE740F20C20C2F200404068013898
:10532000ADF82200FFE7BDF82000069040F20C2007
:10533000C2F200404268BDF81E10C94311440591F5
:10534000BDF81C1004914168BDF82200C043084418
:105350000390FFE740F20C21C2F200410A68049872
:10536000069BC01AC0431044ADF806000A7D40F207
:105370001C10C2F2004050F82220C8690968059B41
:10538000DDF818C001FB03C100FB0120009044F2CE
:10539000D441C5F60201086840F01000086041F2EF
:1053A0000001C5F20021086820F0010008604FF4F8
:1053B0004030086041F23402C5F200220220106041
:1053C000BDF8060041F24002C5F2002210600098CC
:1053D00041F23C02C5F2002210600398059A801A3F
:1053E0000130049A069BD21A013240EA024041F28F
:1053F0004402C5F200221060099841F23802C5F259
:1054000000221060086840F001000860FFE741F2E8
:105410000400C5F200200068800700280AD4FFE7D6
:105420000298013002900298B0F5001F01D3FFE707
:1054300000E0ECE741F20801C5F20021086840F005
:105440000200086009B0704710B59EB000201D90A2
:10545000ADF87200FDF028FCADF87200FFE744F2F1
:10546000E041C5F60201086840F002000860FFE76D
:10547000FFE744F2E041C5F60201086840F0200071
:105480000860FFE7FFE744F2E041C5F60201086863
:1054900040F480700860FFE7FFE744F2E041C5F6A2
:1054A0000201086840F480700860FFE7FFE744F2FB
:1054B000E041C5F60201086840F040000860FFE7DF
:1054C0006946012414944C6003201190086040F256
:1054D0000040C5F60200202100231393224601F06C
:1054E000DBFB1198139B69464C60086041F2004059
:1054F000C5F602000D904FF480610F9102221292C6
:1055000001F0CAFB1198129A139B69464C6008601F
:1055100042F20000C5F6020019904FF400710E919E
:1055200001F0BAFB0F99DDF844C0129A139B199849
:10553000EE46CEF80440CEF800C001F0ADFBDDF839
:1055400050C01198129A139B6946C1F804C00860B4
:1055500041F60000C5F6020015908021109101F07F
:105560009BFB0D980F990E221B9201F019FB0E99CF
:1055700019981B9A01F014FB0F9919981B9A01F0C6
:105580000FFB109915981B9A01F00AFB1199129ABA
:10559000139B1598DDF850E044F2E444C5F602048C
:1055A000D4F800C04CF0080CC4F800C044F2E04449
:1055B000C5F60204D4F800C04CF4E07CC4F800C086
:1055C000EC46CCF804E0CCF800104FF404611691DE
:1055D00001F062FBDDF850C01198129A139B6946E6
:1055E000C1F804C0086041F60040C5F602001790FB
:1055F0004FF47E41189101F04FFB1199129A139BC1
:105600001998DDF850E0EC46CCF804E0CCF8001036
:10561000F7211A9101F040FB159816991B9A01F099
:10562000BFFA179818991B9A01F0BAFA19981A99A3
:105630001B9A01F0B5FABDF8720044F2423188427B
:105640001CD1FFE740F20C21C2F200410C914FF453
:10565000F07008604FF4887048600120088148812C
:10566000282088810820C88105220A8248824FF4B8
:10567000967019212122FFF73BFDA5E0BDF87200CD
:1056800047F2840188421DD1FFE740F20C21C2F2AB
:1056900000410B914FF4487008604FF4F07048607F
:1056A0000120088148812E2088811720C881D220BE
:1056B0000882162048824FF4967019210922FFF7BC
:1056C00017FD80E0BDF8720047F2160188421DD137
:1056D000FFE740F20C21C2F200410A914FF48060D2
:1056E00008604FF4167048601420088103224A8134
:1056F0008C228A81C881A02008820C2048824FF425
:10570000967019210622FFF7F3FC5BE0BDF87200EA
:1057100047F2180188420BD1FFE740F20C21C2F298
:1057200000414FF4A06008604FF44870486048E0C2
:10573000BDF8720044F2843188421ED1FFE740F286
:105740000C21C2F2004109914FF4487008604FF4F7
:10575000F070486058208881282008823020088115
:105760002020C8810D204882032048814FF4967084
:1057700019210922FFF7BCFC22E0BDF8720041F2BA
:10578000180188421BD1FFE740F20C21C2F2004110
:1057900008914FF4A06008604FF4487048608C2076
:1057A00088810A2008820881C881488203204881B4
:1057B0004FF4967019210622FFF79AFCFFE7FFE7E6
:1057C000FFE7FFE7FFE7FFE7BDF8720041F21801CE
:1057D000884204D1FFE74FF080501D9002E0002086
:1057E0001D90FFE71D9841F21801C5F20001086005
:1057F00040F20C22C2F200420592508901381D90FD
:1058000011890020CFF6FF7000EB01431D99194369
:105810001D911D9941F20803C5F2000319605189D9
:10582000D389194401391D9111899389194400EBD9
:1058300001431D9919431D911D9941F20C03C5F2B5
:10584000000319605189D3891944536819440139F7
:105850001D911189938919441368194400EB014380
:105860001D9919431D911D9941F21003C5F20003C2
:1058700019605189D389194453681944538A1944CA
:1058800001391D9111899389194413681944128AA9
:10589000114400EB01411D9808431D901D9841F2F1
:1058A0001401C5F20001086041F22C01C5F20001AB
:1058B00000200690086001200790FDF0F9F9059B93
:1058C000069840F21C11C2F2004140F20002CCF2F4
:1058D00000020A600222DA6109686B46D8604FF064
:1058E000070CC3F808C04FF0060CC3F804C01860DA
:1058F000FF23FDF015F80598069A0388808869460D
:10590000086010461146FDF0C3F8059906980B682B
:1059100040F2FC12C2F2004213804968518000F04C
:105920000FF8079A40F20040C5F60200202101F06E
:1059300097F94FF0FF30FCF093FF1EB010BD000050
:1059400081B08DF803009DF8030040F20C21C2F2F3
:105950000041087501B0704780B588B000200790FD
:10596000A020052102220423FEF07AF94FF4C8702A
:10597000FBF762FA64204FF4E131FEF099FFFFF784
:105980007BFBFDF0D9F948F2FF70C0F60000FAF792
:1059900051FD48F6A000C0F60000FAF74BFD00F0FC
:1059A0006BFEFEF045F868B9FFE748F2E270C0F61A
:1059B00000000021CCF22001FAF73CFD0220FBF0B0
:1059C00037FEFFE748F27270C0F60000FAF732FDCA
:1059D000FEF7AAFC0120FCF717FA40F2FC10C2F215
:1059E00000400088B0F5487F09D1FFE740F2FC1085
:1059F000C2F200404088B0F5F07F10D0FFE740F2DF
:105A0000FC10C2F200400188428848F2CE60C0F625
:105A10000000FAF70FFD0320FBF00AFEFFE748F253
:105A20000E70C0F60000FAF705FD40F22911C2F22F
:105A3000004100200870FBF70BFB10BBFFE740F2B2
:105A40001001C2F2004141F2A910C0F60000486006
:105A5000812081F8440040F20801C2F2004148F67A
:105A60005910C0F60000086040F22911C2F200414E
:105A70000120087048F67E00C0F60000FAF7DAFC54
:105A80003AE0FBF711FD68BBFFE740F22411C2F2D8
:105A90000041069148F240100422FBF045FE0698B2
:105AA00040F21002C2F2004241F2D161C0F60001A0
:105AB0005160812182F8441040F20801C2F2004195
:105AC000086040F22911C2F2004101200870FBF089
:105AD00023FE0699024648F28570C0F60000FAF7E8
