:020000040800F2
:10000000C8AC0524ED03000801040008611D1008B8
:100010000112000851181008791E000800000000A5
:10002000000000000000000000000000D1291008BE
:100030000D0400080000000019120008311E00081D
:100040001304000813040008130400081304000834
:100050001304000813040008130400081304000824
:1000600013040008130400081304000841110008D9
:100070001304000813040008130400081304000804
:1000800013040008130400081304000813040008F4
:1000900013040008130400081304000813040008E4
:1000A00013040008130400081304000813040008D4
:1000B00013040008130400081304000813040008C4
:1000C00013040008130400081304000813040008B4
:1000D00013040008F1291008130400081304000891
:1000E00013040008130400080000000013040008B3
:1000F0001304000813040008130400081304000884
:100100001304000813040008130400081304000873
:100110001304000813040008130400081304000863
:100120001304000813040008130400081304000853
:100130001304000813040008130400081304000843
:1001400000000000000000000000000000000000AF
:100150001304000813040008130400081304000823
:100160001304000813040008130400081304000813
:100170001304000813040008130400080000000022
:1001800013040008130400081304000813040008F3
:1001900013040008130400081304000813040008E3
:1001A00013040008130400081304000813040008D3
:1001B00013040008130400081304000813040008C3
:1001C00013040008130400081304000813040008B3
:1001D00013040008130400081304000813040008A3
:1001E0001304000813040008130400081304000893
:1001F0001304000813040008130400081304000883
:100200001304000813040008130400081304000872
:100210001304000813040008130400081304000862
:100220001304000813040008130400080000000071
:100230001304000813040008000000001304000861
:100240001304000813040008130400081304000832
:100250001304000813040008130400081304000822
:100260001304000813040008130400081304000812
:100270001304000813040008130400080000000021
:100280001304000813040008130400080000000011
:10029000000000001304000800F002F8FFF0B2FEB6
:1002A00014A696E8000CB244B344DA4501D1FFF03D
:1002B000A9FEBAE80F000FA696E83000A5EB0405EA
:1002C00004EB0607AAEB0704A7F101074FEA15158F
:1002D0004FEA3414A4F10104AC4201D3FFF092FEC2
:1002E00013F0010F18BFFB1A43F0010300F001F8EF
:1002F000DBE71847AC6C0100CC6C0100103A24BF5E
:1003000078C878C1FAD8520724BF30C830C144BF7A
:1003100004680C6070470000704700000023002450
:1003200000250026103A28BF78C1FBD8520728BF05
:1003300030C148BF0B6070476E2915F0618270298B
:1003400015F06082662915F05F82652915F05C82E0
:10035000672915F05982612915F0588203681B0A34
:1003600028BF41F08001692915F05282642915F0F7
:100370004F82752915F04C826F2900F0758178291C
:1003800015F04882E92915F04782E42915F04482E6
:10039000F52915F04182EF2900F07281F82915F056
:1003A0003D820368DB0928BF41F08001632915F015
:1003B0003782732915F03682E32900F08383F3290D
:1003C00000F08883002070471FB512F1D5FB00F1C3
:1003D0006FFC04000020002115F042FA401C606010
:1003E0000020002112F1B2FBE0601FBDDFF83000F9
:1003F000016841F470010160BFF34F8F0948004765
:10040000FEE7FEE7FEE7FEE7FEE7FEE7FEE7FEE7C4
:10041000FEE7FEE704480549034A054B7047000024
:1004200088ED00E099020008C8A40524C8AC0524A2
:10043000C8A40524704700000FB4044910B503AAEE
:10044000029800F0DDF810BC5DF814FB08090024E8
:100450000FB41CB5084B06AA7B446946009005986A
:10046000FFF0DBFF044600206946FFF0E9FF20466D
:100470001CBC5DF814FB0000E5FF0F000022CBB2AE
:1004800010F8011B994200D1421E0029F8D11046F4
:10049000704710B5431C02E010F8011B71B18107D1
:1004A000FAD14FF0013202C88C1A8C4314EAC211FF
:1004B000F9D0C01A0A0603D0C01E10BDC01A10BD64
:1004C0000A0401D0801E10BD0902FCD0401E10BDE0
:1004D000032A40F2308010F0030C00F0158011F870
:1004E000013BBCF1020F624498BF11F801CB00F848
:1004F000013B38BF11F8013BA2F1040298BF00F89C
:1005000001CB38BF00F8013B11F0030315F08C81DB
:10051000083AC0F0088051F8043B083A51F804CB7F
:10052000A0E80810F5E7121D5CBF51F8043B40F845
:10053000043BAFF30080D20724BF11F8013B11F850
:1005400001CB48BF11F8012B24BF00F8013B00F894
:1005500001CB48BF00F8012B704702F0FF0343EACC
:10056000032242EA0242FFF05FBE4FF0000204297C
:10057000C0F0128010F0030C15F05881CCF1040C7F
:10058000BCF1020F18BF00F8012BA8BF20F8022B06
:10059000A1EB0C01FFF048BE5FEAC17C24BF00F86C
:1005A000012B00F8012B48BF00F8012B7047704762
:1005B00070B5044685690068C10601D5302600E0A3
:1005C0002026C00707D070BDD4E9012130469047EE
:1005D000206A401C20626D1EF6D570BD70B50446C1
:1005E00085690078C00707D170BDD4E901212020BA
:1005F0009047206A401C20626D1EF6D570BD000039
:10060000074B70B50D467B44FFF007FF04462846B4
:1006100000F100FB10B14FF0FF3070BD204670BDFF
:100620001FE5000030B4002100F1240408E002F0CE
:100630000705D208303542EA4372DB086554491C8D
:1006400052EA0305F3D10468002310A2250708D558
:1006500004F020040C4304D0C46901230CA2641EDE
:10066000C46130BC00F1E9B810B5044621461068F9
:10067000FFF04CFE02462046BDE810400023D1E7C3
:10068000D21D22F00701D1E90023CBE700000000D2
:10069000300000002DE9FF4F0C461E464FF0FF379B
:1006A0008BB0D2E90001DDF860800A908A46C1F380
:1006B0000A5505B93D46002108464FF00000BAF141
:1006C000000F00F4400005DA00EB80004FF4400119
:1006D00001EA50004FEA9059B9F1010F00DDB94627
:1006E0000A9850EA4A000ED044F61050A5F2FF35A1
:1006F00045432F14B8F1000F1ED07542291E1EDD90
:10070000C9F100021CE0B8F1010F4FF0000001D068
:10071000302103E0F24305E02154401CB042FBDBF2
:1007200030460022002121540B99C1F80880C1E90C
:1007300000200FB0BDE8F08FBD1B6D1CDEE74A4600
:1007400000DA694206A800F0D1F906AB93E8070089
:1007500003AB83E8070050460A9912F188F98DE847
:100760000700A0F500501F3800900398002D0ADD07
:1007700042F21F014A460844002303A90390684639
:1007800012F1C4F909E0A0F500504A461F380023D1
:1007900003A90390684614F0FBFE8DE807000004EF
:1007A000000C03D04FF0FF30410800E01046B8F1D4
:1007B000000F03D00022009215461EE0751E05D4DE
:1007C000FFF0F6FF303262556D1EF9D5B3460122B7
:1007D000084302D000227F1C04E02078302801D199
:1007E00000227F1E002A099784D01DE0112D07DA10
:1007F000FFF0DEFF303262556D1C50EA0102F5D188
:10080000084302D00098C8B10EE00021681E05E040
:10081000235C625C63542254401E491C8142F7DB16
:10082000AB46A81B401E0990002004F80B000B9853
:10083000099AC0F80880C0E9002B7AE711264FF02A
:10084000000857E72DE9F04F88460446D21D22F0F4
:10085000070191B0D1E90001CDE90A0114F0E8FFE8
:1008600002460B98C00F01D02D2007E020688107B9
:1008700001D52B2002E0202101EAC000032A0990C3
:1008800001D0072A05DB03464146204600F114FA51
:100890000BE12078800601D5E06900E00620B8F180
:1008A000650F814606D0B8F1660F18D0B8F1670F12
:1008B00070D131E00020B9F1110F009001DB11235C
:1008C00001E009F101030AAA01A90CA8FFF7E2FE61
:1008D000DDE90C70002609F10105834647E001209F
:1008E0004B4600904FF000470AAA01A90CA8FFF759
:1008F000D1FEDDE90DB00C995D46002610B909F175
:1009000001000D18B9EB050003D4C0F1FF3609F161
:100910000105A5EB09002BE0B9F1010F01DA4FF059
:1009200001090020B9F1110F0090484601DD1123A3
:1009300000E003460AAA01A90CA8FFF7ABFEDDE917
:100940000C704D4600268346207800070AD4AB453C
:1009500000DA5D4601A8012D04DD411911F8011CE2
:10096000302907D04F4502DA17F1040F04DA0120CD
:1009700082460FE06D1EEEE7002F02DCED1B3E44C9
:1009800003E0781CA84200DD7D1CB81B00F1010AC1
:100990004FF000472078000703D4AA4501DB4FF051
:1009A000FF3A0021B7F1004F0DF143088DF84310D5
:1009B00024D002202B23002F01DA7F422D230A218D
:1009C000021EA0F1010000DC5FB197FBF1FC97FB78
:1009D000F1F201FB1C7C17460CF1300C08F801CD3C
:1009E000EEE7A8F1010003702188090501D5452132
:1009F00000E06521A0F1010800F8011C09980FA989
:100A0000A1EB0807FF1D00B10120411901EBEA70BD
:100A1000A1693844081A401EA0612078C00602D49B
:100A20002046FFF7C5FD099828B1D4E90121904778
:100A3000206A401C20622078C00622D52046FFF79D
:100A4000B7FD1EE0002E04DBB34502DD01A8805D8A
:100A500000E03020D4E901219047206A401C206248
:100A6000761CAAF101005FEA000A0AD100F120F920
:100A7000C0680168405CD4E901219047206A401CAD
:100A80002062281EA5F10105DCDC07E0D4E9012184
:100A900018F8010B9047206A401C2062381EA7F10D
:100AA0000107F3DC2046FFF799FD032011B041E672
:100AB00010B5436913B1AFF3008001E0FFF0CEFC45
:100AC000012010BD128800F1240182840022C2841A
:100AD0000122EDE711684FF0FF32E9E710B500F1B0
:100AE000E7F8001D10BD00BF794D01002DE9F0476A
:100AF000814616468AB0354878440DC88DE80D0009
:100B000032487844801C03AC0DC884E80D0041F6DF
:100B10009B300844372190FBF1F290FBF1F5A5F1F1
:100B2000800501FB12041B3C02D56442012000E059
:100B30000020DFF898A080460027FA44AAF1BE0AF8
:100B40000EE0E0070AD03246684607EB4701012372
:100B50000AEB810114F01CFD8DE8070064107F1C76
:100B6000002CEED1194F7F44AE3F19E0E80715D0B5
:100B700007EB04100DF1180A90E80E008AE80E0049
:100B8000C068F04201D1981908903246012306A9A5
:100B900003A814F0FDFC03AB83E807006D10641C90
:100BA000002DE3D14FF0010332466946B8F1000F42
:100BB00003A802D011F1AAFF01E014F0E9FCC9E991
:100BC0000001C9F808200AB0BDE8F087484E0100CE
:100BD00080B594B01390139812900020ADF83200B5
:100BE000ADF830008DF82F0014F0B6F80D90129883
:100BF000006804F1E5FF0BF143F8FFE7002003F084
:100C0000E7FE12980079002800F0EC80FFE740F240
:100C10003000C2F2004004904168002005908847EF
:100C200004990598898EC90B8DF82E109DF82E1009
:100C30000690B9B1FFE740F23000C2F2004081896E
:100C400000204909182906900CD8FFE740F230002F
:100C5000C2F20040018C0020B1F5F07F38BF0120C6
:100C60000690FFE7069800F001008DF82D009DF832
:100C70002D00002800F09180FFE740F23000C2F222
:100C800000408089BDF8321088420BDBFFE740F25C
:100C90003000C2F200408089BDF83210401A80B2A4
:100CA00003900AE0BDF8320040F23001C2F2004188
:100CB0008989401A80B20390FFE70398ADF82A00B3
:100CC00040F23000C2F20040008CBDF83010884283
:100CD0000BDBFFE740F23000C2F20040008CBDF8B1
:100CE0003010401A80B202900AE0BDF8300040F2A5
:100CF0003001C2F20041098C401A80B20290FFE735
:100D00000298ADF8280004F083F9ADF826009DF8AC
:100D10002F0070B1FFE7BDF82A00BDF82610884209
:100D200007DAFFE7BDF82800BDF82610884230DB5F
:100D3000FFE79DF82F00002818BF01208DF838002C
:100D400000208DF8390040F23001C2F200418A895A
:100D5000ADF83A20098CADF83C108DF83E0001202A
:100D60008DF83F0013F0F8FF1090129800680EA95C
:100D700004F1F6FABDF83A00BDF83C1004F0CCFEE0
:100D8000BDF83A00ADF83200BDF83C00ADF83000D7
:100D9000FFE701208DF82F0023E09DF82F00F8B128
:100DA000FFE702208DF83800002001908DF839000F
:100DB000BDF83210ADF83A10BDF83010ADF83C1067
:100DC0008DF83E008DF83F0013F0C6FF109012988A
:100DD00000680EA904F1C4FA01988DF82F00FFE70E
:100DE000FFE7FFE7FFE70DF11F000CF08DF898B368
:100DF000FFE79DF8240020B3FFE79DF8250018B910
:100E0000FFE704F1C1FEFFE79DF825100620002949
:100E100018BF05208DF8380001208DF8390000201A
:100E2000ADF83A00ADF83C008DF83E008DF83F007B
:100E300013F092FF1090129800680EA904F190FA36
:100E4000FFE79DF81F0030B9FFE70DF11F000130EB
:100E500004F092FDFFE7C6E704F07AFD12980068FF
:100E6000009013F079FF0146009804F02DFAFFE797
:100E70000DA8052113F014FEFFE7BFE600000000F7
:100E800080B5B6B0359035983490002003908DF839
:100E9000A8008DF8AD008DF8AE004FF4C871ADF824
:100EA000B010F021ADF8B2102E902F90309031900C
:100EB0008DF8C8008DF8C9008DF8CA00FF208DF8A4
:100EC000CB008DF8CC0004F187FD11A802F050FE94
:100ED000C0B1FFE7149B11A83C306946086045F695
:100EE0004942C0F611020DF1130002903121FFF0CA
:100EF00011F9029A45F6BC71C0F60101022004F016
:100F00005FFBFFE705F104FE05F19AF805F158F9DA
:100F1000014645F68830C0F6110045F6A032C0F60D
:100F20001102002918BF024645F67521C0F61101CD
:100F30000020019004F044FB05F1BEFE019846F24A
:100F40009A31C0F6010145F64D32C0F6110204F0A7
:100F500037FB13F001FF259025983190259800F577
:100F6000FA602D9034990879896808F0A5FDFFE7AB
:100F7000012003F02DFD3498006826A9322204F0E8
:100F80006BF8012875D1FFE713F0E6FE25902AA83B
:100F900026A905F1A5FB08B1FFE769E005F0A0FB74
:100FA00060B3FFE79DF8C80050B1FFE79DF89800D7
:100FB000022804D1FFE700208DF8C800FFE71CE0FD
:100FC00026A805F0DDFAB8B1FFE705F111FE259876
:100FD00031909DF89800B0FA80F040098DF8C80073
:100FE00045F6D731C0F6110145F62142C0F611028F
:100FF000002004F0E5FAFFE7FFE738E09DF8C800BD
:1010000060B1FFE7259831909DF89800022804D13F
:10101000FFE700208DF8C800FFE727E02598319012
:101020009DF8A800012807D1FFE73499259B2AA83D
:1010300026AA05F1DDFA18E09DF8A800032806D1DC
:10104000FFE7259A2AA826A905F0BEFA0CE09DF82C
:10105000A800042807D1FFE73499259B2AA826AACF
:1010600005F182F9FFE7FFE7FFE7FFE7FFE7FFE7AB
:10107000FFE713F071FE25903499259A2AA805F10F
:1010800057FC02F131FF73E782B08DF80600FFE7ED
:1010900047F23400C5F20020006800909DF800007F
:1010A00010F0450F01D0FFE700E0F1E79DF80000E8
:1010B000400700280FD5FFE747F23801C5F20021AD
:1010C0000420086040F6FF70C1F6E070086003205D
:1010D0008DF807002EE09DF80000C00748B1FFE73B
:1010E00047F23801C5F20021012008608DF80700A1
:1010F00020E047F21000C5F2002000689DF80610BD
:10110000884204D0FFE710208DF8070012E047F274
:101110003801C5F2002140F6FF70C1F6E0700860AA
:1011200047F21400C5F20020006800F008008DF8B6
:101130000700FFE79DF8070002B0704700000000BD
:1011400080B586B00020C4F2020000680590082136
:10115000C4F202013D200860002004909DF81400B4
:10116000C006002805D5FFE7049840F00100049070
:10117000FFE79DF814008006002805D5FFE70498D6
:1011800040F002000490FFE79DF8140010F00C0FEF
:1011900005D0FFE7049840F004000490FFE70498AE
:1011A00058B3FFE741F26C10C2F20340006820B36D
:1011B000FFE70021039141F26C10C2F20340006886
:1011C000049A6B460DF10C0CC3F804C0196001239E
:1011D00011F19EF8FFE7039860B1FFE74EF6045166
:1011E000CEF200014FF080500860BFF34F8FBFF385
:1011F0006F8F00E0FFE7FFE7FFE706B080BD00006C
:101200001EF0040F0CBFEFF30880EFF30980714666
:10121000072202F045BC0000EFF30980BFF36F8F97
:10122000154B1A681EF0100F08BF20ED108A20E938
:10123000F04F10602DE909004FF0500072B680F3B6
:101240001188BFF34F8FBFF36F8F62B610F1E4FCCC
:101250004FF0000080F31188BDE8090019680868A4
:10126000B0E8F04F1EF0100F08BFB0EC108A80F30A
:101270000988BFF36F8F7047C4A2032400000000E9
:1012800080B586B08DF8160000208DF8150004900A
:1012900003908DF80B009DF8160020B1FFE70220A7
:1012A0008DF80B0003E000208DF80B00FFE747F2FC
:1012B0001400C5F2002000688001002804D5FFE773
:1012C0000E208DF8170046E040F2AC60C2F20040FC
:1012D000008803A900F164FC8DF815009DF8150045
:1012E00028B1FFE79DF815008DF8170033E09DF851
:1012F0001200400700282AD5FFE740F2AC60C2F296
:1013000000400068020437200190012100F028F815
:101310000198FFF7B9FE8DF815009DF8150028B16A
:10132000FFE79DF815008DF8170014E09DF80B20DD
:1013300006200090012100F013F80098FFF7A4FEAA
:101340008DF815009DF815008DF8170003E0252095
:101350008DF81700FFE79DF8170006B080BD00006C
:1013600083B08DF80B008DF80A10019200200090D8
:10137000019847F20801C5F2002108609DF80B00B2
:1013800000F03F010098084300909DF80A10009873
:1013900040EA01200090009840F4805000900098AE
:1013A00047F20C01C5F20021086003B0704700004D
:1013B00080B584B0029000208DF80700ADF80400DD
:1013C00040F2A060C2F200400078032804D1FFE799
:1013D00027208DF80F0048E040F2A060C2F20040E4
:1013E000007880B1FFE740F2A060C2F200400078D0
:1013F000012808D0FFE740F2A060C2F20040007868
:1014000002282CD1FFE70298022804D3FFE7272007
:101410008DF80F0029E09DF80800FFF731FF8DF8E7
:1014200007009DF80700C0B9FFE747F20401C5F2C5
:1014300000210868ADF80400BDF804006FF39F3088
:10144000ADF80400029ABDF8040040EA8230ADF81D
:101450000400BDF804000860FFE7FFE7FFE7FFE7CF
:101460009DF807008DF80F00FFE79DF80F0004B00E
:1014700080BD000000000000B0B582B001900021E6
:101480008DF803108DF8021040F2A060C2F2004007
:101490000278019B83F8562040F2AC62C2F200420F
:1014A0001268019BA3F8542040F29062C2F20042FD
:1014B000D3788DF802309DF802309B09DDF804C026
:1014C0008CF800309DF80230C3F38303DDF804C0CC
:1014D0008CF801309DF8023003F00303DDF804C0FE
:1014E0008CF8023053888DF802309DF80230DDF818
:1014F00004C08CF8033013681B0A8DF802309DF885
:101500000230DDF804C08CF8043013688DF8023026
:101510009DF80230DDF804C08CF80530D3798DF8E1
:1015200002309DF802301B01DDF804C0ACF8063033
:10153000D3888DF802309DF802E0DDF804C0BCF8D5
:10154000063043EA1E13ACF806309DF8023003F073
:101550000F03DDF804C08CF808305268120A8DF8C9
:1015600002209DF80220D209019B5A729DF80220A8
:10157000C2F38012019B9A729DF80220C2F34012BE
:10158000019BDA729DF80220C2F30012019B1A73CC
:10159000019A5173007880B1FFE740F2A060C2F277
:1015A00000400078012808D0FFE740F2A060C2F2B6
:1015B00000400078032873D1FFE79DF8020000F097
:1015C000030080020199086140F29060C2F200407D
:1015D00041688DF802109DF80230019A116941EAC4
:1015E00083011161C17A8DF802109DF80230019AD1
:1015F000116941EA931111619DF80210C1F3C20112
:10160000019A11759DF8021001F00701019A5175B8
:1016100041898DF802109DF802104909019A9175CF
:101620009DF80210C1F38201019AD1759DF8021054
:1016300001F003014900019A11768068000A8DF8D3
:1016400002009DF802200199087E40EAD210087637
:101650000199086901300022CA648864019A107EE9
:10166000811C012000FA01FC4FEAEC74D16CD2F825
:1016700048E0AEFB0C350EFB045E01FB0CE193640D
:10168000D16401990A7A9040086501998A6CC86C06
:101690000B6DA2FB032C00FB03C08A64C86439E015
:1016A00040F2A060C2F200400078022831D1FFE78A
:1016B00040F29060C2F2004041688DF802109DF83F
:1016C000021001F03F010904019A1161C17A8DF8FD
:1016D00002109DF80230019A116941EA032111615B
:1016E00041898DF802109DF80230019A1169194361
:1016F00011618068000A8DF8020001990869421C96
:10170000D004520BCA64886401994FF400700865D4
:10171000FFE7FFE79DF80200C0F3801001994876CB
:101720009DF8020000F03F0040000199887640F2E9
:101730009060C2F2004081688DF802109DF802307E
:10174000019A917E41EAD31191769DF8021001F041
:101750007F01019AD176C17B8DF802109DF80210AD
:10176000C909019A11779DF80210C1F34111019A3C
:1017700051779DF80210C1F38201019A91779DF88B
:10178000021001F003018900019AD177C1898DF817
:1017900002109DF80230019AD17F41EA9311D1776E
:1017A0009DF80210C1F34011019A82F82010019AAD
:1017B000002182F821109DF8021001F00101019A28
:1017C00082F82210C168090A8DF802109DF80210F3
:1017D000C909019A82F823109DF80210C1F3801103
:1017E000019A82F824109DF80210C1F34011019A69
:1017F00082F825109DF80210C1F30011019A82F8B9
:1018000026109DF80210C1F38101019A82F8271079
:101810009DF8021001F00301019A82F82810C068B7
:101820008DF802009DF802004008019981F8290016
:101830000199012081F82A0040F28061C2F2004142
:10184000CA788DF802209DF80220019B83F82C2095
:101850004A888DF802209DF802201202019BDA8549
:101860000A68120A8DF802209DF802C0019BDA8DE9
:1018700042EA0C02DA850A688DF802209DF80220FF
:101880001206019B1A63CA798DF802209DF802C0E6
:10189000019B1A6B42EA0C421A63CA888DF8022037
:1018A0009DF802C0019B1A6B42EA0C221A634A6837
:1018B000120A8DF802209DF802C0019B1A6B42EAC1
:1018C0000C021A634A688DF802209DF80220019BE1
:1018D00083F83420CA7A8DF802209DF80220019BFB
:1018E00083F835204A898DF802209DF802201206DF
:1018F000019B9A638A68120A8DF802209DF802C043
:10190000019B9A6B42EA0C429A638A688DF8022026
:101910009DF802C0019B9A6B42EA0C229A63CA7B33
:101920008DF802209DF802C0019B9A6B42EA0C02DE
:101930009A63CA898DF802209DF802C0019B93F832
:101940003C2042EA1C1283F83C209DF8022002F061
:101950000F021202019BDA87CA68120A8DF8022070
:101960009DF802C0019BDA8F42EA0C02DA87C9684F
:101970008DF802109DF802104908019A82F8401073
:10198000019981F841009DF8030002B0B0BD00004C
:1019900080B58CB000230A938DF82F308DF82E304F
:1019A00044F2E041C5F60201086840F00C0008600E
:1019B00044F2D441C5F60201086840F48030086062
:1019C00069464B6003200590086040F60000C5F6AC
:1019D000020003904FF4F8510491022206920FF195
:1019E0005BF8039804990C22099211F0E1FE059826
:1019F000069A0A9B69464B60086040F60040C5F6AF
:101A000002000790042108910FF146F80798089901
:101A1000099A11F0CDFE0A9847F20001C5F20021A3
:101A2000086047F20401C5F20021086047F208018E
:101A3000C5F20021086047F20C01C5F200210860E0
:101A400047F22401C5F20021086047F22801C5F2DF
:101A50000021086047F22C01C5F20021086047F21E
:101A60003802C5F2002240F6FF71C1F6E071116044
:101A700047F23C01C5F20021086000F121FB8DF81E
:101A80002F009DF82F0028B9FFE700F131FA8DF8FB
:101A90002F00FFE79DF82F0048B9FFE740F2B06044
:101AA000C2F20040FFF7E8FC8DF82F00FFE79DF839
:101AB0002F0060B9FFE740F2B060C2F20040B0F81A
:101AC0005400000400F188FC8DF82F00FFE79DF81A
:101AD0002F0030B9FFE70120FFF76AFC8DF82F00D7
:101AE000FFE79DF82F0040B1FFE740F2A060C2F28F
:101AF0000040007803281ED1FFE740F2B060C2F238
:101B0000004090F8560048B1FFE740F2B060C2F2E2
:101B1000004090F85600012804D1FFE706208DF818
:101B20002E0003E004208DF82E00FFE79DF82E0024
:101B300000F18EF9FFE79DF82F000CB080BD00008A
:101B400080B58EB00146119810980C910B930A92B3
:101B5000ADF8260000208DF8250008904FF0FF31E9
:101B600007910C99069147F22C01C5F200210860FB
:101B700040F2A060C2F20040007802280DD1FFE7D9
:101B80004FF40070ADF826000A980B99400A40EA1D
:101B9000C15049120B910A90FFE7BDF82620102092
:101BA00005900121FFF7DCFB0598FFF76DFA8DF832
:101BB00025009DF8250068B1FFE79DF8251046F641
:101BC000CD60C0F60100FEF737FC9DF825008DF8CA
:101BD000370027E11198BDF8261041434FF0FF3040
:101BE0000922012300F14CF947F20C01C5F2002152
:101BF000086840F040000860119802281BD3FFE7F6
:101C00000A9A122004900121FFF7AAFB0498FFF71B
:101C10003BFA8DF825009DF8250058B1FFE746F600
:101C2000E160C0F60100FEF707FC9DF825008DF885
:101C30003700F7E014E00A9A112003900121FFF722
:101C40008FFB0398FFF720FA8DF825009DF82500FB
:101C500028B1FFE79DF825008DF83700E2E0FFE7A7
:101C60000EF196FFFFE747F23400C5F2002000684E
:101C700010F4957F33D1FFE747F23400C5F200201E
:101C80000068000400281ED5FFE700200890FFE749
:101C9000089807280ED8FFE747F28000C5F2002019
:101CA00000680699089A41F82200FFE70898013079
:101CB0000890EDE70698203006904FF6FF70C0F2CE
:101CC0007F0007900AE0079820B9FFE704208DF80D
:101CD0003700A7E0079801380790FFE7C3E747F20E
:101CE0000C01C5F20021086820F0400008600EF1E8
:101CF00053FF47F23400C5F20020006800070028B7
:101D00000CD5FFE747F23801C5F20021086840F022
:101D10000800086004208DF8370083E047F23400A3
:101D2000C5F200200068800700281CD5FFE747F2B5
:101D30003801C5F20021086840F0020008601198DF
:101D400002280CD3FFE70C20029001210022FFF7AC
:101D500007FB0298FFF798F98DF82500FFE70220AE
:101D60008DF837005EE047F23400C5F200200068CD
:101D7000800600280CD5FFE747F23801C5F20021A4
:101D8000086840F02000086006208DF8370049E020
:101D9000FFE7FFE747F23400C5F200200068C00506
:101DA000002831D5FFE7119802282DD3FFE740F234
:101DB000A060C2F20040007880B1FFE740F2A0606E
:101DC000C2F200400078012808D0FFE740F2A0608E
:101DD000C2F200400078022815D1FFE70C200190E4
:101DE00001210022FFF7BCFA0198FFF74DF98DF8A9
:101DF00025009DF8250028B1FFE79DF825008DF806
:101E000037000FE0FFE7FFE747F23801C5F2002196
:101E100040F6FF70C1F6E07008609DF825008DF86F
:101E20003700FFE79DF837000EB080BD00000000CE
:101E300080B582B04FF0500072B680F31188BFF3C6
:101E40006F8FBFF34F8F62B6009010F1C9FB40B1A6
:101E5000FFE74EF60451CEF200014FF080500860CB
:101E600000E0FFE700200190019880F3118802B0A4
:101E700080BD0000000000001EF0040F0CBFEFF357
:101E80000880EFF309807146062201F009BE0000C8
:101E900081B0ADF80200BDF9020000280ED4FFE7C2
:101EA000BDF9021001F01F02012090404A094EF2D4
:101EB0000011CEF2000141F82200FFE701B07047A7
:101EC00080B5F0B041F20910C2F20240007808B9C2
:101ED000FFE713E023A801904FF49A71FEF0A2F9F6
:101EE00001980E218DF8901002A900F0D9FC41F262
:101EF0000911C2F2024100200870FFE770B080BDF6
:101F000085B0049003910292049818B1FFE70398FA
:101F100008B9FFE728E0002001900298F8B1FFE738
:101F2000FFE702980199415C0020009049B1FFE76A
:101F30000198411C039A0020914238BF0120009073
:101F4000FFE70098C00748B1FFE70298019A805C5C
:101F500004998854019801300190E2E7FFE7049961
:101F6000019A00208854FFE705B070470000000088
:101F700080B582B00190019808B9FFE70CE012F03B
:101F8000B7F9019841F21C11C2F202415822FEF049
:101F900017F912F0DDF9FFE702B080BD0000000084
:101FA00086B01021C4F20201086820F00100086028
:101FB00048F2A060C0F201000190FFE71020C4F2D7
:101FC000020001680020C907009031B1FFE70198C5
:101FD000002818BF01200090FFE70098C00720B13B
:101FE000FFE7019801380190E8E70821C4F20201F7
:101FF0003D20086040F60001C4F20201282008607C
:102000001821C4F2020143F62000C4F20000086067
:1020100040F62070C2F200401C21C4F202010860A8
:102020001422C4F202024FF6E07111602422C4F2BD
:102030000202002111601022C4F2020242F65E5137
:10204000C0F20201116005904FF6C070C0F20100AD
:1020500004900498012820DBFFE70498059901F01B
:102060001F010844039005980290BFF34F8FFFE7CC
:1020700002984EF66871CEF2000108600298203096
:10208000029003982038039003980028F0DCFFE7C3
:10209000BFF34F8FBFF36F8FFFE7BFF34F8F102159
:1020A000C4F20201086840F00100086043F608012C
:1020B000C4F20001086840F40040086043F60001E3
:1020C000C4F20001086840F001000860086840F4AC
:1020D0000070086006B0704782B043F60801C4F291
:1020E0000001086820F40040086043F60001C4F2D3
:1020F0000001086820F0010008601021C4F202010C
:10210000086820F00100086048F2A060C0F20100F9
:102110000190FFE71020C4F2020001680020C90707
:10212000009031B1FFE70198002818BF012000900E
:10213000FFE70098C00720B1FFE701980138019040
:10214000E8E70821C4F202013D20086043F61801C7
:10215000C4F2000140F6F870086002B07047000059
:1021600080B586B041F21C10C2F2024001905821A5
:102170000391FEF057F8039941F2E010C2F20340D8
:102180000290FEF04FF8029800210491017140F294
:102190001801C2F2004109784172253046F6B53285
:1021A000C0F601023021FFF7ABFE01980299039AB5
:1021B000FEF006F8049A062001210FF1ADFE01465B
:1021C00040F60870C2F200400160006818B9FFE7ED
:1021D000002005900FE040F60870C2F20040006851
:1021E00046F6F041C0F601010FF1FAFB00F008F8E5
:1021F00001200590FFE7059806B080BD00000000B3
:1022000080B582B000F120FE44F2D841C5F602014B
:10221000086840F00100086044F2E840C5F602009A
:10222000016841F480410160006844F25041C5F604
:1022300002010868012262F30E30086044F2904106
:10224000C5F60201086840F480400860086820F480
:10225000804008601021C4F202010020086024219F
:10226000C4F2020108600821C4F202013D200860A6
:1022700040F60001C4F20201282008600B20019002
:10228000062100F101FC0198FFF702FE02B080BDBB
:1022900080B586B00590059850B1FFE7059A41F2E8
:1022A000E010C2F2034025303021FFF729FEFFE79E
:1022B00040F21800C2F20040007841F2E011C2F290
:1022C0000341487241F20910C2F202400178002035
:1022D000049029B3FFE741F2E010C2F20340017914
:1022E00001200229039018D0FFE741F2E010C2F26A
:1022F000034001790020032902900BD1FFE741F24E
:102300001910C2F2024000780238B0FA80F0400999
:102310000290FFE702980390FFE703980490FFE71D
:10232000049800F0010041F2E011C2F20341019172
:10233000887211F0DDFF019941F21C10C2F20240D7
:10234000026801320A605822FDF03AFF12F000F8EC
:1023500006B080BD0000000080B5FAB08DF8E7013E
:1023600041F20910C2F202400078C0B1FFE741F229
:10237000E010C2F203400079022817D0FFE741F2D3
:10238000E010C2F203400079032808D1FFE741F2D0
:102390001910C2F202400078022807D0FFE746F683
:1023A000AE40C0F60100FFF773FF66E141F2E010B6
:1023B000C2F20340C0794000ADF81A00BDF81A001F
:1023C00088B1FFE741F2E010C2F20340C06850B1AB
:1023D000FFE741F2E010C2F203400069BDF81A10B5
:1023E000884207D2FFE746F6D640C0F6010000F06B
:1023F00007FA42E141F2E010C2F2034001790339E9
:10240000B1FA81F149098DF81910C168BDF81A2097
:1024100051430A910A9901EB8101099140690890A1
:102420009DF9E701B0F1FF3F10DCFFE7089809993B
:10243000884205D9FFE708980999401A059002E0FB
:1024400000200590FFE7059808901DE0089809997D
:1024500009184FF0000040F1000041F2E012C2F212
:1024600003421269891A70F1000007D3FFE741F2B5
:10247000E010C2F203400069089004E0099908984E
:1024800008440890FFE7FFE70898BDF81A10B0FB72
:10249000F1F048430890FFF71FFE002107916846BE
:1024A00001604FF0FF3207AB084612F089FB2CA801
:1024B00004904FF49A71FDF0B5FE04980D218DF84B
:1024C000B410089978910BA900F0EAF9012804D119
:1024D000FFE79DF83100F0B1FFE7FFF7F1FC41F2B3
:1024E000E011C2F203410620087141F21811C2F254
:1024F00002410020087046F6E710C0F60100039084
:10250000FFF7C6FE039A46F6CF01C0F6010102208E
:1025100003F056F8B1E0119841F2E011C2F2034124
:1025200048619DF8360038B1FFE746F6E830C0F65E
:10253000010000F065F9A0E041F26411C2F203412C
:102540000020087041F20C11C2F20241486008609C
:1025500000F112FB8DF818009DF91800B0F1FF3F53
:1025600007DCFFE746F6F530C0F6010000F048F959
:1025700083E09DF91800012814DBFFE740F6207086
:10258000C2F200404FF6E0710844FDF04BFE01201E
:10259000029000F1B5FA029841F26411C2F20341CF
:1025A00008701EE0012000F1E7FA8DF818009DF98F
:1025B0001800B0F1FF3F07DCFFE746F6F530C0F644
:1025C000010000F01DF958E09DF91800012807DB13
:1025D000FFE741F26411C2F2034102200870FFE7F5
:1025E000FFE741F21911C2F20241022008709DF882
:1025F0001900E0B1FFE741F2E011C2F2034103200C
:10260000087141F21811C2F20241012008709DF9CF
:10261000E72146F6B721C0F6010146F69620C0F63E
:102620000100002A48BF0846FFF732FE1DE041F2D4
:10263000E011C2F203410220087141F21811C2F206
:10264000024100200870FFF7ABFC9DF9E72146F638
:102650003541C0F6010146F61D40C0F60100002AD2
:1026600048BF0846FFF714FEFFE712F075FB41F282
:102670001411C2F202410860FFE77AB080BD000089
:1026800080B582B08DF807009DF80700652804D357
:10269000FFE764208DF80700FFE711F029FE9DF8A1
:1026A000070040F21801C2F2004108709DF80700CF
:1026B00041F21C11C2F20241487208680130086000
:1026C00011F046FE02B080BD80B582B0FFF704FD78
:1026D000FFF7F6FB41F27011C2F2034147F20070BE
:1026E000C0F20100086041F27410C2F20340002100
:1026F000016041F26410C2F20340017041F218100F
:10270000C2F20240017041F21912C2F202420120EB
:10271000107041F20C10C2F202404160016041F2BF
:10272000E010C2F203400222C271102202724BF684
:1027300080320192C2604DF60042C0F20502026191
:102740004161183046F6A342C0F601020D21FFF7A1
:10275000D7FB019800F19CFB68B9FFE741F2E0115B
:10276000C2F203410620087146F62B20C0F6010094
:10277000FFF78EFD3FE0002000F1D6FA38B1FFE709
:1027800041F26411C2F2034101200870FFE741F2F7
:102790006410C2F20340007860B9FFE7012000F145
:1027A000C3FA38B1FFE741F26411C2F203410220DB
:1027B0000870FFE741F2E011C2F203410420087102
:1027C00012F0CAFA41F21411C2F20241086046F650
:1027D0006130C0F60100FFF75BFD46F6CF01C0F6A1
:1027E000010146F6EB22C0F60102002002F0E8FEED
:1027F000FFF7D6FBFFE702B080BD0000000000003D
:1028000080B582B00190FFF767FCFFF759FB41F2FA
:102810006411C2F203410020087041F21811C2F2A3
:102820000241087041F21912C2F2024201211170F4
:1028300041F20C11C2F202414860086041F270118D
:10284000C2F20341086041F2E010C2F20340407955
:1028500080B1FFE741F2E010C2F20340827941F219
:102860007813C2F203430D2112FB01321830FFF737
:1028700047FB06E041F2E011C2F203410020087676
:10288000FFE741F2E011C2F203414A790120002A38
:1028900008BF052008710198FFF7FAFC02B080BD5F
:1028A00080B584B00290019112F056FA0090FFE7D3
:1028B000029805F1D9FB01280FD0FFE712F04CFA7E
:1028C0000099401AB0F5FA6F03D3FFE70020039098
:1028D0001CE002200FF118F9EAE7FFE712F03CFADA
:1028E0000099401A00097C280DD8FFE7019805F1EE
:1028F0007BF8012803D1FFE70120039006E00120C7
:102900000FF102F9EAE700200390FFE7039804B013
:1029100080BD00000000000080B584B0ADF80C0060
:10292000ADF80A108DF8092041F69810C2F2034064
:102930008069B0F5806F1ED3FFE741F69811C2F2AF
:10294000034100200090887046F20A61C0F6010140
:1029500046F2FA32C0F61102012002F031FE46F2D0
:102960008340C0F6110001F11FF901F031F8009821
:102970008DF80F0021E041F69811C2F203418869F9
:10298000421C8A6101EBC000F8300190BDF80C00D8
:10299000019A1080BDF80A00019A50804889019A76
:1029A00090809DF80900019A9071019A0020D071E1
:1029B0000120C8708DF80F00FFE79DF80F0004B0EC
:1029C00080BD00000000000085B0049003910292D9
:1029D00000200190049818B1FFE7039808B9FFE7B9
:1029E00026E00298F8B1FFE7FFE702980199415C01
:1029F0000020009049B1FFE70198411C039A002094
:102A0000914238BF01200090FFE70098C00748B10D
:102A1000FFE70298019A805C04998854019801307C
:102A20000190E2E7FFE70499019A00208854FFE74C
:102A300005B070470000000087B006900591069829
:102A400004904FF0FF30039000200290FFE70298BF
:102A5000059988422FD2FFE704980299415C0398B8
:102A60004840039000208DF80700FFE79DF807001D
:102A700007281BD8FFE79DF80C00C00748B1FFE707
:102A8000039948F22030CEF6B85080EA5100009009
:102A900003E0039840080090FFE700980390FFE7E9
:102AA0009DF8070001308DF80700DFE7FFE7029887
:102AB00001300290CBE70398C04307B07047000095
:102AC00080B582B041F69810C2F20340007820B978
:102AD000FFE700208DF807002FE041F69810C2F2C2
:102AE0000340407860B1FFE746F2BD00C0F6110038
:102AF00001F15AF800F06CFF01208DF807001CE08E
:102B000041F69810C2F20340807990B1FFE741F698
:102B10009811C2F203410020887146F22F20C0F6BE
:102B2000110001F141F800F027FC01208DF80700A9
:102B300003E000208DF80700FFE79DF8070002B0D2
:102B400080BD00000000000080B584B0039041F615
:102B50009810C2F20340007850B1FFE7039838B1F3
:102B6000FFE741F69810C2F20340407808B1FFE752
:102B700020E141F69810C2F203408079022816D174
:102B8000FFE70398007888B9FFE741F69810C2F292
:102B90000340007A039A5188928806F14DFBADF804
:102BA00009000DF1090000F007F9FFE702E141F625
:102BB0009810C2F203408079012804D1FFE70398FE
:102BC00000F0CEF9F6E003980078022807D1FFE77D
:102BD00041F69811C2F2034100208870EAE00398A0
:102BE0000078002840F09180FFE7039948888988A1
:102BF00005F1BEFD8DF80B009DF80B00012803D1F7
:102C0000FFE700F07DFDD5E09DF80B00022804D120
:102C1000FFE7002001F18CF8CCE09DF80B000328C1
:102C200004D1FFE7012001F183F8C3E09DF80B0018
:102C3000042807D1FFE741F69811C2F203410020B2
:102C4000488128E09DF80B00052808D1FFE741F6F0
:102C50009811C2F203414FF4784048811AE09DF880
:102C60000B00062808D1FFE741F69811C2F2034194
:102C70004FF4FC6048810CE09DF80B00072807D159
:102C8000FFE741F69811C2F203411F204881FFE798
:102C9000FFE7FFE7FFE79DF80B0004280EDBFFE7E7
:102CA0009DF80B00072809DCFFE746F28520C0F6F7
:102CB000110000F179FF00F08BFE7BE0039948885A
:102CC000898800F02DFBF8B1FFE7039948888988CF
:102CD0000122FFF721FEB8B1FFE741F69810C2F2DA
:102CE0000340012181700399498881810399898872
:102CF000C18103994A888B884089694608601046DB
:102D0000194606F011FCFFE754E00398007801280B
:102D100050D1FFE741F69810C2F2034080780028B6
:102D200048D0FFE703994888898800F0F9FA38B954
:102D3000FFE741F69811C2F203410020887039E0A4
:102D40000398408841F69811C2F20341898988426C
:102D50000BD1FFE70398808841F69811C2F2034136
:102D6000C989884201D1FFE724E00399488889880E
:102D70000022FFF7D1FDE0B1FFE741F6981CC2F257
:102D8000034CCDF804C0BCF80C00BCF80E10039B3B
:102D90005A889B88BCF80AC0EE46CEF800C006F000
:102DA000C3FB019903984088888103988088C88173
:102DB000FFE7FFE704B080BD80B586B00590002036
:102DC0008DF812000598007805280DD1FFE741F62F
:102DD0009811C2F20341087A013818BF0120087225
:102DE00001208DF8120098E00598007806280ED191
:102DF000FFE741F69811C2F20341087A023818BF82
:102E000001204000087201208DF8120084E005982E
:102E10000078022815D1FFE741F69810C2F203406E
:102E2000008A68B1FFE741F69810C2F20340018AB8
:102E30000139018210FA81F1002081F84300FFE797
:102E400069E005980078012846D1FFE705984078A9
:102E50008DF8130041F69810C2F20340008A013049
:102E60000C2838D8FFE79DF81300412805DBFFE761
:102E70009DF813005B281EDBFFE79DF81300612817
:102E800005DBFFE79DF813007B2814DBFFE79DF8C7
:102E90001300302805DBFFE79DF813003A280ADB12
:102EA000FFE79DF813005F2805D0FFE79DF81300AA
:102EB0002D2810D1FFE79DF8132041F69810C2F29B
:102EC0000340038A591C018200F14301CA54028A5B
:102ED00000208854FFE71DE005980078072803D1FB
:102EE000FFE700F045FB39E00598007808280FD18E
:102EF000FFE741F69811C2F203410120887146F2C2
:102F00001F20C0F6110000F14FFE00F035FA25E059
:102F1000FFE7FFE7FFE7FFE7FFE79DF8120018B1C3
:102F2000FFE700F029FA19E041F69810C2F20340D9
:102F3000038A017A6A46916000F1B801516001216B
:102F4000116000F1430146F2EB30C0F6110046F685
:102F50001872C0F6010208F15FFBFFE706B080BD02
:102F600080B586B005900598007808B1FFE7ABE022
:102F700005994888898805F167FE8DF813009DF84A
:102F8000130004285BDBFFE79DF813000B2856DCD9
:102F9000FFE79DF8130004388DF812009DF8120029
:102FA00041F69811C2F203410979884201DBFFE73B
:102FB0008AE041F69810C2F2034090F905009DF9AD
:102FC0001210884222D1FFE741F69810C2F2034066
:102FD000C07968B9FFE79DF8120041F69812C2F275
:102FE00003420D2110FB0120503000F02DFB0CE0BE
:102FF0009DF8120041F69812C2F203420D2110FB17
:103000000120503000F084FAFFE717E09DF812101D
:1030100041F69810C2F203404171C27946F2C231C2
:10302000C0F6110146F22A40C0F61100002A08BF7E
:10303000084600F1B9FD00F09FF9FFE744E09DF874
:103040001300012821D1FFE741F69810C2F2034096
:10305000C079D0B9FFE741F69810C2F20340007979
:10306000082809D3FFE746F28630C0F6110000F1C8
:103070009BFD00F081F927E00DF10500009000F1C3
:1030800037FC009800F0E0FA1DE09DF813000228DC
:1030900003D1FFE700F198FD14E09DF81300032829
:1030A0000FD1FFE741F69811C2F203410020887169
:1030B00046F22F20C0F6110000F176FD00F05CF919
:1030C000FFE7FFE7FFE7FFE706B080BD0000000075
:1030D00080B586B041F69810C2F20340018AADF87F
:1030E000141043302E21FDF035F8049000208DF8A7
:1030F0000F008DF80E00049860BBFFE7BDF81400C8
:1031000058B1FFE7BDF81400082806D8FFE7BDF85E
:10311000140004300D2804D3FFE700208DF81700B9
:10312000DAE0BDF8140041F69811C2F203410A1822
:10313000002082F8470044F22E40C5F25270C2F8D7
:103140004300BDF814000430ADF81400BDF81400BD
:103150000882FFE700208DF80D00FFE79DF80D00C5
:10316000BDF81410884265DAFFE79DF80D1041F6AE
:103170009810C2F20340084490F843008DF80C0008
:103180009DF80C002E2810D1FFE79DF80F0020B10C
:10319000FFE79DF80E0020B1FFE700208DF8170033
:1031A0009AE001208DF80E003DE09DF80C004128CA
:1031B00005DBFFE79DF80C005B2822DBFFE79DF8AD
:1031C0000C00612805DBFFE79DF80C007B2818DB6D
:1031D000FFE79DF80C00302805DBFFE79DF80C00A9
:1031E0003A280EDBFFE79DF80C005F2809D0FFE7C7
:1031F0009DF80C002D2804D0FFE700208DF8170063
:103200006AE09DF80E0030B1FFE79DF80E00013036
:103210008DF80E0005E09DF80F0001308DF80F00CD
:10322000FFE7FFE7FFE7FFE79DF80D0001308DF8AE
:103230000D0093E741F69810C2F2034043302E216F
:10324000FDF71CF904909DF80F1000200290E9B3DF
:10325000FFE79DF80F1000200829029036D8FFE7FD
:103260009DF80E100020042902902FD1FFE7049949
:103270000020029051B3FFE704984078442807D01B
:10328000FFE7049841780020642902901ED1FFE7EF
:1032900004988078522807D0FFE7049881780020AE
:1032A0007229029012D1FFE70498C17801205729B2
:1032B000019008D0FFE70498C0787738B0FA80F022
:1032C00040090190FFE701980290FFE7029800F0A3
:1032D00001008DF81700FFE79DF8170006B080BDCC
:1032E00080B582B041F69810C2F20340019042F2DC
:1032F000F801FCF097FF019901200870FF20487148
:1033000000204881887146F2D740C0F6110000F1D4
:103310004BFC00F031F802B080BD0000000000005E
:1033200082B0ADF80600ADF80410BDF8061000201C
:103330001C29009018D3FFE7BDF806100020B1F556
:10334000197F009010D8FFE7BDF80410002046292F
:10335000009009D3FFE7BDF804100020B1F5D37F3A
:1033600098BF01200090FFE7009800F0010002B034
:10337000704700000000000080B584B041F698104E
:10338000C2F20340007808B9FFE743E041F6981025
:10339000C2F20340807901280DD1FFE741F698136E
:1033A000C2F20343197993F9052003F15000B833B1
:1033B00006F162FE2EE041F69810C2F203408079D9
:1033C00002281AD1FFE741F69810C2F20340038A9F
:1033D000017A6A46916000F1B801516001211160E3
:1033E00000F1430146F2EB30C0F6110046F61872C8
:1033F000C0F6010206F0D8FD0BE041F69811C2F2CA
:10340000034148894A78B83106F05AFC00F180FB44
:10341000FFE7FFE704B080BD80B584B00290019162
:1034200041F69810C2F20340407820B1FFE7002037
:103430008DF80F0067E00298D0F8240198B1FFE7FB
:1034400043F69020C2F20340006860B1FFE746F205
:103450004E40C0F6110000F1A7FB00F0B9FA0020C1
:103460008DF80F004FE043F69420C2F2034001684C
:1034700001310160006838B9FFE743F69421C2F2D8
:10348000034101200860FFE743F69420C2F20340A5
:10349000006802990860029804F1E6FD01280CD04A
:1034A000FFE746F26B00C0F6110000F17DFB00F073
:1034B0008FFA00208DF80F0025E00298006841F691
:1034C0009811C2F2034148610298D0F8240140B13A
:1034D000FFE70298006843F69021C2F203410860BA
:1034E000FFE741F69811C2F20341012000904870B5
:1034F00000208870019800F157FB00F069FA0098ED
:103500008DF80F00FFE79DF80F0004B080BD0000AC
:1035100080B5D0B04F9002A801904FF49A71FCF0A2
:1035200081FE019805218DF80C1005304F9A0D2170
:103530000091FFF749FA009944F23040C2F203408B
:103540004B9042F210004D904F9A41F69810C2F203
:1035500003402930FFF738FA019846F22031C0F6CF
:103560001101FFF759FF50B080BD000000000000BE
:1035700080B5D2B0FFF7ACFDA0B1FFE741F69811DE
:10358000C2F2034101F13600433100F12DFA90B946
:10359000FFE741F69810C2F20340433000F184FA8D
:1035A00048B1FFE746F26730C0F6110000F1FCFABF
:1035B000FFF7E2FE45E041F69811C2F2034101F146
:1035C0003600433100F110FA78B1FFE741F6981167
:1035D000C2F203410120887146F21020C0F61100AA
:1035E00000F1E2FAFFF7C8FE2BE005A804904FF4C3
:1035F0009A71FCF017FE049812218DF8181005300E
:1036000041F69811C2F20341019101F136020D21F8
:103610000291FFF7D9F9019A0299049812304332C6
:103620000392FFF7D1F901980299039A2930FFF725
:10363000CBF9049846F20831C0F61101FFF7ECFE11
:10364000FFE752B080BD000080B5D4B0539043F680
:103650009020C2F20340006848B1FFE746F24E40B6
:10366000C0F6110000F1A0FA00F0B2F946E044F211
:103670003040C2F20340019045F24421C3F2571199
:103680000160012181800821C18041F69811C2F2B8
:10369000034102918A6982608A69D2000592059A83
:1036A00010300090F831FCF08BFD00980599FFF781
:1036B000C3F90199C86006A804904FF49A71FCF010
:1036C000B1FD049806218DF81C100530539A0D2188
:1036D0000391FFF779F9019A029803994F92059A9D
:1036E00010325092539A2930FFF76EF9049846F23F
:1036F0003731C0F61101FFF78FFEFFE754B080BDF0
:1037000080B582B041F69810C2F20340806948B992
:10371000FFE746F27340C0F6110000F145FA00F0F1
:1037200057F935E041F69810C2F20340806901383C
:103730000190FFE701990020009071B1FFE7019926
:1037400041F69810C2F2034000EBC10090F8FE0071
:10375000B0FA80F040090090FFE70098C00720B160
:10376000FFE7019801380190E4E7019841F69811CC
:10377000C2F203418861002088700120C87046F2BF
:10378000AF30C0F6110000F10FFAFFF7F5FDFFE7CB
:1037900002B080BD0000000080B5A2B0FFE704A821
:1037A00004F002FE012840F01081FFE7049843F680
:1037B0009021C2F203410968884207D1FFE743F62E
:1037C0009021C2F2034100200860FFE7049841F60F
:1037D0009811C2F203414969884201D0FFE7DEE750
:1037E00041F69810C2F20340002141614170007817
:1037F00008B9FFE7D3E79DF81500A0B1FFE746F24F
:103800000A61C0F6010146F24622C0F6110202200A
:1038100001F0D6FE9DF8150000F146FA00F1C4F95A
:1038200000F0D6F8BBE79DF81400112822D1FFE77D
:103830009DF81C1041F69810C2F2034002900171ED
:1038400004A90D3150306822FCF742FE0298FF2196
:103850004171C27946F24B51C0F6110146F20C405B
:10386000C0F61100002A08BF084600F19DF9FFF7D5
:1038700083FDA9E09DF81400062823D1FFE741F657
:103880009811C2F20341019101F11C0001F12902DA
:103890000D21FFF799F801990020C870887146F250
:1038A0000A61C0F6010146F29A22C0F6110201F047
:1038B00087FE46F2E820C0F6110000F175F9FFF727
:1038C0005BFD80E09DF8140005284BD1FFE70698CA
:1038D000FFF07EFFA0B9FFE746F20A61C0F60101E2
:1038E00046F2A442C0F61102022001F069FE46F23F
:1038F000B840C0F6110000F157F900F069F84EE742
:1039000044F23041C2F203418A6841F69810C2F293
:103910000340009082618269D2000392039AF830DA
:103920001031FCF04DFC009901F11C0001F129025D
:103930000D21FFF749F800990020C870887146F200
:103940000A61C0F6010146F20122C0F6110201F03F
:1039500037FE46F2C520C0F6110000F125F9FFF749
:103960000BFD2FE09DF8140012282AD1FFE741F645
:103970009811C2F2034101F11C00363100F134F814
:1039800060B1FFE741F69811C2F2034101F11C005A
:1039900001F129020D21FFF717F8FFE746F20A614E
:1039A000C0F6010146F27522C0F61102002001F0B6
:1039B00007FE41F69810C2F20340C07900F1B8F951
:1039C000FFE7FFE7FFE7FFE7E9E622B080BD000081
:1039D00080B541F69810C2F20340007808B9FFE7BD
:1039E00013E041F69810C2F20340807950B9FFE726
:1039F00041F69811C2F2034148894A78B83107F07C
:103A0000CFFF02E0FFF7B8FCFFE780BD0000000039
:103A100080B582B000F1C8FB0190019900200860D8
:103A200000F076F802B080BD84B0039002910020CF
:103A30000190FFE701980F2809D8FFE70399019A41
:103A400000208854FFE7019801300190F2E7002040
:103A50000190FFE701980E281FD8FFE7029850B1A8
:103A6000FFE702980199405C28B1FFE702980199AD
:103A7000405C009002E000200090FFE7009803996E
:103A8000019A885403980199405C08B9FFE704E063
:103A9000FFE7019801300190DCE704B070470000B7
:103AA0009AB01990189117929DF85C0045F6B27182
:103AB000C0F6010100F1F4FA00F176FB02900299E0
:103AC00003A85022FCF07CFB199898B1FFE79DF801
:103AD0006000C006002804D4FFE719984830199008
:103AE000FFE7199840691090199880690F9019980C
:103AF0001190FFE703A8019000F14AF9019916908F
:103B000002985022FCF05CFB00F002F8FEF0E0FFAF
:103B100080B584B000F148FB0390602002900298C9
:103B2000012820DBFFE70298039901F01F010844F8
:103B3000019003980090BFF34F8FFFE700984EF677
:103B40006871CEF200010860009820300090019862
:103B50002038019001980028F0DCFFE7BFF34F8F79
:103B6000BFF36F8FFFE7BFF34F8F04B080BD00003E
:103B700080B598B0169000F117FB1590159901A823
:103B80005022FCF01DFB019844F63141C4F254610F
:103B9000884214D1FFE7BDF8080001280FD1FFE7E4
:103BA000BDF80A0050280AD1FFE71498009001A838
:103BB00000F1EEF801460098884204D0FFE70020AB
:103BC0008DF85F000CE0169830B1FFE7169801A958
:103BD0005022FCF0F5FAFFE701208DF85F00FFE7C7
:103BE0009DF85F0018B080BD80B59CB01B901A9105
:103BF0001B9818B1FFE71B98029005E045F6C270CC
:103C0000C0F601000290FFE7029804900498039028
:103C1000FFE70398007890B1FFE7039800782F281A
:103C200005D0FFE7039800785C2804D1FFE70398EC
:103C300001300490FFE7039801300390E9E704990D
:103C4000012000F12DFA00F1AFFA0590059906A8C0
:103C5000009050220192FCF0B3FA00981A99129148
:103C600000F196F80099019A19900598FCF0A8FACD
:103C7000FFF74EFF1CB080BD80B5D2B0519043F627
:103C8000B840C2F20340407D78B9FFE743F6B8413F
:103C9000C2F203410120487546F29F00C0F61100B0
:103CA00000F0AEFD01F1F0F828E004A803904FF415
:103CB0009A71FCF0B7FA039804218DF814100530BE
:103CC000519A0D21019100F17BFA019943F6B84018
:103CD000C2F20340029000F59E7046F61872C0F6DC
:103CE000010200F16DFA029A03980021517545F620
:103CF000ED61C0F6110100F003FEFFE752B080BD98
:103D000080B543F6B841C2F20341002048770884E9
:103D100081F82F0081F8220045F6CE50C0F6110040
:103D200000F06EFD01F1B0F880BD00000000000061
:103D300080B588B043F6B840C2F203402F300490FB
:103D4000FCF7A7FB01460498ADF816102E21FCF0F5
:103D500001FA002855D1FFE743F6B840C2F203400C
:103D6000407F03280BD1FFE743F6B840C2F203407F
:103D700000F22F102E21FCF781FB039005E046F6A0
:103D80002E10C0F601000390FFE7039806900698F6
:103D900030B9FFE746F61870C0F601000690FFE75D
:103DA0000698FCF776FBADF81400BDF8160068B174
:103DB000FFE7BDF81600082808D8FFE7BDF8160091
:103DC000BDF8141008440D2804D3FFE700208DF837
:103DD0001F003BE0BDF8161043F6B840C2F20340A6
:103DE000029008442F300699BDF814200132FCF7E8
:103DF0006FFB0299BDF81600BDF81420104408842A
:103E0000FFE743F6B840C2F203402F3000F144FB15
:103E100020B9FFE700208DF81F0017E043F6B840F7
:103E2000C2F20340407F012809D1FFE743F6B840C2
:103E3000C2F203402F3000F13BFF019002E001206D
:103E40000190FFE701988DF81F00FFE79DF81F0024
:103E500008B080BD00000000B0B586B005900598A0
:103E600008B9FFE7B5E100208DF812000598007849
:103E700005280DD1FFE743F6B841C2F20341887F20
:103E8000013818BF0120887701208DF812004EE11B
:103E90000598007806280ED1FFE743F6B841C2F234
:103EA0000341887F023818BF012040008877012035
:103EB0008DF812003AE105980078022842D1FFE718
:103EC00043F6B840C2F20340008CD0B3FFE743F69C
:103ED000B840C2F20340018C01390184407F0228BE
:103EE00025D1FFE743F6B840C2F20340008CF0B1A1
:103EF000FFE743F6B840C2F20340018C084490F853
:103F00002F000A2813D1FFE743F6B841C2F203415C
:103F1000088C084490F82E000D2808D1FFE743F6DE
:103F2000B841C2F20341088C01380884FFE743F628
:103F3000B840C2F20340018C0144002081F82F00F8
:103F4000FFE7F2E005980078032821D1FFE743F668
:103F5000B840C2F20340407F022818D1FFE743F681
:103F6000B840C2F20340008C0130FF280FD8FFE7B1
:103F700043F6B840C2F20340038C591C018400F19F
:103F80002F012022CA54028C00208854FFE7CBE086
:103F900005980078042826D1FFE743F6B840C2F21E
:103FA0000340407F02281DD1FFE743F6B840C2F22C
:103FB0000340008C0230FF2814D8FFE743F6B840D6
:103FC000C2F20340038C591C018400F12F010D2221
:103FD000CA54038C5A1C02840A22CA54028C002040
:103FE0008854FFE79FE005980078012840F088801A
:103FF000FFE7059840788DF8130043F6B840C2F209
:104000000340407F022819D1FFE743F6B840C2F2CF
:104010000340008C0130FF2810D8FFE79DF81320E3
:1040200043F6B840C2F20340038C591C018400F1EE
:104030002F01CA54028C0020885460E043F6B84037
:10404000C2F20340407F012808D0FFE743F6B840A2
:10405000C2F20340407F032850D1FFE743F6B84047
:10406000C2F20340008C01300C2847D8FFE79DF8CE
:104070001300412805DBFFE79DF813005B282DDBCB
:10408000FFE79DF81300612805DBFFE79DF81300AB
:104090007B2823DBFFE79DF81300302805DBFFE7D3
:1040A0009DF813003A2819DBFFE79DF813005F28FD
:1040B00014D0FFE79DF813002D280FD0FFE79DF8DF
:1040C00013002E281AD1FFE743F6B840C2F203408E
:1040D0002F302E21FCF03EF880B9FFE79DF8132029
:1040E00043F6B840C2F20340038C591C018400F12E
:1040F0002F01CA54028C00208854FFE7FFE711E02B
:1041000005980078072803D1FFE700F1C5F860E0C3
:1041100005980078082803D1FFE7FFF7F1FD58E084
:10412000FFE7FFE7FFE7FFE7FFE7FFE7FFE79DF8B0
:10413000120018B1FFE700F183FA4AE043F6B840F5
:10414000C2F20340407F012806D1FFE745F6C27066
:10415000C0F61100039011E043F6B840C2F20340EC
:10416000427F45F65F71C0F6110146F21410C0F6A9
:104170001100032A08BF08460390FFE7039843F69F
:10418000B844C2F2034404F1220204F12F0394F86C
:104190001DC0A57FBCF1020F194608BF114646F6A7
:1041A0001872C0F60102BCF1020F08BF1A46238C38
:1041B000BCF1020C18BF4FF0010CEE46CEF80850CF
:1041C00004F24924CEF80440CEF800C007F124FAE6
:1041D000FFE706B0B0BD000080B58AB0099009982D
:1041E000006843F6B841C2F20341896888420AD1A7
:1041F000FFE70998007943F6B841C2F20341897993
:10420000884201D0FFE7E3E143F6B840C2F2034041
:10421000002181604170007808B9FFE7D8E1099872
:10422000407970B3FFE709980079012807D1FFE7CB
:1042300043F6B841C2F20341012048770DE00998E6
:104240000079032808D1FFE743F6B841C2F20341E1
:10425000002048768876FFE7FFE746F66341C0F620
:10426000010146F25F22C0F61102022001F0A8F916
:104270000998407900F14CFA00F0C2FA00F104FE0E
:10428000A6E10998007901460891102800F297816B
:104290000899DFE811F011008A00A3000B01570113
:1042A0009401940194019401940194019401940166
:1042B00094019401940175010998C17943F6B840BD
:1042C000C2F2034007908170099901F5907100F5E1
:1042D00033704FF49062FBF073FF0798807848B911
:1042E000FFE743F6B841C2F20341FF200871002006
:1042F000C8701BE043F6B841C2F2034191F90400D3
:1043000091F90210884210DBFFE743F6B841C2F290
:10431000034188780138087108794AF6AB22C2F661
:10432000AA22A0FB0220C870FFE7FFE700F148FEC9
:1043300043F6B840C2F20340C07D58B1FFE743F6F0
:10434000B841C2F203410020C87581F8890200F02B
:10435000F3F93DE143F6B840C2F2034090F8890218
:1043600070B1FFE743F6B840C2F20340069000F296
:10437000892000F045FA0699002081F8890206E0BC
:1043800045F69850C0F6110000F03AFAFFE700F148
:104390007BFD46F66341C0F6010145F69B52C0F62F
:1043A0001102002001F00CF912E146F66341C0F65B
:1043B000010145F61562C0F61102002001F000F976
:1043C00043F6B841C2F203410120C875087645F6AC
:1043D0006D60C0F6110000F0F3F9F9E0099800F102
:1043E000100243F6B840C2F20340049000F22F10CE
:1043F0000D21FFF0E5FE049809991D3100F24910E6
:104400004FF48072FCF764F80499002081F84802A8
:10441000099A1289CA81099AD2680A610875487591
:104420000998103000F144FC01460120059041B18B
:10443000FFE70998C1680020FF2988BF0120059087
:10444000FFE7059800F0010143F6B840C2F20340CF
:104450000390817501214171827D45F63771C0F667
:10446000110145F6A260C0F61100002A18BF0846E7
:1044700000F0C6F946F66341C0F6010145F609624F
:10448000C0F61102002001F09BF80398007E48B1AD
:10449000FFE743F6B841C2F203410020087600F17D
:1044A000F3FD02E000F1F0FCFFE791E043F6B840D5
:1044B000C2F2034000210175099909890161407E1A
:1044C00090B1FFE743F6B841C2F2034100204876BD
:1044D000487181F82F0181F8490146F25010C0F669
:1044E000110000F06DF973E043F6B840C2F20340EA
:1044F000807E98B1FFE743F6B842C2F20342002043
:1045000090760121D17646F66341C0F6010145F669
:104510008462C0F6110201F053F859E046F2261009
:10452000C0F6110000F06CF946F66341C0F60101D7
:1045300045F68462C0F61102002001F041F800F156
:10454000A3FC45E043F6B841C2F2034100204871A4
:10455000FF220A7181F82F0181F8490146F6634173
:10456000C0F6010145F63062C0F61102012001F0EB
:1045700027F845F6B960C0F6110000F021F927E0F0
:10458000099800F1100243F6B840C2F203400190CE
:1045900000F22F100D210291FFF012FE01980299F6
:1045A00000224277099A103200F59E70FFF008FE53
:1045B00045F6FC50C0F6110000F002F908E045F69F
:1045C000D070C0F6110000F01BF900F15DFCFFE7B0
:1045D0000AB080BD0000000080B582B0019043F6B3
:1045E000B840C2F203408089ADF80200FFE7BDF891
:1045F000020042F20F7188426ED8FFE701994E2007
:10460000087001994F204870019954208870019AD0
:104610004521D170BDF8021048F63812C0F24102AF
:10462000A1FB022149F69A12C1F69912A1FB02C31D
:1046300003EB8303A1EB430141F03001019B1971AE
:10464000BDF8021045F62943C0F28F23A1FB0331C8
:10465000A1FB02C303EB8303A1EB430141F0300153
:10466000019B5971BDF80210A1FB0231A1FB02C3ED
:1046700003EB8303A1EB430141F03001019B9971EE
:10468000BDF80210A1FB023202EB8202A1EB420153
:1046900041F03001019AD171019A2E2111720199D4
:1046A0004872019A582191720199C87201990020AB
:1046B0000873BDF802000130ADF80200019800F166
:1046C0006BFB40B9FFE7BDF8020043F6B841C2F208
:1046D0000341888109E08AE7019846F28212C0F618
:1046E00011020D21FFF06CFDFFE702B080BD00005C
:1046F00080B582B043F6B840C2F20340009040F269
:104700004C71FBF08FFD009901200870FF220A71A7
:10471000888100200190487146F2CD10C0F611004A
:1047200000F06EF800F1B0FB019800F049F802B01B
:1047300080BD00000000000080B5D0B043F6B84056
:10474000C2F2034090F90400002809D4FFE743F6C1
:10475000B840C2F2034081780079884209DBFFE764
:1047600046F26E10C0F6110000F04AF800F18CFB22
:1047700024E003A802904FF49A71FBF053FD0298D5
:1047800002218DF81010053043F6B841C2F2034102
:1047900001910A7902EB420201EB021101F5337239
:1047A0000D21FFF00DFD019A02980021517545F68B
:1047B000D361C0F6110100F0A3F8FFE750B080BD4F
:1047C00080B5D0B04F9002A801904FF49A71FBF0E1
:1047D00029FD00208DF80C004F9A43F6B840C2F234
:1047E000034000F289204021FFF0EAFC019846F2E4
:1047F000E711C0F6110100F083F850B080BD000051
:1048000080B582B00190019A43F6B840C2F20340ED
:1048100000F249204021FFF0D3FC02B080BD00002F
:1048200080B586B08DF817009DF8170043F6B841A3
:10483000C2F203414877012088779DF817000328CA
:1048400042D1FFE743F6B840C2F2034000F22F1016
:104850002E21FBF713FE0490049858B1FFE704984B
:1048600043F6B841C2F20341401AA0F22F1080B2C1
:1048700002900AE043F6B840C2F2034000F22F1063
:10488000FBF707FE80B20290FFE70298ADF80E003A
:10489000BDF80E000D2804D3FFE70C20ADF80E0084
:1048A000FFE7BDF80E2043F6B841C2F2034101F123
:1048B0002F00019001F22F11FBF70AFE0199BDF8BC
:1048C0000E200020885407E043F6B840C2F20340AF
:1048D0002F30FFF781FEFFE743F6B840C2F20340F6
:1048E00000902F30FBF7D5FD0099088446F23D007B
:1048F000C0F61100FFF784FFFFF0A2FE06B080BDF6
:1049000080B584B00290019143F6B840C2F20340F2
:10491000407858B1FFE746F21C00C0F61100FFF7DF
:104920006FFF00F1B1FA002003903DE044F2044033
:10493000C2F20340016801310160006838B9FFE745
:1049400044F20441C2F2034101200860FFE744F24F
:104950000440C2F20340006802990860029803F123
:1049600083FB01280BD0FFE746F26B00C0F6110075
:10497000FFF746FF00F188FA0020039014E043F6A9
:10498000B841C2F2034101200090487002980068CB
:1049900088600298007988710198FFF731FF00F173
:1049A00073FA00980390FFE7039804B080BD0000FD
:1049B00081B043F6B841C2F20341C87E8DF80300CE
:1049C0000020C8769DF8030001B070470000000089
:1049D00080B582B08DF807009DF80700042817DC29
:1049E000FFE710F0B9F99DF8072046F24041C2F206
:1049F000034141F822009DF80710012000FA01F25E
:104A000041F23821C2F20341086810430860FFE711
:104A100002B080BD0000000081B041F23821C2F236
:104A20000341002008600090FFE7009804280DD89B
:104A3000FFE7009A46F24041C2F20341002041F8EC
:104A40002200FFE7009801300090EEE74AF288214B
:104A5000C2F20341002008704AF28C21C2F20341E5
:104A600008604AF22811C2F2034108604860886079
:104A7000C862086381F8340081F8350001B07047DE
:104A800084B002908DF807109DF807000146009150
:104A9000042819D80099DFE801F003070B0F130071
:104AA00002980068039012E00298406803900EE0BC
:104AB0000298806803900AE00298C068039006E0BC
:104AC00002980069039002E000200390FFE703983A
:104AD00004B070470000000080B588B006900591D2
:104AE0008DF81320039310F037F90290FFE7069832
:104AF000006805990840002818BF01208DF80700BC
:104B00009DF807009DF81310884204D1FFE70120AB
:104B10008DF81F0019E001200CF1F6FFFFE710F0FF
:104B20001BF90299401A009003984FF47A72A0FB87
:104B300002010023FBF075FA014600988842D6D3A3
:104B4000FFE700208DF81F00FFE79DF81F0008B069
:104B500080BD00000000000080B586B00590049183
:104B60008DF80F2005980CF1BFFD0290029849F6D0
:104B70002661C2F203410880029800F1A9FB49F6C0
:104B80007461C2F203410870029800F1C5FBADF8F0
:104B9000060049F60460C2F20340007800287DD088
:104BA000FFE7049849F6F451C2F203418968401ABC
:104BB00033281CD3FFE749F60461C2F20341002009
:104BC000087043F6A021C2F2034108680130086072
:104BD00043F69821C2F2034108680130086043F6A9
:104BE0009C21C2F2034108680130086055E09DF83D
:104BF0000F00C8B1FFE70298182815D3FFE749F660
:104C00000461C2F203410020087043F69821C2F209
:104C1000034108680130086043F69C21C2F2034159
:104C200008680130086037E09DF80F00D0B9FFE751
:104C3000BDF8060078B3FFE7049846F25441C2F28B
:104C400003410968401A0090BDF806004FF47A72DB
:104C5000A0FB02010023FBF0E4F901460098884222
:104C600019D3FFE7059849F6F451C2F20341002237
:104C700000F0FEFB01280DD1FFE7049846F25441F5
:104C8000C2F20341086049F60461C2F20341002008
:104C90000870FFE7FFE7FFE7FFE7FFE749F6186067
:104CA000C2F203400078C0B1FFE7049849F60861FA
:104CB000C2F203418968401A65280ED3FFE749F61E
:104CC0001861C2F203410020087043F69821C2F235
:104CD000034108680130086050E049F61860C2F2EC
:104CE00003400078B0B1FFE79DF80F0090B1FFE7F7
:104CF000029818280ED3FFE749F61861C2F2034163
:104D00000020087043F69821C2F203410868013080
:104D1000086032E049F61860C2F20340007858B3E8
:104D2000FFE70298172827D8FFE79DF80F0050B932
:104D3000FFE7049846F25841C2F203410968401A5D
:104D4000282819D3FFE7059849F60861C2F2034104
:104D5000002200F08DFB01280DD1FFE7049846F2F8
:104D60005841C2F20341086049F61861C2F203419A
:104D700000200870FFE7FFE7FFE7FFE706B080BD10
:104D800040F22800C2F200400078704700000000A6
:104D900080B584B003900398002800F03481FFE7C9
:104DA00049F62C60C2F2034000680399086049F696
:104DB0003060C2F2034000680399486049F63460ED
:104DC000C2F203400068039988604AF2A800C2F268
:104DD000034000680399C86041F2C420C2F2034056
:104DE00000680399086149F61C60C2F2034000683C
:104DF0000399486141F2C820C2F203400068039958
:104E0000886143F69820C2F2034000680399C861A4
:104E10004AF27010C2F203400068039908624AF235
:104E20007410C2F2034000680399486243F6A02060
:104E3000C2F2034000680399886243F69C20C2F2E4
:104E4000034000680399C86241F2CC20C2F20340DB
:104E500000680399086346F26040C2F203400168AB
:104E6000039A5163006870B1FFE746F26440C2F2F2
:104E70000340006846F26041C2F203410968B0FB9A
:104E8000F1F0009002E000200090FFE70098039905
:104E9000886346F25C40C2F2034000880399888729
:104EA00046F25E40C2F2034000880399C88749F683
:104EB0002660C2F203400188039AA2F8401049F626
:104EC0002861C2F203410988039AA2F842100088BF
:104ED00000F122FA0399A1F8440049F67460C2F285
:104EE00003400078039981F846004AF26910C2F243
:104EF00003400178039A82F847104AF26811C2F21F
:104F000003410978039A82F848104AF26A11C2F202
:104F100003410978039A82F84910039A0021A2F804
:104F20004A100078E0B3FFE74AF26810C2F203408B
:104F30000078A8BBFFE70FF00FFF4AF26C11C2F236
:104F400003410968401A4FF47A71484344F6D3513B
:104F5000C1F26201A0FB0110800902904AF26910BF
:104F6000C2F20340017842F21070012908BF4EF6E8
:104F70006020019002980199884210D2FFE70198C1
:104F80000299401A00F2E73044F6D351C1F26201AF
:104F9000A0FB011080090399A1F84A00FFE7FFE791
:104FA00049F62860C2F2034000880399A1F84C003A
:104FB00046F25E40C2F2034000880399A1F84E0019
:104FC00049F62C60C2F2034000680399086549F66F
:104FD0001C60C2F20340006841F2C821C2F20341E2
:104FE000096808440399486543F69820C2F20340D3
:104FF00000680399886541F2CC20C2F20340006842
:105000000399C865FFE704B080BD00000000000000
:1050100081B040F22800C2F200400078012804D19B
:10502000FFE70620ADF802000FE040F22800C2F2D0
:1050300000400078032804D1FFE70120ADF802000A
:1050400003E00320ADF80200FFE7BDF8020001B065
:10505000704700000000000080B58CB00A900991F4
:1050600008920A9858B1FFE7099840B1FFE70A98FB
:105070000999089A0FF0F4FB012803D0FFE70020FC
:105080000B9091E041F2C421C2F203410868013063
:10509000086009980078012837D1FFE7FFE70A98F0
:1050A00004A9002201920FF0EBFA014601980129B0
:1050B000029011D1FFE79DF8101000200129029005
:1050C0000AD1FFE79DF8110009994978401AB0FA12
:1050D00080F040090290FFE70298C007A0B1FFE707
:1050E0000A98099900220FF0BBFB41F2C821C2F2D5
:1050F000034108680130086041F2C421C2F2034153
:10510000086801300860CAE7FFE70FF025FE03904A
:105110000998C06818B9FFE70020009010E00398D4
:105120000999C968401A4FF47A71484344F6D3513B
:10513000C1F26201A0FB0110C0F38F100090FFE7E5
:10514000009946F25C40C2F20340018046F26042A0
:10515000C2F20342116801311160038846F26442D1
:10516000C2F20342116819441160008846F25E41A0
:10517000C2F20341098888420BDDFFE746F25C403A
:10518000C2F20340008846F25E41C2F20341088049
:10519000FFE70A980CF1A8FA49F62661C2F203412A
:1051A000088001200B90FFE70B980CB080BD000039
:1051B00080B50FF09DF84AF2A801C2F20341002029
:1051C000086049F62C61C2F20341086049F630617B
:1051D000C2F20341086049F63461C2F2034108603B
:1051E00041F2C421C2F20341086049F61C61C2F2D7
:1051F0000341086041F2C821C2F20341086043F64E
:105200009821C2F2034108604AF27011C2F20341D0
:1052100008604AF27411C2F20341086043F6A0210B
:10522000C2F20341086043F69C21C2F203410860C8
:1052300041F2CC21C2F20341086046F26041C2F261
:105240000341086046F26441C2F20341086046F23D
:105250005C41C2F20341088046F25E41C2F2034162
:10526000088049F62861C2F20341088049F674615A
:10527000C2F20341087049F62661C2F20341088078
:1052800049F60461C2F20341087049F61861C2F29E
:10529000034108704AF26911C2F2034108704AF2F0
:1052A0006811C2F2034108704AF26A11C2F2034166
:1052B00008704AF26C11C2F2034108600FF048F81E
:1052C00080BD00000000000080B58AB00990089100
:1052D0000998002800F0C880FFE74AF26910C2F27E
:1052E0000340007802285AD1FFE74AF26810C2F260
:1052F00003400078002852D1FFE700208DF80B0012
:10530000FFE79DF80B00052848D8FFE740F6FC6052
:10531000C2F200400188CB1D4CF6BA71C0F22E01DA
:10532000A3FB01214FF4AF6201FB12310180012187
:105330008DF8101002218DF81110038849F6747150
:10534000C0F25D01A3FB01214FF42F7201FB12316A
:105350003231ADF81210008800EB40024CF2C1006F
:10536000C0F2C000A2FB00104FF4AA7100FB112094
:105370004630ADF8140000208DF816008DF81700A7
:10538000089906910790099804A9FFF0E9FFFFE743
:105390009DF80B0001308DF80B00B2E7FFE709988C
:1053A00008990022FFF7D8FB4AF26910C2F20340C5
:1053B0000078002857D0FFE74AF26810C2F2034095
:1053C000007800284FD1FFE74AF26910C2F203408B
:1053D000017842F21070012908BF4EF66020039058
:1053E00008984AF26C11C2F203410968401A019010
:1053F00003984FF47A72A0FB02010023FAF011FE29
:105400000146019888422DD3FFE74AF26811C2F2A3
:1054100003410120087041F2CC20C2F20340016830
:1054200000200090A9B9FFE746F25E40C2F20340B7
:1054300001880020642900900BD8FFE749F6286016
:10544000C2F20340018800201D2938BF01200090CE
:10545000FFE7009800F001004AF26A11C2F203412E
:105460000870FFE7FFE7FFE70AB080BD000000001B
:1054700080B58AB0089007918DF81B20079B1868AB
:1054800059689A68DB6805930492039102900FF0C3
:1054900063FC059008989DF81B20002A18BF142271
:1054A00002A900230CF188FD01281ED0FFE743F676
:1054B0009821C2F203410868013008609DF81B0082
:1054C00040B1FFE741F2CC21C2F20341086801304C
:1054D000086007E043F69C21C2F2034108680130EE
:1054E0000860FFE70020099023E04AF2A801C2F219
:1054F000034108680130086008980CF1F5F8019044
:10550000019849F62661C2F203410880019849F6E4
:105510002861C2F203410988884207D9FFE7019850
:1055200049F62861C2F203410880FFE70120099093
:10553000FFE709980AB080BD81B08DF803009DF89F
:10554000030068B1FFE79DF80300032808D8FFE7D0
:105550009DF8030040F22801C2F200410870FFE705
:1055600001B070470000000080B582B08DF80300E4
:105570009DF8030018B9FFE7002001901DE0FFF738
:1055800017FE9DF803004AF26911C2F20341087048
:105590000FF0E2FB4AF26C11C2F2034108604AF2DA
:1055A0006811C2F20341002008704AF26A11C2F287
:1055B0000341087001200190FFE7019802B080BD0F
:1055C00080B586B08DF817000491039200F104FABB
:1055D0000EF08EFE46F26840C2F2034001908178E0
:1055E00000EB8110083002900FF0B6FB44F6D35167
:1055F000C1F26201A0FB01108009029908609DF8C8
:1056000017000299087102980530049A0921FFF0E9
:10561000E7FF02980E30039A3121FFF0E1FF019875
:105620008178013101F03F01817040783F2808D82E
:10563000FFE746F26841C2F2034148780130487002
:10564000FFE746F26841C2F2034148680130486012
:105650000EF07EFE06B080BD10B58EB000200C901E
:1056600047F27440C2F203404C3046F27E52C0F61C
:1056700011024FF4C051FAF04DFD0B900B98002829
:1056800005D4FFE70B98B0F5C05F03D3FFE7002018
:105690000D9062E00B980C9047F27440C2F2034008
:1056A00000798DF82B00FFE79DF82B00002851D0E2
:1056B000FFE79DF82B1047F27440C2F203400390BD
:1056C00000EB811041F60C01084407900798006830
:1056D0000DF12201059100F10BF803990C9801449A
:1056E0004C310691C0F5C05004900798007900F144
:1056F00093F90499059B02460698DDF81CC00CF14D
:10570000050E0CF10E04EC46CCF80840CCF804E091
:10571000CCF8002046F2B652C0F61102FAF0FAFCBC
:105720000B900B98002807D4FFE70B980C99C1F554
:10573000C051884203D3FFE700200D900DE00B9984
:105740000C9808440C90FFE79DF82B0001388DF869
:105750002B00A9E70C980D90FFE70D980EB010BD37
:1057600047F27441C2F2034100200870887070470C
:1057700080B582B047F27440C2F20340007808B9A5
:10578000FFE714E047F27443C2F20343587893F8FA
:1057900002E0DA781979EC46CCF804E0CCF80000A5
:1057A00041F64C0018440C3304F072FDFFE702B0E0
:1057B00080BD00000000000080B582B00190019A19
:1057C00047F27440C2F203400C304021FFF008FF62
:1057D00002B080BD00000000F0B585B08DF8130068
:1057E0000EF086FD46F26840C2F20340407847F270
:1057F0007441C2F20341087100208DF81200FFE7E6
:105800009DF8120046F26841C2F20341497888428D
:105810005ADAFFE746F26840C2F2034081789DF809
:105820001220D2431144403101F03F018DF8111094
:105830009DF8122047F27441C2F2034101EB821637
:1058400041F64C07F11902919DF8112000EB821CE2
:10585000CDF80CC0DCF818E0DCF81C40DCF808508F
:10586000DCF80C00DCF81020DCF81430F5514C6149
:10587000C1F810E0CB608A604860DCF82000DCF8FA
:105880002420DCF82830DCF82CE0DCF83040DCF8B0
:105890003450CD628C62C1F824E00B62CA61886129
:1058A000DCF83800DCF83C20DCF84030DCF844C0A0
:1058B000C1F83CC08B634A630863FFE79DF81200A0
:1058C00001308DF812009BE746F26840C2F20340B7
:1058D000406847F27441C2F20341019188600EF0C2
:1058E00037FD01980079811D44F62510C2F29240DF
:1058F000A1FB0020091A00EB510080088DF8100070
:105900009DF8130020B9FFE79DF8100038B9FFE7B4
:1059100047F27441C2F203410020C87013E047F21D
:105920007440C2F20340C0789DF81010884209DB31
:10593000FFE79DF81000013847F27441C2F20341BD
:10594000C870FFE7FFE705B0F0BD000000000000F1
:1059500080B549F68050C2F20340407C58B1FFE761
:1059600049F68050C2F2034000214174827C01203C
:1059700000F186F9FFE780BD80B586B005900598F7
:1059800038B1FFE749F68050C2F20340006808B919
:10599000FFE77BE0059890F9010049F68051C2F2DB
:1059A000034102910C3100F073F80299ADF8100038
:1059B000059890F902000E3100F06AF8ADF80E007B
:1059C000BDF9100020B9FFE7BDF90E00C0B1FFE737
:1059D000BDF9102049F68051C2F203410191486897
:1059E00010444860BDF90E2088681044886000F1BA
:1059F000FFF8019901204874059800788874FFE742
:105A00000598007849F68051C2F20341097C48406C
:105A10008DF813009DF81300C00758B1FFE7FFF79A
:105A200097FF05980278012090434000002100F183
:105A300027F9FFE79DF81300800700280FD5FFE73F
:105A4000059800788007002809D5FFE7FFF780FF59
:105A5000059802780420002100F112F9FFE705986B
:105A600090F9030050B1FFE7FFF772FF059890F936
:105A700003100278032000F103F9FFE7059800788E
:105A800049F68051C2F203410874FFE706B080BDB9
:105A900080B584B08DF80D000291FFF771F98DF893
:105AA00007009DF80700032809D1FFE702990020AD
:105AB00008809DF90D004000ADF80E0027E09DF82C
:105AC000070001281BD1FFE7029800889DF90D10FF
:105AD0000844ADF80400BDF9040000EBD0704008A4
